{
  "_format": "hh-sol-artifact-1",
  "contractName": "EasyBet",
  "sourceName": "contracts/EasyBet.sol",
  "abi": [
    {
      "inputs": [],
      "stateMutability": "nonpayable",
      "type": "constructor"
    },
    {
      "inputs": [
        {
          "internalType": "address",
          "name": "sender",
          "type": "address"
        },
        {
          "internalType": "uint256",
          "name": "tokenId",
          "type": "uint256"
        },
        {
          "internalType": "address",
          "name": "owner",
          "type": "address"
        }
      ],
      "name": "ERC721IncorrectOwner",
      "type": "error"
    },
    {
      "inputs": [
        {
          "internalType": "address",
          "name": "operator",
          "type": "address"
        },
        {
          "internalType": "uint256",
          "name": "tokenId",
          "type": "uint256"
        }
      ],
      "name": "ERC721InsufficientApproval",
      "type": "error"
    },
    {
      "inputs": [
        {
          "internalType": "address",
          "name": "approver",
          "type": "address"
        }
      ],
      "name": "ERC721InvalidApprover",
      "type": "error"
    },
    {
      "inputs": [
        {
          "internalType": "address",
          "name": "operator",
          "type": "address"
        }
      ],
      "name": "ERC721InvalidOperator",
      "type": "error"
    },
    {
      "inputs": [
        {
          "internalType": "address",
          "name": "owner",
          "type": "address"
        }
      ],
      "name": "ERC721InvalidOwner",
      "type": "error"
    },
    {
      "inputs": [
        {
          "internalType": "address",
          "name": "receiver",
          "type": "address"
        }
      ],
      "name": "ERC721InvalidReceiver",
      "type": "error"
    },
    {
      "inputs": [
        {
          "internalType": "address",
          "name": "sender",
          "type": "address"
        }
      ],
      "name": "ERC721InvalidSender",
      "type": "error"
    },
    {
      "inputs": [
        {
          "internalType": "uint256",
          "name": "tokenId",
          "type": "uint256"
        }
      ],
      "name": "ERC721NonexistentToken",
      "type": "error"
    },
    {
      "inputs": [
        {
          "internalType": "address",
          "name": "owner",
          "type": "address"
        }
      ],
      "name": "OwnableInvalidOwner",
      "type": "error"
    },
    {
      "inputs": [
        {
          "internalType": "address",
          "name": "account",
          "type": "address"
        }
      ],
      "name": "OwnableUnauthorizedAccount",
      "type": "error"
    },
    {
      "inputs": [],
      "name": "ReentrancyGuardReentrantCall",
      "type": "error"
    },
    {
      "anonymous": false,
      "inputs": [
        {
          "indexed": true,
          "internalType": "uint256",
          "name": "activityId",
          "type": "uint256"
        },
        {
          "indexed": false,
          "internalType": "uint256",
          "name": "initialPool",
          "type": "uint256"
        },
        {
          "indexed": false,
          "internalType": "uint256",
          "name": "deadline",
          "type": "uint256"
        }
      ],
      "name": "ActivityCreated",
      "type": "event"
    },
    {
      "anonymous": false,
      "inputs": [
        {
          "indexed": true,
          "internalType": "uint256",
          "name": "activityId",
          "type": "uint256"
        },
        {
          "indexed": false,
          "internalType": "uint256",
          "name": "winningChoice",
          "type": "uint256"
        },
        {
          "indexed": false,
          "internalType": "uint256",
          "name": "winnersCount",
          "type": "uint256"
        },
        {
          "indexed": false,
          "internalType": "uint256",
          "name": "totalPool",
          "type": "uint256"
        }
      ],
      "name": "ActivitySettled",
      "type": "event"
    },
    {
      "anonymous": false,
      "inputs": [
        {
          "indexed": true,
          "internalType": "address",
          "name": "owner",
          "type": "address"
        },
        {
          "indexed": true,
          "internalType": "address",
          "name": "approved",
          "type": "address"
        },
        {
          "indexed": true,
          "internalType": "uint256",
          "name": "tokenId",
          "type": "uint256"
        }
      ],
      "name": "Approval",
      "type": "event"
    },
    {
      "anonymous": false,
      "inputs": [
        {
          "indexed": true,
          "internalType": "address",
          "name": "owner",
          "type": "address"
        },
        {
          "indexed": true,
          "internalType": "address",
          "name": "operator",
          "type": "address"
        },
        {
          "indexed": false,
          "internalType": "bool",
          "name": "approved",
          "type": "bool"
        }
      ],
      "name": "ApprovalForAll",
      "type": "event"
    },
    {
      "anonymous": false,
      "inputs": [
        {
          "indexed": true,
          "internalType": "uint256",
          "name": "tokenId",
          "type": "uint256"
        },
        {
          "indexed": true,
          "internalType": "uint256",
          "name": "activityId",
          "type": "uint256"
        },
        {
          "indexed": false,
          "internalType": "uint256",
          "name": "price",
          "type": "uint256"
        },
        {
          "indexed": true,
          "internalType": "address",
          "name": "owner",
          "type": "address"
        }
      ],
      "name": "BetPlaced",
      "type": "event"
    },
    {
      "anonymous": false,
      "inputs": [
        {
          "indexed": true,
          "internalType": "uint256",
          "name": "tokenId",
          "type": "uint256"
        },
        {
          "indexed": true,
          "internalType": "address",
          "name": "seller",
          "type": "address"
        },
        {
          "indexed": true,
          "internalType": "address",
          "name": "buyer",
          "type": "address"
        },
        {
          "indexed": false,
          "internalType": "uint256",
          "name": "price",
          "type": "uint256"
        }
      ],
      "name": "OfferAccepted",
      "type": "event"
    },
    {
      "anonymous": false,
      "inputs": [
        {
          "indexed": true,
          "internalType": "uint256",
          "name": "tokenId",
          "type": "uint256"
        },
        {
          "indexed": true,
          "internalType": "address",
          "name": "bidder",
          "type": "address"
        },
        {
          "indexed": false,
          "internalType": "uint256",
          "name": "price",
          "type": "uint256"
        }
      ],
      "name": "OfferPlaced",
      "type": "event"
    },
    {
      "anonymous": false,
      "inputs": [
        {
          "indexed": true,
          "internalType": "uint256",
          "name": "tokenId",
          "type": "uint256"
        },
        {
          "indexed": true,
          "internalType": "address",
          "name": "bidder",
          "type": "address"
        },
        {
          "indexed": false,
          "internalType": "uint256",
          "name": "price",
          "type": "uint256"
        }
      ],
      "name": "OfferWithdrawn",
      "type": "event"
    },
    {
      "anonymous": false,
      "inputs": [
        {
          "indexed": true,
          "internalType": "address",
          "name": "previousOwner",
          "type": "address"
        },
        {
          "indexed": true,
          "internalType": "address",
          "name": "newOwner",
          "type": "address"
        }
      ],
      "name": "OwnershipTransferred",
      "type": "event"
    },
    {
      "anonymous": false,
      "inputs": [
        {
          "indexed": true,
          "internalType": "uint256",
          "name": "tokenId",
          "type": "uint256"
        },
        {
          "indexed": true,
          "internalType": "address",
          "name": "seller",
          "type": "address"
        },
        {
          "indexed": false,
          "internalType": "uint256",
          "name": "price",
          "type": "uint256"
        }
      ],
      "name": "TicketListed",
      "type": "event"
    },
    {
      "anonymous": false,
      "inputs": [
        {
          "indexed": true,
          "internalType": "uint256",
          "name": "tokenId",
          "type": "uint256"
        },
        {
          "indexed": true,
          "internalType": "address",
          "name": "seller",
          "type": "address"
        }
      ],
      "name": "TicketListingCanceled",
      "type": "event"
    },
    {
      "anonymous": false,
      "inputs": [
        {
          "indexed": true,
          "internalType": "uint256",
          "name": "tokenId",
          "type": "uint256"
        },
        {
          "indexed": true,
          "internalType": "address",
          "name": "seller",
          "type": "address"
        },
        {
          "indexed": true,
          "internalType": "address",
          "name": "buyer",
          "type": "address"
        },
        {
          "indexed": false,
          "internalType": "uint256",
          "name": "price",
          "type": "uint256"
        }
      ],
      "name": "TicketSold",
      "type": "event"
    },
    {
      "anonymous": false,
      "inputs": [
        {
          "indexed": true,
          "internalType": "address",
          "name": "from",
          "type": "address"
        },
        {
          "indexed": true,
          "internalType": "address",
          "name": "to",
          "type": "address"
        },
        {
          "indexed": true,
          "internalType": "uint256",
          "name": "tokenId",
          "type": "uint256"
        }
      ],
      "name": "Transfer",
      "type": "event"
    },
    {
      "inputs": [
        {
          "internalType": "uint256",
          "name": "tokenId",
          "type": "uint256"
        },
        {
          "internalType": "uint256",
          "name": "index",
          "type": "uint256"
        }
      ],
      "name": "acceptOffer",
      "outputs": [],
      "stateMutability": "nonpayable",
      "type": "function"
    },
    {
      "inputs": [
        {
          "internalType": "uint256",
          "name": "",
          "type": "uint256"
        }
      ],
      "name": "activities",
      "outputs": [
        {
          "internalType": "address",
          "name": "creator",
          "type": "address"
        },
        {
          "internalType": "uint256",
          "name": "deadline",
          "type": "uint256"
        },
        {
          "internalType": "string",
          "name": "content",
          "type": "string"
        },
        {
          "internalType": "uint256",
          "name": "initialPool",
          "type": "uint256"
        },
        {
          "internalType": "uint256",
          "name": "totalPool",
          "type": "uint256"
        },
        {
          "internalType": "bool",
          "name": "settled",
          "type": "bool"
        },
        {
          "internalType": "uint256",
          "name": "winningChoice",
          "type": "uint256"
        }
      ],
      "stateMutability": "view",
      "type": "function"
    },
    {
      "inputs": [
        {
          "internalType": "uint256",
          "name": "activityId",
          "type": "uint256"
        }
      ],
      "name": "activityExists",
      "outputs": [
        {
          "internalType": "bool",
          "name": "",
          "type": "bool"
        }
      ],
      "stateMutability": "view",
      "type": "function"
    },
    {
      "inputs": [
        {
          "internalType": "address",
          "name": "to",
          "type": "address"
        },
        {
          "internalType": "uint256",
          "name": "tokenId",
          "type": "uint256"
        }
      ],
      "name": "approve",
      "outputs": [],
      "stateMutability": "nonpayable",
      "type": "function"
    },
    {
      "inputs": [
        {
          "internalType": "address",
          "name": "owner",
          "type": "address"
        }
      ],
      "name": "balanceOf",
      "outputs": [
        {
          "internalType": "uint256",
          "name": "",
          "type": "uint256"
        }
      ],
      "stateMutability": "view",
      "type": "function"
    },
    {
      "inputs": [
        {
          "internalType": "uint256",
          "name": "tokenId",
          "type": "uint256"
        }
      ],
      "name": "buyListedTicket",
      "outputs": [],
      "stateMutability": "payable",
      "type": "function"
    },
    {
      "inputs": [
        {
          "internalType": "uint256",
          "name": "activityId",
          "type": "uint256"
        },
        {
          "internalType": "uint256",
          "name": "choiceIndex",
          "type": "uint256"
        }
      ],
      "name": "buyTicket",
      "outputs": [
        {
          "internalType": "uint256",
          "name": "",
          "type": "uint256"
        }
      ],
      "stateMutability": "payable",
      "type": "function"
    },
    {
      "inputs": [
        {
          "internalType": "uint256",
          "name": "tokenId",
          "type": "uint256"
        }
      ],
      "name": "cancelListing",
      "outputs": [],
      "stateMutability": "nonpayable",
      "type": "function"
    },
    {
      "inputs": [
        {
          "internalType": "string",
          "name": "content",
          "type": "string"
        },
        {
          "internalType": "string[]",
          "name": "choices",
          "type": "string[]"
        },
        {
          "internalType": "uint256",
          "name": "deadline",
          "type": "uint256"
        }
      ],
      "name": "createActivity",
      "outputs": [
        {
          "internalType": "uint256",
          "name": "",
          "type": "uint256"
        }
      ],
      "stateMutability": "payable",
      "type": "function"
    },
    {
      "inputs": [
        {
          "internalType": "address",
          "name": "creator",
          "type": "address"
        }
      ],
      "name": "getActivitiesByCreator",
      "outputs": [
        {
          "internalType": "uint256[]",
          "name": "",
          "type": "uint256[]"
        }
      ],
      "stateMutability": "view",
      "type": "function"
    },
    {
      "inputs": [
        {
          "internalType": "uint256",
          "name": "activityId",
          "type": "uint256"
        }
      ],
      "name": "getActivityDetail",
      "outputs": [
        {
          "internalType": "address",
          "name": "creator",
          "type": "address"
        },
        {
          "internalType": "uint256",
          "name": "deadline",
          "type": "uint256"
        },
        {
          "internalType": "string",
          "name": "content",
          "type": "string"
        },
        {
          "internalType": "string[]",
          "name": "choices",
          "type": "string[]"
        },
        {
          "internalType": "uint256",
          "name": "initialPool",
          "type": "uint256"
        },
        {
          "internalType": "uint256",
          "name": "totalPool",
          "type": "uint256"
        },
        {
          "internalType": "bool",
          "name": "settled",
          "type": "bool"
        },
        {
          "internalType": "uint256",
          "name": "winningChoice",
          "type": "uint256"
        },
        {
          "internalType": "uint256[]",
          "name": "choiceBetAmounts",
          "type": "uint256[]"
        }
      ],
      "stateMutability": "view",
      "type": "function"
    },
    {
      "inputs": [],
      "name": "getAllActivityIds",
      "outputs": [
        {
          "internalType": "uint256[]",
          "name": "ids",
          "type": "uint256[]"
        }
      ],
      "stateMutability": "view",
      "type": "function"
    },
    {
      "inputs": [],
      "name": "getAllListings",
      "outputs": [
        {
          "internalType": "uint256[]",
          "name": "tokenIds",
          "type": "uint256[]"
        },
        {
          "internalType": "address[]",
          "name": "sellers",
          "type": "address[]"
        },
        {
          "internalType": "uint256[]",
          "name": "prices",
          "type": "uint256[]"
        }
      ],
      "stateMutability": "view",
      "type": "function"
    },
    {
      "inputs": [
        {
          "internalType": "uint256",
          "name": "tokenId",
          "type": "uint256"
        }
      ],
      "name": "getApproved",
      "outputs": [
        {
          "internalType": "address",
          "name": "",
          "type": "address"
        }
      ],
      "stateMutability": "view",
      "type": "function"
    },
    {
      "inputs": [
        {
          "internalType": "uint256",
          "name": "tokenId",
          "type": "uint256"
        }
      ],
      "name": "getOffers",
      "outputs": [
        {
          "internalType": "address[]",
          "name": "bidders",
          "type": "address[]"
        },
        {
          "internalType": "uint256[]",
          "name": "prices",
          "type": "uint256[]"
        }
      ],
      "stateMutability": "view",
      "type": "function"
    },
    {
      "inputs": [
        {
          "internalType": "address",
          "name": "owner",
          "type": "address"
        }
      ],
      "name": "getTicketsByOwner",
      "outputs": [
        {
          "internalType": "uint256[]",
          "name": "",
          "type": "uint256[]"
        }
      ],
      "stateMutability": "view",
      "type": "function"
    },
    {
      "inputs": [
        {
          "internalType": "address",
          "name": "owner",
          "type": "address"
        },
        {
          "internalType": "address",
          "name": "operator",
          "type": "address"
        }
      ],
      "name": "isApprovedForAll",
      "outputs": [
        {
          "internalType": "bool",
          "name": "",
          "type": "bool"
        }
      ],
      "stateMutability": "view",
      "type": "function"
    },
    {
      "inputs": [
        {
          "internalType": "uint256",
          "name": "tokenId",
          "type": "uint256"
        },
        {
          "internalType": "uint256",
          "name": "price",
          "type": "uint256"
        }
      ],
      "name": "listTicket",
      "outputs": [],
      "stateMutability": "nonpayable",
      "type": "function"
    },
    {
      "inputs": [
        {
          "internalType": "uint256",
          "name": "",
          "type": "uint256"
        }
      ],
      "name": "listings",
      "outputs": [
        {
          "internalType": "address",
          "name": "seller",
          "type": "address"
        },
        {
          "internalType": "uint256",
          "name": "price",
          "type": "uint256"
        },
        {
          "internalType": "bool",
          "name": "exists",
          "type": "bool"
        }
      ],
      "stateMutability": "view",
      "type": "function"
    },
    {
      "inputs": [
        {
          "internalType": "uint256",
          "name": "tokenId",
          "type": "uint256"
        }
      ],
      "name": "makeOffer",
      "outputs": [],
      "stateMutability": "payable",
      "type": "function"
    },
    {
      "inputs": [],
      "name": "name",
      "outputs": [
        {
          "internalType": "string",
          "name": "",
          "type": "string"
        }
      ],
      "stateMutability": "view",
      "type": "function"
    },
    {
      "inputs": [],
      "name": "owner",
      "outputs": [
        {
          "internalType": "address",
          "name": "",
          "type": "address"
        }
      ],
      "stateMutability": "view",
      "type": "function"
    },
    {
      "inputs": [
        {
          "internalType": "uint256",
          "name": "tokenId",
          "type": "uint256"
        }
      ],
      "name": "ownerOf",
      "outputs": [
        {
          "internalType": "address",
          "name": "",
          "type": "address"
        }
      ],
      "stateMutability": "view",
      "type": "function"
    },
    {
      "inputs": [],
      "name": "renounceOwnership",
      "outputs": [],
      "stateMutability": "nonpayable",
      "type": "function"
    },
    {
      "inputs": [
        {
          "internalType": "address",
          "name": "from",
          "type": "address"
        },
        {
          "internalType": "address",
          "name": "to",
          "type": "address"
        },
        {
          "internalType": "uint256",
          "name": "tokenId",
          "type": "uint256"
        }
      ],
      "name": "safeTransferFrom",
      "outputs": [],
      "stateMutability": "nonpayable",
      "type": "function"
    },
    {
      "inputs": [
        {
          "internalType": "address",
          "name": "from",
          "type": "address"
        },
        {
          "internalType": "address",
          "name": "to",
          "type": "address"
        },
        {
          "internalType": "uint256",
          "name": "tokenId",
          "type": "uint256"
        },
        {
          "internalType": "bytes",
          "name": "data",
          "type": "bytes"
        }
      ],
      "name": "safeTransferFrom",
      "outputs": [],
      "stateMutability": "nonpayable",
      "type": "function"
    },
    {
      "inputs": [
        {
          "internalType": "address",
          "name": "operator",
          "type": "address"
        },
        {
          "internalType": "bool",
          "name": "approved",
          "type": "bool"
        }
      ],
      "name": "setApprovalForAll",
      "outputs": [],
      "stateMutability": "nonpayable",
      "type": "function"
    },
    {
      "inputs": [
        {
          "internalType": "uint256",
          "name": "activityId",
          "type": "uint256"
        },
        {
          "internalType": "uint256",
          "name": "winningChoice",
          "type": "uint256"
        }
      ],
      "name": "settleActivity",
      "outputs": [],
      "stateMutability": "nonpayable",
      "type": "function"
    },
    {
      "inputs": [
        {
          "internalType": "bytes4",
          "name": "interfaceId",
          "type": "bytes4"
        }
      ],
      "name": "supportsInterface",
      "outputs": [
        {
          "internalType": "bool",
          "name": "",
          "type": "bool"
        }
      ],
      "stateMutability": "view",
      "type": "function"
    },
    {
      "inputs": [],
      "name": "symbol",
      "outputs": [
        {
          "internalType": "string",
          "name": "",
          "type": "string"
        }
      ],
      "stateMutability": "view",
      "type": "function"
    },
    {
      "inputs": [
        {
          "internalType": "uint256",
          "name": "",
          "type": "uint256"
        }
      ],
      "name": "tickets",
      "outputs": [
        {
          "internalType": "uint256",
          "name": "activityId",
          "type": "uint256"
        },
        {
          "internalType": "uint256",
          "name": "choiceIndex",
          "type": "uint256"
        },
        {
          "internalType": "uint256",
          "name": "amount",
          "type": "uint256"
        }
      ],
      "stateMutability": "view",
      "type": "function"
    },
    {
      "inputs": [
        {
          "internalType": "uint256",
          "name": "tokenId",
          "type": "uint256"
        }
      ],
      "name": "tokenURI",
      "outputs": [
        {
          "internalType": "string",
          "name": "",
          "type": "string"
        }
      ],
      "stateMutability": "view",
      "type": "function"
    },
    {
      "inputs": [
        {
          "internalType": "address",
          "name": "from",
          "type": "address"
        },
        {
          "internalType": "address",
          "name": "to",
          "type": "address"
        },
        {
          "internalType": "uint256",
          "name": "tokenId",
          "type": "uint256"
        }
      ],
      "name": "transferFrom",
      "outputs": [],
      "stateMutability": "nonpayable",
      "type": "function"
    },
    {
      "inputs": [
        {
          "internalType": "address",
          "name": "newOwner",
          "type": "address"
        }
      ],
      "name": "transferOwnership",
      "outputs": [],
      "stateMutability": "nonpayable",
      "type": "function"
    },
    {
      "inputs": [
        {
          "internalType": "uint256",
          "name": "amount",
          "type": "uint256"
        }
      ],
      "name": "withdraw",
      "outputs": [],
      "stateMutability": "nonpayable",
      "type": "function"
    },
    {
      "inputs": [
        {
          "internalType": "uint256",
          "name": "tokenId",
          "type": "uint256"
        },
        {
          "internalType": "uint256",
          "name": "index",
          "type": "uint256"
        }
      ],
      "name": "withdrawOffer",
      "outputs": [],
      "stateMutability": "nonpayable",
      "type": "function"
    },
    {
      "stateMutability": "payable",
      "type": "receive"
    }
  ],
  "bytecode": "0x60806040523480156200001157600080fd5b50336040518060400160405280600d81526020016c11585cde50995d151a58dad95d609a1b8152506040518060400160405280600381526020016211509560ea1b8152508160009081620000669190620001b5565b506001620000758282620001b5565b5050506001600160a01b038116620000a757604051631e4fbdf760e01b81526000600482015260240160405180910390fd5b620000b281620000be565b50600160075562000281565b600680546001600160a01b038381166001600160a01b0319831681179093556040519116919082907f8be0079c531659141344cd1fd0a4f28419497f9722a3daafe3b4186f6b6457e090600090a35050565b634e487b7160e01b600052604160045260246000fd5b600181811c908216806200013b57607f821691505b6020821081036200015c57634e487b7160e01b600052602260045260246000fd5b50919050565b601f821115620001b057600081815260208120601f850160051c810160208610156200018b5750805b601f850160051c820191505b81811015620001ac5782815560010162000197565b5050505b505050565b81516001600160401b03811115620001d157620001d162000110565b620001e981620001e2845462000126565b8462000162565b602080601f831160018114620002215760008415620002085750858301515b600019600386901b1c1916600185901b178555620001ac565b600085815260208120601f198616915b82811015620002525788860151825594840194600190910190840162000231565b5085821015620002715787850151600019600388901b60f8161c191681555b5050505050600190811b01905550565b613c9f80620002916000396000f3fe6080604052600436106102135760003560e01c806370a0823111610118578063ae73ccec116100a0578063cb26de1c1161006f578063cb26de1c14610664578063de74e57b14610677578063dfa49e6f146106e7578063e985e9c514610715578063f2fde38b1461073557600080fd5b8063ae73ccec146105e0578063b88d4fde14610604578063c5a8d4bb14610624578063c87b56dd1461064457600080fd5b806381257bd5116100e757806381257bd51461055a5780638da5cb5b1461057a57806395d89b41146105985780639a2f6474146105ad578063a22cb465146105c057600080fd5b806370a08231146104f05780637130a7a814610510578063715018a6146105305780637789ae721461054557600080fd5b8063305a67a81161019b5780635075acbf1161016a5780635075acbf146103f757806350b447121461042c5780636352211e1461048357806367aa23e2146104a35780636f6c45d2146104d057600080fd5b8063305a67a814610384578063305a905a146103a457806342842e0e146103c457806350248853146103e457600080fd5b80630d1657e8116101e25780630d1657e8146102d0578063203746f21461030357806323b872dd14610323578063298ec208146103435780632e1a7d4d1461036457600080fd5b806301ffc9a71461021f57806306fdde0314610254578063081812fc14610276578063095ea7b3146102ae57600080fd5b3661021a57005b600080fd5b34801561022b57600080fd5b5061023f61023a3660046133dc565b610755565b60405190151581526020015b60405180910390f35b34801561026057600080fd5b506102696107a7565b60405161024b9190613449565b34801561028257600080fd5b5061029661029136600461345c565b610839565b6040516001600160a01b03909116815260200161024b565b3480156102ba57600080fd5b506102ce6102c9366004613491565b610862565b005b3480156102dc57600080fd5b506102f06102eb36600461345c565b610871565b60405161024b97969594939291906134bb565b34801561030f57600080fd5b506102ce61031e366004613508565b610945565b34801561032f57600080fd5b506102ce61033e36600461352a565b610d13565b610356610351366004613508565b610d9e565b60405190815260200161024b565b34801561037057600080fd5b506102ce61037f36600461345c565b610fcb565b34801561039057600080fd5b506102ce61039f36600461345c565b6110ad565b3480156103b057600080fd5b506102ce6103bf366004613508565b6111aa565b3480156103d057600080fd5b506102ce6103df36600461352a565b611353565b6102ce6103f236600461345c565b611373565b34801561040357600080fd5b5061041761041236600461345c565b61157d565b60405161024b999897969594939291906135a1565b34801561043857600080fd5b5061046861044736600461345c565b600b6020526000908152604090208054600182015460029092015490919083565b6040805193845260208401929092529082015260600161024b565b34801561048f57600080fd5b5061029661049e36600461345c565b611873565b3480156104af57600080fd5b506104c36104be366004613669565b61187e565b60405161024b9190613684565b3480156104dc57600080fd5b506104c36104eb366004613669565b6118ea565b3480156104fc57600080fd5b5061035661050b366004613669565b6119f8565b34801561051c57600080fd5b5061023f61052b36600461345c565b611a40565b34801561053c57600080fd5b506102ce611a55565b34801561055157600080fd5b506104c3611a69565b34801561056657600080fd5b506102ce610575366004613508565b611afc565b34801561058657600080fd5b506006546001600160a01b0316610296565b3480156105a457600080fd5b50610269611ec4565b6102ce6105bb36600461345c565b611ed3565b3480156105cc57600080fd5b506102ce6105db366004613697565b611fc6565b3480156105ec57600080fd5b506105f5611fd1565b60405161024b9392919061370c565b34801561061057600080fd5b506102ce61061f366004613765565b6121d3565b34801561063057600080fd5b506102ce61063f366004613508565b6121eb565b34801561065057600080fd5b5061026961065f36600461345c565b6124b5565b610356610672366004613840565b61252a565b34801561068357600080fd5b506106c061069236600461345c565b600c602052600090815260409020805460018201546002909201546001600160a01b03909116919060ff1683565b604080516001600160a01b039094168452602084019290925215159082015260600161024b565b3480156106f357600080fd5b5061070761070236600461345c565b612793565b60405161024b92919061390c565b34801561072157600080fd5b5061023f61073036600461393a565b6128fa565b34801561074157600080fd5b506102ce610750366004613669565b612928565b60006001600160e01b031982166380ac58cd60e01b148061078657506001600160e01b03198216635b5e139f60e01b145b806107a157506301ffc9a760e01b6001600160e01b03198316145b92915050565b6060600080546107b69061396d565b80601f01602080910402602001604051908101604052809291908181526020018280546107e29061396d565b801561082f5780601f106108045761010080835404028352916020019161082f565b820191906000526020600020905b81548152906001019060200180831161081257829003601f168201915b5050505050905090565b600061084482612963565b506000828152600460205260409020546001600160a01b03166107a1565b61086d82823361299c565b5050565b600a602052600090815260409020805460018201546003830180546001600160a01b039093169391926108a39061396d565b80601f01602080910402602001604051908101604052809291908181526020018280546108cf9061396d565b801561091c5780601f106108f15761010080835404028352916020019161091c565b820191906000526020600020905b8154815290600101906020018083116108ff57829003601f168201915b5050506004840154600585015460078601546008909601549495919490935060ff909116915087565b61094d6129a9565b6109556129d6565b61095e82611a40565b6109835760405162461bcd60e51b815260040161097a906139a7565b60405180910390fd5b6000828152600a60205260409020600781015460ff16156109e65760405162461bcd60e51b815260206004820152601860248201527f416374697669747920616c726561647920736574746c65640000000000000000604482015260640161097a565b60028101548210610a325760405162461bcd60e51b8152602060048201526016602482015275496e76616c69642077696e6e696e672063686f69636560501b604482015260640161097a565b60078101805460ff1916600117905560088101829055600080805b6006840154811015610af8576000846006018281548110610a7057610a706139de565b9060005260206000200154905085600b60008381526020019081526020016000206001015403610ae5576000610aa582611873565b90506001600160a01b03811615610ae35784610ac081613a0a565b6000848152600b6020526040902060020154909650610ae0915085613a23565b93505b505b5080610af081613a0a565b915050610a4d565b50811580610b04575080155b15610b5a57600583015460408051868152600060208201529081019190915285907f0d3f998a216a1ff9da7f659fda7dd6bcbe030ccd695180040eb5c9af6d81eee29060600160405180910390a2505050610d09565b60005b6006840154811015610cbb576000846006018281548110610b8057610b806139de565b9060005260206000200154905085600b60008381526020019081526020016000206001015403610ca7576000610bb582611873565b90506001600160a01b038116610bcc575050610ca9565b6000828152600b602052604081206002015460058801549091908690610bf3908490613a36565b610bfd9190613a4d565b90506000836001600160a01b03168260405160006040518083038185875af1925050503d8060008114610c4c576040519150601f19603f3d011682016040523d82523d6000602084013e610c51565b606091505b5050905080610ca25760405162461bcd60e51b815260206004820152601e60248201527f4661696c656420746f2073656e64207072697a6520746f2077696e6e65720000604482015260640161097a565b505050505b505b80610cb381613a0a565b915050610b5d565b50600583015460408051868152602081018590529081019190915285907f0d3f998a216a1ff9da7f659fda7dd6bcbe030ccd695180040eb5c9af6d81eee29060600160405180910390a25050505b61086d6001600755565b6001600160a01b038216610d3d57604051633250574960e11b81526000600482015260240161097a565b6000610d4a838333612a00565b9050836001600160a01b0316816001600160a01b031614610d98576040516364283d7b60e01b81526001600160a01b038086166004830152602482018490528216604482015260640161097a565b50505050565b6000610da983611a40565b610dc55760405162461bcd60e51b815260040161097a906139a7565b6000838152600a6020526040902060018101544210610e1b5760405162461bcd60e51b81526020600482015260126024820152711058dd1a5d9a5d1e481a185cc8195b99195960721b604482015260640161097a565b60028101548310610e655760405162461bcd60e51b8152602060048201526014602482015273092dcecc2d8d2c840c6d0ded2c6ca40d2dcc8caf60631b604482015260640161097a565b60003411610ebf5760405162461bcd60e51b815260206004820152602160248201527f42657420616d6f756e74206d7573742062652067726561746572207468616e206044820152600360fc1b606482015260840161097a565b600160086000828254610ed29190613a23565b9091555050600854610ee43382612a4a565b604080516060810182528681526020808201878152348385018181526000878152600b8552958620945185559151600180860191909155915160029094019390935560068601805491820181558452922090910182905560098301805486908110610f5157610f516139de565b906000526020600020016000828254610f6a9190613a23565b9250508190555034826005016000828254610f859190613a23565b90915550506040513481523390869083907faea9f920c207b21afe471745229d28faca3030e42cb0369cd9f48474df3977629060200160405180910390a4949350505050565b610fd36129a9565b478111156110235760405162461bcd60e51b815260206004820152601860248201527f4578636565647320636f6e74726163742062616c616e63650000000000000000604482015260640161097a565b604051600090339083908381818185875af1925050503d8060008114611065576040519150601f19603f3d011682016040523d82523d6000602084013e61106a565b606091505b505090508061086d5760405162461bcd60e51b815260206004820152600f60248201526e15da5d1a191c985dc819985a5b1959608a1b604482015260640161097a565b6000818152600c60205260409020600281015460ff166110fc5760405162461bcd60e51b815260206004820152600a6024820152694e6f206c697374696e6760b01b604482015260640161097a565b80546001600160a01b0316331461114e5760405162461bcd60e51b815260206004820152601660248201527513db9b1e481cd95b1b195c8818d85b8818d85b98d95b60521b604482015260640161097a565b6000828152600c602052604080822080546001600160a01b031916815560018101839055600201805460ff1916905551339184917f0385add262f1fd6ca0c384da5b57cb2d0a777cfc153b9f50eb36454c780b9ca89190a35050565b336111b483611873565b6001600160a01b0316146112015760405162461bcd60e51b81526020600482015260146024820152732737ba103a3432903a34b1b5b2ba1037bbb732b960611b604482015260640161097a565b600081116112515760405162461bcd60e51b815260206004820152601c60248201527f5072696365206d7573742062652067726561746572207468616e203000000000604482015260640161097a565b61125b8233612a64565b6112ba5760405162461bcd60e51b815260206004820152602a60248201527f506c6561736520617070726f766520636f6e747261637420746f207472616e7360448201526919995c881d1a58dad95d60b21b606482015260840161097a565b6040805160608101825233808252602080830185815260018486018181526000898152600c8552879020955186546001600160a01b0319166001600160a01b03909116178655915190850155516002909301805460ff191693151593909317909255915183815284917f22968ec3be3687b180f3544163a034b88d57b48159d9a7e9a1b610fdb2d05f8091015b60405180910390a35050565b61136e838383604051806020016040528060008152506121d3565b505050565b61137b6129d6565b6000818152600c60205260409020600281015460ff166113ca5760405162461bcd60e51b815260206004820152600a6024820152694e6f206c697374696e6760b01b604482015260640161097a565b8060010154341461141d5760405162461bcd60e51b815260206004820181905260248201527f5061796d656e74206d75737420657175616c206c697374696e67207072696365604482015260640161097a565b80546001808301546000858152600c6020908152604080832080546001600160a01b03191681559485018390556002909401805460ff19169055835190810190935282526001600160a01b0390921691339161147e90849084908890612aaf565b6000836001600160a01b03168260405160006040518083038185875af1925050503d80600081146114cb576040519150601f19603f3d011682016040523d82523d6000602084013e6114d0565b606091505b505090508061151d5760405162461bcd60e51b8152602060048201526019602482015278151c985b9cd9995c881d1bc81cd95b1b195c8819985a5b1959603a1b604482015260640161097a565b826001600160a01b0316846001600160a01b0316877f2bbc64d6afd28a753f6c5e4aaa894f1d684c44a0e080167eae104ac8505cfebd8560405161156391815260200190565b60405180910390a4505050505061157a6001600755565b50565b60008060608060008060008060606115948a611a40565b6115b05760405162461bcd60e51b815260040161097a906139a7565b60008a8152600a60205260409020805460018201546003830180546001600160a01b039093169c50909a50906115e59061396d565b80601f01602080910402602001604051908101604052809291908181526020018280546116119061396d565b801561165e5780601f106116335761010080835404028352916020019161165e565b820191906000526020600020905b81548152906001019060200180831161164157829003601f168201915b50505060048401546005850154600786015460088701546002880154969e50929b5090995060ff1697509550829150506001600160401b038111156116a5576116a561374f565b6040519080825280602002602001820160405280156116d857816020015b60608152602001906001900390816116c35790505b50975060005b818110156117be578260020181815481106116fb576116fb6139de565b9060005260206000200180546117109061396d565b80601f016020809104026020016040519081016040528092919081815260200182805461173c9061396d565b80156117895780601f1061175e57610100808354040283529160200191611789565b820191906000526020600020905b81548152906001019060200180831161176c57829003601f168201915b50505050508982815181106117a0576117a06139de565b602002602001018190525080806117b690613a0a565b9150506116de565b506009820154806001600160401b038111156117dc576117dc61374f565b604051908082528060200260200182016040528015611805578160200160208202803683370190505b50935060005b8181101561186257836009018181548110611828576118286139de565b9060005260206000200154858281518110611845576118456139de565b60209081029190910101528061185a81613a0a565b91505061180b565b505050509193959799909294969850565b60006107a182612963565b6001600160a01b0381166000908152600d60209081526040918290208054835181840281018401909452808452606093928301828280156118de57602002820191906000526020600020905b8154815260200190600101908083116118ca575b50505050509050919050565b6060600060015b600954811161193b576000818152600a60205260409020546001600160a01b03808616911603611929578161192581613a0a565b9250505b8061193381613a0a565b9150506118f1565b506000816001600160401b038111156119565761195661374f565b60405190808252806020026020018201604052801561197f578160200160208202803683370190505b509050600060015b60095481116119ee576000818152600a60205260409020546001600160a01b038088169116036119dc578083836119bd81613a0a565b9450815181106119cf576119cf6139de565b6020026020010181815250505b806119e681613a0a565b915050611987565b5090949350505050565b60006001600160a01b038216611a24576040516322718ad960e21b81526000600482015260240161097a565b506001600160a01b031660009081526003602052604090205490565b600080821180156107a1575050600954101590565b611a5d6129a9565b611a676000612aba565b565b60606009546001600160401b03811115611a8557611a8561374f565b604051908082528060200260200182016040528015611aae578160200160208202803683370190505b50905060005b600954811015611af857611ac9816001613a23565b828281518110611adb57611adb6139de565b602090810291909101015280611af081613a0a565b915050611ab4565b5090565b611b046129d6565b33611b0e83611873565b6001600160a01b031614611b645760405162461bcd60e51b815260206004820152601b60248201527f4f6e6c7920746f6b656e206f776e65722063616e206163636570740000000000604482015260640161097a565b6000828152600f6020526040902080548210611bb25760405162461bcd60e51b815260206004820152600d60248201526c092dcecc2d8d2c840d2dcc8caf609b1b604482015260640161097a565b6000818381548110611bc657611bc66139de565b600091825260209182902060408051606081018252600390930290910180546001600160a01b0316835260018101549383019390935260029092015460ff1615159181018290529150611c4e5760405162461bcd60e51b815260206004820152601060248201526f4f66666572206e6f742065786973747360801b604482015260640161097a565b80516020820151339190611c628784612a64565b611cbe5760405162461bcd60e51b815260206004820152602760248201527f436f6e7472616374206e6f7420617070726f76656420746f207472616e73666560448201526639103a37b5b2b760c91b606482015260840161097a565b8454600090611ccf90600190613a6f565b9050808714611d6157858181548110611cea57611cea6139de565b9060005260206000209060030201868881548110611d0a57611d0a6139de565b60009182526020909120825460039092020180546001600160a01b0319166001600160a01b03909216919091178155600180830154908201556002918201549101805460ff909216151560ff199092169190911790555b85805480611d7157611d71613a82565b6000828152602080822060036000199094019384020180546001600160a01b031916815560018101839055600201805460ff1916905591909255604080519182019052908152611dc690859085908b90612aaf565b6000846001600160a01b03168360405160006040518083038185875af1925050503d8060008114611e13576040519150601f19603f3d011682016040523d82523d6000602084013e611e18565b606091505b5050905080611e655760405162461bcd60e51b8152602060048201526019602482015278151c985b9cd9995c881d1bc81cd95b1b195c8819985a5b1959603a1b604482015260640161097a565b836001600160a01b0316856001600160a01b03168a7fc67f49229cab3f614ad390c12432e0e671552dcfd15e24ddc005cf5a01a0213586604051611eab91815260200190565b60405180910390a45050505050505061086d6001600755565b6060600180546107b69061396d565b60003411611f175760405162461bcd60e51b815260206004820152601160248201527004f66666572206d757374206265203e203607c1b604482015260640161097a565b604080516060810182523380825234602080840182815260018587018181526000898152600f85528881208054808501825590825290859020885160039092020180546001600160a01b0319166001600160a01b03909216919091178155925191830191909155516002909101805460ff191691151591909117905593519081529192909184917fd294afec9d7ab02d1bc3b945a2e833190e9ac8c221c99a27a16afab5cf59e9289101611347565b61086d338383612b0c565b60608080600060015b600854811161201d576000818152600c602052604090206002015460ff161561200b578161200781613a0a565b9250505b8061201581613a0a565b915050611fda565b50806001600160401b038111156120365761203661374f565b60405190808252806020026020018201604052801561205f578160200160208202803683370190505b509350806001600160401b0381111561207a5761207a61374f565b6040519080825280602002602001820160405280156120a3578160200160208202803683370190505b509250806001600160401b038111156120be576120be61374f565b6040519080825280602002602001820160405280156120e7578160200160208202803683370190505b509150600060015b60085481116121cb576000818152600c602052604090206002015460ff16156121b95780868381518110612125576121256139de565b6020908102919091018101919091526000828152600c909152604090205485516001600160a01b0390911690869084908110612163576121636139de565b6001600160a01b039092166020928302919091018201526000828152600c909152604090206001015484518590849081106121a0576121a06139de565b6020908102919091010152816121b581613a0a565b9250505b806121c381613a0a565b9150506120ef565b505050909192565b6121de848484610d13565b610d983385858585612bab565b6121f36129d6565b6000828152600f60205260409020805482106122415760405162461bcd60e51b815260206004820152600d60248201526c092dcecc2d8d2c840d2dcc8caf609b1b604482015260640161097a565b6000818381548110612255576122556139de565b60009182526020909120600390910201600281015490915060ff166122af5760405162461bcd60e51b815260206004820152601060248201526f4f66666572206e6f742065786973747360801b604482015260640161097a565b80546001600160a01b031633146122f95760405162461bcd60e51b815260206004820152600e60248201526d2737ba103cb7bab91037b33332b960911b604482015260640161097a565b600180820154835490916000916123109190613a6f565b90508085146123a25783818154811061232b5761232b6139de565b906000526020600020906003020184868154811061234b5761234b6139de565b60009182526020909120825460039092020180546001600160a01b0319166001600160a01b03909216919091178155600180830154908201556002918201549101805460ff909216151560ff199092169190911790555b838054806123b2576123b2613a82565b6000828152602081206003600019939093019283020180546001600160a01b031916815560018101829055600201805460ff191690559155604051339084908381818185875af1925050503d8060008114612429576040519150601f19603f3d011682016040523d82523d6000602084013e61242e565b606091505b505090508061246f5760405162461bcd60e51b815260206004820152600d60248201526c1499599d5b990819985a5b1959609a1b604482015260640161097a565b604051838152339088907f60c7613a8b8ce872a461e88b0f376098063e67e4df6d0aa6a55790fe81acdb589060200160405180910390a3505050505061086d6001600755565b60606124c082612963565b5060006124d860408051602081019091526000815290565b905060008151116124f85760405180602001604052806000815250612523565b8061250284612cd6565b604051602001612513929190613a98565b6040516020818303038152906040525b9392505050565b60006125346129a9565b846125745760405162461bcd60e51b815260206004820152601060248201526f10dbdb9d195b9d081c995c5d5a5c995960821b604482015260640161097a565b60028310156125c55760405162461bcd60e51b815260206004820152601d60248201527f4174206c656173742074776f206f7074696f6e73207265717569726564000000604482015260640161097a565b4282116126145760405162461bcd60e51b815260206004820152601e60248201527f446561646c696e65206d75737420626520696e20746865206675747572650000604482015260640161097a565b600034116126645760405162461bcd60e51b815260206004820152601d60248201527f496e697469616c20706f6f6c206d7573742062652070726f7669646564000000604482015260640161097a565b6001600960008282546126779190613a23565b90915550506009546000818152600a6020526040902080546001600160a01b03191633178155600381016126ac888a83613b0d565b506001810184905560005b8581101561273157816002018787838181106126d5576126d56139de565b90506020028101906126e79190613bcc565b825460018101845560009384526020909320909201916127079183613b0d565b5060098201805460018101825560009182526020822001558061272981613a0a565b9150506126b7565b5034600482018190556005820181905560078201805460ff19169055604080519182526020820186905283917fb224f3d19b56c8c5ff6fac8b40ada082b592179858271d14114a10e1864415a6910160405180910390a2509695505050505050565b6000818152600f60205260409020805460609182916001600160401b038111156127bf576127bf61374f565b6040519080825280602002602001820160405280156127e8578160200160208202803683370190505b5081549093506001600160401b038111156128055761280561374f565b60405190808252806020026020018201604052801561282e578160200160208202803683370190505b50915060005b81548110156128f35781818154811061284f5761284f6139de565b600091825260209091206003909102015484516001600160a01b0390911690859083908110612880576128806139de565b60200260200101906001600160a01b031690816001600160a01b0316815250508181815481106128b2576128b26139de565b9060005260206000209060030201600101548382815181106128d6576128d66139de565b6020908102919091010152806128eb81613a0a565b915050612834565b5050915091565b6001600160a01b03918216600090815260056020908152604080832093909416825291909152205460ff1690565b6129306129a9565b6001600160a01b03811661295a57604051631e4fbdf760e01b81526000600482015260240161097a565b61157a81612aba565b6000818152600260205260408120546001600160a01b0316806107a157604051637e27328960e01b81526004810184905260240161097a565b61136e8383836001612d68565b6006546001600160a01b03163314611a675760405163118cdaa760e01b815233600482015260240161097a565b6002600754036129f957604051633ee5aeb560e01b815260040160405180910390fd5b6002600755565b600080612a0e858585612e6e565b90506001600160a01b03811615612a2957612a298185612f67565b6001600160a01b03851615612a4257612a4285856130a8565b949350505050565b61086d8282604051806020016040528060008152506130fa565b600080612a7084610839565b9050306001600160a01b03821603612a8c5760019150506107a1565b612a9683306128fa565b15612aa55760019150506107a1565b5060009392505050565b6121de848484613112565b600680546001600160a01b038381166001600160a01b0319831681179093556040519116919082907f8be0079c531659141344cd1fd0a4f28419497f9722a3daafe3b4186f6b6457e090600090a35050565b6001600160a01b038216612b3e57604051630b61174360e31b81526001600160a01b038316600482015260240161097a565b6001600160a01b03838116600081815260056020908152604080832094871680845294825291829020805460ff191686151590811790915591519182527f17307eab39ab6107e8899845ad3d59bd9653f200f220920489ca2b5937696c31910160405180910390a3505050565b6001600160a01b0383163b15612ccf57604051630a85bd0160e11b81526001600160a01b0384169063150b7a0290612bed908890889087908790600401613c19565b6020604051808303816000875af1925050508015612c28575060408051601f3d908101601f19168201909252612c2591810190613c4c565b60015b612c91573d808015612c56576040519150601f19603f3d011682016040523d82523d6000602084013e612c5b565b606091505b508051600003612c8957604051633250574960e11b81526001600160a01b038516600482015260240161097a565b805160208201fd5b6001600160e01b03198116630a85bd0160e11b14612ccd57604051633250574960e11b81526001600160a01b038516600482015260240161097a565b505b5050505050565b60606000612ce3836131c2565b60010190506000816001600160401b03811115612d0257612d0261374f565b6040519080825280601f01601f191660200182016040528015612d2c576020820181803683370190505b5090508181016020015b600019016f181899199a1a9b1b9c1cb0b131b232b360811b600a86061a8153600a8504945084612d3657509392505050565b8080612d7c57506001600160a01b03821615155b15612e3e576000612d8c84612963565b90506001600160a01b03831615801590612db85750826001600160a01b0316816001600160a01b031614155b8015612dcb5750612dc981846128fa565b155b15612df45760405163a9fbf51f60e01b81526001600160a01b038416600482015260240161097a565b8115612e3c5783856001600160a01b0316826001600160a01b03167f8c5be1e5ebec7d5bd14f71427d1e84f3dd0314c0f7b2291e5b200ac8c7c3b92560405160405180910390a45b505b5050600090815260046020526040902080546001600160a01b0319166001600160a01b0392909216919091179055565b6000828152600260205260408120546001600160a01b0390811690831615612e9b57612e9b81848661329a565b6001600160a01b03811615612ed957612eb8600085600080612d68565b6001600160a01b038116600090815260036020526040902080546000190190555b6001600160a01b03851615612f08576001600160a01b0385166000908152600360205260409020805460010190555b60008481526002602052604080822080546001600160a01b0319166001600160a01b0389811691821790925591518793918516917fddf252ad1be2c89b69c2b068fc378daa952ba7f163c4a11628f55a4df523b3ef91a4949350505050565b6000818152600e602052604081205490819003612f8357505050565b6001600160a01b0383166000908152600d6020526040812054612fa890600190613a6f565b6001600160a01b0385166000908152600d602052604081208054929350909183908110612fd757612fd76139de565b9060005260206000200154905081600184612ff29190613a6f565b1461304d576001600160a01b0385166000908152600d60205260409020819061301c600186613a6f565b8154811061302c5761302c6139de565b6000918252602080832090910192909255828152600e909152604090208390555b6001600160a01b0385166000908152600d6020526040902080548061307457613074613a82565b60019003818190600052602060002001600090559055600e6000858152602001908152602001600020600090555050505050565b6001600160a01b0382166000908152600d602090815260408220805460018082018355918452919092208101839055906130e3908290613a23565b6000928352600e6020526040909220919091555050565b61310483836132fe565b61136e336000858585612bab565b6001600160a01b03821661313c57604051633250574960e11b81526000600482015260240161097a565b600061314a83836000612a00565b90506001600160a01b03811661317657604051637e27328960e01b81526004810183905260240161097a565b836001600160a01b0316816001600160a01b031614610d98576040516364283d7b60e01b81526001600160a01b038086166004830152602482018490528216604482015260640161097a565b60008072184f03e93ff9f4daa797ed6e38ed64bf6a1f0160401b83106132015772184f03e93ff9f4daa797ed6e38ed64bf6a1f0160401b830492506040015b6d04ee2d6d415b85acef8100000000831061322d576d04ee2d6d415b85acef8100000000830492506020015b662386f26fc10000831061324b57662386f26fc10000830492506010015b6305f5e1008310613263576305f5e100830492506008015b612710831061327757612710830492506004015b60648310613289576064830492506002015b600a83106107a15760010192915050565b6132a5838383613363565b61136e576001600160a01b0383166132d357604051637e27328960e01b81526004810182905260240161097a565b60405163177e802f60e01b81526001600160a01b03831660048201526024810182905260440161097a565b6001600160a01b03821661332857604051633250574960e11b81526000600482015260240161097a565b600061333683836000612a00565b90506001600160a01b0381161561136e576040516339e3563760e11b81526000600482015260240161097a565b60006001600160a01b03831615801590612a425750826001600160a01b0316846001600160a01b0316148061339d575061339d84846128fa565b80612a425750506000908152600460205260409020546001600160a01b03908116911614919050565b6001600160e01b03198116811461157a57600080fd5b6000602082840312156133ee57600080fd5b8135612523816133c6565b60005b838110156134145781810151838201526020016133fc565b50506000910152565b600081518084526134358160208601602086016133f9565b601f01601f19169290920160200192915050565b602081526000612523602083018461341d565b60006020828403121561346e57600080fd5b5035919050565b80356001600160a01b038116811461348c57600080fd5b919050565b600080604083850312156134a457600080fd5b6134ad83613475565b946020939093013593505050565b60018060a01b038816815286602082015260e0604082015260006134e260e083018861341d565b606083019690965250608081019390935290151560a083015260c0909101529392505050565b6000806040838503121561351b57600080fd5b50508035926020909101359150565b60008060006060848603121561353f57600080fd5b61354884613475565b925061355660208501613475565b9150604084013590509250925092565b600081518084526020808501945080840160005b838110156135965781518752958201959082019060010161357a565b509495945050505050565b6001600160a01b038a16815260208082018a9052610120604083018190526000916135ce8483018c61341d565b91508382036060850152818a518084528284019150828160051b850101838d0160005b8381101561361f57601f1987840301855261360d83835161341d565b948601949250908501906001016135f1565b50508b60808801528a60a088015261363b60c088018b15159052565b8860e08801528681036101008801526136548189613566565b955050505050509a9950505050505050505050565b60006020828403121561367b57600080fd5b61252382613475565b6020815260006125236020830184613566565b600080604083850312156136aa57600080fd5b6136b383613475565b9150602083013580151581146136c857600080fd5b809150509250929050565b600081518084526020808501945080840160005b838110156135965781516001600160a01b0316875295820195908201906001016136e7565b60608152600061371f6060830186613566565b828103602084015261373181866136d3565b905082810360408401526137458185613566565b9695505050505050565b634e487b7160e01b600052604160045260246000fd5b6000806000806080858703121561377b57600080fd5b61378485613475565b935061379260208601613475565b92506040850135915060608501356001600160401b03808211156137b557600080fd5b818701915087601f8301126137c957600080fd5b8135818111156137db576137db61374f565b604051601f8201601f19908116603f011681019083821181831017156138035761380361374f565b816040528281528a602084870101111561381c57600080fd5b82602086016020830137600060208483010152809550505050505092959194509250565b60008060008060006060868803121561385857600080fd5b85356001600160401b038082111561386f57600080fd5b818801915088601f83011261388357600080fd5b81358181111561389257600080fd5b8960208285010111156138a457600080fd5b6020928301975095509087013590808211156138bf57600080fd5b818801915088601f8301126138d357600080fd5b8135818111156138e257600080fd5b8960208260051b85010111156138f757600080fd5b96999598505060200195604001359392505050565b60408152600061391f60408301856136d3565b82810360208401526139318185613566565b95945050505050565b6000806040838503121561394d57600080fd5b61395683613475565b915061396460208401613475565b90509250929050565b600181811c9082168061398157607f821691505b6020821081036139a157634e487b7160e01b600052602260045260246000fd5b50919050565b60208082526017908201527f416374697669747920646f6573206e6f74206578697374000000000000000000604082015260600190565b634e487b7160e01b600052603260045260246000fd5b634e487b7160e01b600052601160045260246000fd5b600060018201613a1c57613a1c6139f4565b5060010190565b808201808211156107a1576107a16139f4565b80820281158282048414176107a1576107a16139f4565b600082613a6a57634e487b7160e01b600052601260045260246000fd5b500490565b818103818111156107a1576107a16139f4565b634e487b7160e01b600052603160045260246000fd5b60008351613aaa8184602088016133f9565b835190830190613abe8183602088016133f9565b01949350505050565b601f82111561136e57600081815260208120601f850160051c81016020861015613aee5750805b601f850160051c820191505b81811015612ccd57828155600101613afa565b6001600160401b03831115613b2457613b2461374f565b613b3883613b32835461396d565b83613ac7565b6000601f841160018114613b6c5760008515613b545750838201355b600019600387901b1c1916600186901b178355612ccf565b600083815260209020601f19861690835b82811015613b9d5786850135825560209485019460019092019101613b7d565b5086821015613bba5760001960f88860031b161c19848701351681555b505060018560011b0183555050505050565b6000808335601e19843603018112613be357600080fd5b8301803591506001600160401b03821115613bfd57600080fd5b602001915036819003821315613c1257600080fd5b9250929050565b6001600160a01b03858116825284166020820152604081018390526080606082018190526000906137459083018461341d565b600060208284031215613c5e57600080fd5b8151612523816133c656fea26469706673582212204a1728ecdf6145723ab88dbe8d61f12f4d4e4a1ca38a434f427ba16bf91bbd9564736f6c63430008140033",
  "linkReferences": {},
  "deployedLinkReferences": {}
}