{
  "_format": "hh-sol-artifact-1",
  "contractName": "EasyBet",
  "sourceName": "contracts/EasyBet.sol",
  "abi": [
    {
      "inputs": [],
      "stateMutability": "nonpayable",
      "type": "constructor"
    },
    {
      "inputs": [
        {
          "internalType": "address",
          "name": "sender",
          "type": "address"
        },
        {
          "internalType": "uint256",
          "name": "tokenId",
          "type": "uint256"
        },
        {
          "internalType": "address",
          "name": "owner",
          "type": "address"
        }
      ],
      "name": "ERC721IncorrectOwner",
      "type": "error"
    },
    {
      "inputs": [
        {
          "internalType": "address",
          "name": "operator",
          "type": "address"
        },
        {
          "internalType": "uint256",
          "name": "tokenId",
          "type": "uint256"
        }
      ],
      "name": "ERC721InsufficientApproval",
      "type": "error"
    },
    {
      "inputs": [
        {
          "internalType": "address",
          "name": "approver",
          "type": "address"
        }
      ],
      "name": "ERC721InvalidApprover",
      "type": "error"
    },
    {
      "inputs": [
        {
          "internalType": "address",
          "name": "operator",
          "type": "address"
        }
      ],
      "name": "ERC721InvalidOperator",
      "type": "error"
    },
    {
      "inputs": [
        {
          "internalType": "address",
          "name": "owner",
          "type": "address"
        }
      ],
      "name": "ERC721InvalidOwner",
      "type": "error"
    },
    {
      "inputs": [
        {
          "internalType": "address",
          "name": "receiver",
          "type": "address"
        }
      ],
      "name": "ERC721InvalidReceiver",
      "type": "error"
    },
    {
      "inputs": [
        {
          "internalType": "address",
          "name": "sender",
          "type": "address"
        }
      ],
      "name": "ERC721InvalidSender",
      "type": "error"
    },
    {
      "inputs": [
        {
          "internalType": "uint256",
          "name": "tokenId",
          "type": "uint256"
        }
      ],
      "name": "ERC721NonexistentToken",
      "type": "error"
    },
    {
      "inputs": [
        {
          "internalType": "address",
          "name": "owner",
          "type": "address"
        }
      ],
      "name": "OwnableInvalidOwner",
      "type": "error"
    },
    {
      "inputs": [
        {
          "internalType": "address",
          "name": "account",
          "type": "address"
        }
      ],
      "name": "OwnableUnauthorizedAccount",
      "type": "error"
    },
    {
      "inputs": [],
      "name": "ReentrancyGuardReentrantCall",
      "type": "error"
    },
    {
      "anonymous": false,
      "inputs": [
        {
          "indexed": true,
          "internalType": "uint256",
          "name": "activityId",
          "type": "uint256"
        },
        {
          "indexed": false,
          "internalType": "uint256",
          "name": "initialPool",
          "type": "uint256"
        },
        {
          "indexed": false,
          "internalType": "uint256",
          "name": "deadline",
          "type": "uint256"
        }
      ],
      "name": "ActivityCreated",
      "type": "event"
    },
    {
      "anonymous": false,
      "inputs": [
        {
          "indexed": true,
          "internalType": "uint256",
          "name": "activityId",
          "type": "uint256"
        },
        {
          "indexed": false,
          "internalType": "uint256",
          "name": "winningChoice",
          "type": "uint256"
        },
        {
          "indexed": false,
          "internalType": "uint256",
          "name": "winnersCount",
          "type": "uint256"
        },
        {
          "indexed": false,
          "internalType": "uint256",
          "name": "totalPool",
          "type": "uint256"
        }
      ],
      "name": "ActivitySettled",
      "type": "event"
    },
    {
      "anonymous": false,
      "inputs": [
        {
          "indexed": true,
          "internalType": "address",
          "name": "owner",
          "type": "address"
        },
        {
          "indexed": true,
          "internalType": "address",
          "name": "approved",
          "type": "address"
        },
        {
          "indexed": true,
          "internalType": "uint256",
          "name": "tokenId",
          "type": "uint256"
        }
      ],
      "name": "Approval",
      "type": "event"
    },
    {
      "anonymous": false,
      "inputs": [
        {
          "indexed": true,
          "internalType": "address",
          "name": "owner",
          "type": "address"
        },
        {
          "indexed": true,
          "internalType": "address",
          "name": "operator",
          "type": "address"
        },
        {
          "indexed": false,
          "internalType": "bool",
          "name": "approved",
          "type": "bool"
        }
      ],
      "name": "ApprovalForAll",
      "type": "event"
    },
    {
      "anonymous": false,
      "inputs": [
        {
          "indexed": true,
          "internalType": "uint256",
          "name": "tokenId",
          "type": "uint256"
        },
        {
          "indexed": true,
          "internalType": "uint256",
          "name": "activityId",
          "type": "uint256"
        },
        {
          "indexed": false,
          "internalType": "uint256",
          "name": "price",
          "type": "uint256"
        },
        {
          "indexed": true,
          "internalType": "address",
          "name": "owner",
          "type": "address"
        }
      ],
      "name": "BetPlaced",
      "type": "event"
    },
    {
      "anonymous": false,
      "inputs": [
        {
          "indexed": true,
          "internalType": "address",
          "name": "previousOwner",
          "type": "address"
        },
        {
          "indexed": true,
          "internalType": "address",
          "name": "newOwner",
          "type": "address"
        }
      ],
      "name": "OwnershipTransferred",
      "type": "event"
    },
    {
      "anonymous": false,
      "inputs": [
        {
          "indexed": true,
          "internalType": "uint256",
          "name": "tokenId",
          "type": "uint256"
        },
        {
          "indexed": true,
          "internalType": "address",
          "name": "seller",
          "type": "address"
        },
        {
          "indexed": false,
          "internalType": "uint256",
          "name": "price",
          "type": "uint256"
        }
      ],
      "name": "TicketListed",
      "type": "event"
    },
    {
      "anonymous": false,
      "inputs": [
        {
          "indexed": true,
          "internalType": "uint256",
          "name": "tokenId",
          "type": "uint256"
        },
        {
          "indexed": true,
          "internalType": "address",
          "name": "seller",
          "type": "address"
        }
      ],
      "name": "TicketListingCanceled",
      "type": "event"
    },
    {
      "anonymous": false,
      "inputs": [
        {
          "indexed": true,
          "internalType": "uint256",
          "name": "tokenId",
          "type": "uint256"
        },
        {
          "indexed": true,
          "internalType": "address",
          "name": "seller",
          "type": "address"
        },
        {
          "indexed": true,
          "internalType": "address",
          "name": "buyer",
          "type": "address"
        },
        {
          "indexed": false,
          "internalType": "uint256",
          "name": "price",
          "type": "uint256"
        }
      ],
      "name": "TicketSold",
      "type": "event"
    },
    {
      "anonymous": false,
      "inputs": [
        {
          "indexed": true,
          "internalType": "address",
          "name": "from",
          "type": "address"
        },
        {
          "indexed": true,
          "internalType": "address",
          "name": "to",
          "type": "address"
        },
        {
          "indexed": true,
          "internalType": "uint256",
          "name": "tokenId",
          "type": "uint256"
        }
      ],
      "name": "Transfer",
      "type": "event"
    },
    {
      "inputs": [
        {
          "internalType": "uint256",
          "name": "",
          "type": "uint256"
        }
      ],
      "name": "activities",
      "outputs": [
        {
          "internalType": "address",
          "name": "creator",
          "type": "address"
        },
        {
          "internalType": "uint256",
          "name": "deadline",
          "type": "uint256"
        },
        {
          "internalType": "uint256",
          "name": "initialPool",
          "type": "uint256"
        },
        {
          "internalType": "uint256",
          "name": "totalPool",
          "type": "uint256"
        },
        {
          "internalType": "bool",
          "name": "settled",
          "type": "bool"
        },
        {
          "internalType": "uint256",
          "name": "winningChoice",
          "type": "uint256"
        }
      ],
      "stateMutability": "view",
      "type": "function"
    },
    {
      "inputs": [
        {
          "internalType": "uint256",
          "name": "activityId",
          "type": "uint256"
        }
      ],
      "name": "activityExists",
      "outputs": [
        {
          "internalType": "bool",
          "name": "",
          "type": "bool"
        }
      ],
      "stateMutability": "view",
      "type": "function"
    },
    {
      "inputs": [
        {
          "internalType": "address",
          "name": "to",
          "type": "address"
        },
        {
          "internalType": "uint256",
          "name": "tokenId",
          "type": "uint256"
        }
      ],
      "name": "approve",
      "outputs": [],
      "stateMutability": "nonpayable",
      "type": "function"
    },
    {
      "inputs": [
        {
          "internalType": "address",
          "name": "owner",
          "type": "address"
        }
      ],
      "name": "balanceOf",
      "outputs": [
        {
          "internalType": "uint256",
          "name": "",
          "type": "uint256"
        }
      ],
      "stateMutability": "view",
      "type": "function"
    },
    {
      "inputs": [
        {
          "internalType": "uint256",
          "name": "tokenId",
          "type": "uint256"
        }
      ],
      "name": "buyListedTicket",
      "outputs": [],
      "stateMutability": "payable",
      "type": "function"
    },
    {
      "inputs": [
        {
          "internalType": "uint256",
          "name": "activityId",
          "type": "uint256"
        },
        {
          "internalType": "uint256",
          "name": "choiceIndex",
          "type": "uint256"
        }
      ],
      "name": "buyTicket",
      "outputs": [
        {
          "internalType": "uint256",
          "name": "",
          "type": "uint256"
        }
      ],
      "stateMutability": "payable",
      "type": "function"
    },
    {
      "inputs": [
        {
          "internalType": "uint256",
          "name": "tokenId",
          "type": "uint256"
        }
      ],
      "name": "cancelListing",
      "outputs": [],
      "stateMutability": "nonpayable",
      "type": "function"
    },
    {
      "inputs": [
        {
          "internalType": "string[]",
          "name": "choices",
          "type": "string[]"
        },
        {
          "internalType": "uint256",
          "name": "deadline",
          "type": "uint256"
        }
      ],
      "name": "createActivity",
      "outputs": [
        {
          "internalType": "uint256",
          "name": "",
          "type": "uint256"
        }
      ],
      "stateMutability": "payable",
      "type": "function"
    },
    {
      "inputs": [
        {
          "internalType": "uint256",
          "name": "activityId",
          "type": "uint256"
        }
      ],
      "name": "fundActivity",
      "outputs": [],
      "stateMutability": "payable",
      "type": "function"
    },
    {
      "inputs": [
        {
          "internalType": "uint256",
          "name": "activityId",
          "type": "uint256"
        }
      ],
      "name": "getActivityTicketIds",
      "outputs": [
        {
          "internalType": "uint256[]",
          "name": "",
          "type": "uint256[]"
        }
      ],
      "stateMutability": "view",
      "type": "function"
    },
    {
      "inputs": [
        {
          "internalType": "uint256",
          "name": "tokenId",
          "type": "uint256"
        }
      ],
      "name": "getApproved",
      "outputs": [
        {
          "internalType": "address",
          "name": "",
          "type": "address"
        }
      ],
      "stateMutability": "view",
      "type": "function"
    },
    {
      "inputs": [
        {
          "internalType": "uint256",
          "name": "activityId",
          "type": "uint256"
        }
      ],
      "name": "getChoicesCount",
      "outputs": [
        {
          "internalType": "uint256",
          "name": "",
          "type": "uint256"
        }
      ],
      "stateMutability": "view",
      "type": "function"
    },
    {
      "inputs": [],
      "name": "getLatestActivityId",
      "outputs": [
        {
          "internalType": "uint256",
          "name": "",
          "type": "uint256"
        }
      ],
      "stateMutability": "view",
      "type": "function"
    },
    {
      "inputs": [
        {
          "internalType": "uint256",
          "name": "tokenId",
          "type": "uint256"
        }
      ],
      "name": "getListing",
      "outputs": [
        {
          "internalType": "address",
          "name": "seller",
          "type": "address"
        },
        {
          "internalType": "uint256",
          "name": "price",
          "type": "uint256"
        },
        {
          "internalType": "bool",
          "name": "exists",
          "type": "bool"
        }
      ],
      "stateMutability": "view",
      "type": "function"
    },
    {
      "inputs": [
        {
          "internalType": "uint256",
          "name": "tokenId",
          "type": "uint256"
        }
      ],
      "name": "getTicketInfo",
      "outputs": [
        {
          "internalType": "uint256",
          "name": "activityId",
          "type": "uint256"
        },
        {
          "internalType": "uint256",
          "name": "choiceIndex",
          "type": "uint256"
        },
        {
          "internalType": "uint256",
          "name": "amount",
          "type": "uint256"
        }
      ],
      "stateMutability": "view",
      "type": "function"
    },
    {
      "inputs": [
        {
          "internalType": "address",
          "name": "owner",
          "type": "address"
        },
        {
          "internalType": "address",
          "name": "operator",
          "type": "address"
        }
      ],
      "name": "isApprovedForAll",
      "outputs": [
        {
          "internalType": "bool",
          "name": "",
          "type": "bool"
        }
      ],
      "stateMutability": "view",
      "type": "function"
    },
    {
      "inputs": [
        {
          "internalType": "uint256",
          "name": "tokenId",
          "type": "uint256"
        },
        {
          "internalType": "uint256",
          "name": "price",
          "type": "uint256"
        }
      ],
      "name": "listTicket",
      "outputs": [],
      "stateMutability": "nonpayable",
      "type": "function"
    },
    {
      "inputs": [
        {
          "internalType": "uint256",
          "name": "",
          "type": "uint256"
        }
      ],
      "name": "listings",
      "outputs": [
        {
          "internalType": "address",
          "name": "seller",
          "type": "address"
        },
        {
          "internalType": "uint256",
          "name": "price",
          "type": "uint256"
        },
        {
          "internalType": "bool",
          "name": "exists",
          "type": "bool"
        }
      ],
      "stateMutability": "view",
      "type": "function"
    },
    {
      "inputs": [],
      "name": "name",
      "outputs": [
        {
          "internalType": "string",
          "name": "",
          "type": "string"
        }
      ],
      "stateMutability": "view",
      "type": "function"
    },
    {
      "inputs": [],
      "name": "owner",
      "outputs": [
        {
          "internalType": "address",
          "name": "",
          "type": "address"
        }
      ],
      "stateMutability": "view",
      "type": "function"
    },
    {
      "inputs": [
        {
          "internalType": "uint256",
          "name": "tokenId",
          "type": "uint256"
        }
      ],
      "name": "ownerOf",
      "outputs": [
        {
          "internalType": "address",
          "name": "",
          "type": "address"
        }
      ],
      "stateMutability": "view",
      "type": "function"
    },
    {
      "inputs": [],
      "name": "renounceOwnership",
      "outputs": [],
      "stateMutability": "nonpayable",
      "type": "function"
    },
    {
      "inputs": [
        {
          "internalType": "address",
          "name": "from",
          "type": "address"
        },
        {
          "internalType": "address",
          "name": "to",
          "type": "address"
        },
        {
          "internalType": "uint256",
          "name": "tokenId",
          "type": "uint256"
        }
      ],
      "name": "safeTransferFrom",
      "outputs": [],
      "stateMutability": "nonpayable",
      "type": "function"
    },
    {
      "inputs": [
        {
          "internalType": "address",
          "name": "from",
          "type": "address"
        },
        {
          "internalType": "address",
          "name": "to",
          "type": "address"
        },
        {
          "internalType": "uint256",
          "name": "tokenId",
          "type": "uint256"
        },
        {
          "internalType": "bytes",
          "name": "data",
          "type": "bytes"
        }
      ],
      "name": "safeTransferFrom",
      "outputs": [],
      "stateMutability": "nonpayable",
      "type": "function"
    },
    {
      "inputs": [
        {
          "internalType": "address",
          "name": "operator",
          "type": "address"
        },
        {
          "internalType": "bool",
          "name": "approved",
          "type": "bool"
        }
      ],
      "name": "setApprovalForAll",
      "outputs": [],
      "stateMutability": "nonpayable",
      "type": "function"
    },
    {
      "inputs": [
        {
          "internalType": "uint256",
          "name": "activityId",
          "type": "uint256"
        },
        {
          "internalType": "uint256",
          "name": "winningChoice",
          "type": "uint256"
        }
      ],
      "name": "settleActivity",
      "outputs": [],
      "stateMutability": "nonpayable",
      "type": "function"
    },
    {
      "inputs": [
        {
          "internalType": "bytes4",
          "name": "interfaceId",
          "type": "bytes4"
        }
      ],
      "name": "supportsInterface",
      "outputs": [
        {
          "internalType": "bool",
          "name": "",
          "type": "bool"
        }
      ],
      "stateMutability": "view",
      "type": "function"
    },
    {
      "inputs": [],
      "name": "symbol",
      "outputs": [
        {
          "internalType": "string",
          "name": "",
          "type": "string"
        }
      ],
      "stateMutability": "view",
      "type": "function"
    },
    {
      "inputs": [
        {
          "internalType": "uint256",
          "name": "",
          "type": "uint256"
        }
      ],
      "name": "tickets",
      "outputs": [
        {
          "internalType": "uint256",
          "name": "activityId",
          "type": "uint256"
        },
        {
          "internalType": "uint256",
          "name": "choiceIndex",
          "type": "uint256"
        },
        {
          "internalType": "uint256",
          "name": "amount",
          "type": "uint256"
        }
      ],
      "stateMutability": "view",
      "type": "function"
    },
    {
      "inputs": [
        {
          "internalType": "uint256",
          "name": "tokenId",
          "type": "uint256"
        }
      ],
      "name": "tokenURI",
      "outputs": [
        {
          "internalType": "string",
          "name": "",
          "type": "string"
        }
      ],
      "stateMutability": "view",
      "type": "function"
    },
    {
      "inputs": [
        {
          "internalType": "address",
          "name": "from",
          "type": "address"
        },
        {
          "internalType": "address",
          "name": "to",
          "type": "address"
        },
        {
          "internalType": "uint256",
          "name": "tokenId",
          "type": "uint256"
        }
      ],
      "name": "transferFrom",
      "outputs": [],
      "stateMutability": "nonpayable",
      "type": "function"
    },
    {
      "inputs": [
        {
          "internalType": "address",
          "name": "newOwner",
          "type": "address"
        }
      ],
      "name": "transferOwnership",
      "outputs": [],
      "stateMutability": "nonpayable",
      "type": "function"
    },
    {
      "inputs": [
        {
          "internalType": "uint256",
          "name": "amount",
          "type": "uint256"
        }
      ],
      "name": "withdraw",
      "outputs": [],
      "stateMutability": "nonpayable",
      "type": "function"
    },
    {
      "stateMutability": "payable",
      "type": "receive"
    }
  ],
  "bytecode": "0x60806040523480156200001157600080fd5b50336040518060400160405280600d81526020017f456173794265745469636b6574000000000000000000000000000000000000008152506040518060400160405280600381526020017f454254000000000000000000000000000000000000000000000000000000000081525081600090816200009091906200047a565b508060019081620000a291906200047a565b505050600073ffffffffffffffffffffffffffffffffffffffff168173ffffffffffffffffffffffffffffffffffffffff16036200011a5760006040517f1e4fbdf7000000000000000000000000000000000000000000000000000000008152600401620001119190620005a6565b60405180910390fd5b6200012b816200013a60201b60201c565b506001600781905550620005c3565b6000600660009054906101000a900473ffffffffffffffffffffffffffffffffffffffff16905081600660006101000a81548173ffffffffffffffffffffffffffffffffffffffff021916908373ffffffffffffffffffffffffffffffffffffffff1602179055508173ffffffffffffffffffffffffffffffffffffffff168173ffffffffffffffffffffffffffffffffffffffff167f8be0079c531659141344cd1fd0a4f28419497f9722a3daafe3b4186f6b6457e060405160405180910390a35050565b600081519050919050565b7f4e487b7100000000000000000000000000000000000000000000000000000000600052604160045260246000fd5b7f4e487b7100000000000000000000000000000000000000000000000000000000600052602260045260246000fd5b600060028204905060018216806200028257607f821691505b6020821081036200029857620002976200023a565b5b50919050565b60008190508160005260206000209050919050565b60006020601f8301049050919050565b600082821b905092915050565b600060088302620003027fffffffffffffffffffffffffffffffffffffffffffffffffffffffffffffffff82620002c3565b6200030e8683620002c3565b95508019841693508086168417925050509392505050565b6000819050919050565b6000819050919050565b60006200035b620003556200034f8462000326565b62000330565b62000326565b9050919050565b6000819050919050565b62000377836200033a565b6200038f620003868262000362565b848454620002d0565b825550505050565b600090565b620003a662000397565b620003b38184846200036c565b505050565b5b81811015620003db57620003cf6000826200039c565b600181019050620003b9565b5050565b601f8211156200042a57620003f4816200029e565b620003ff84620002b3565b810160208510156200040f578190505b620004276200041e85620002b3565b830182620003b8565b50505b505050565b600082821c905092915050565b60006200044f600019846008026200042f565b1980831691505092915050565b60006200046a83836200043c565b9150826002028217905092915050565b620004858262000200565b67ffffffffffffffff811115620004a157620004a06200020b565b5b620004ad825462000269565b620004ba828285620003df565b600060209050601f831160018114620004f25760008415620004dd578287015190505b620004e985826200045c565b86555062000559565b601f19841662000502866200029e565b60005b828110156200052c5784890151825560018201915060208501945060208101905062000505565b868310156200054c578489015162000548601f8916826200043c565b8355505b6001600288020188555050505b505050505050565b600073ffffffffffffffffffffffffffffffffffffffff82169050919050565b60006200058e8262000561565b9050919050565b620005a08162000581565b82525050565b6000602082019050620005bd600083018462000595565b92915050565b614c4e80620005d36000396000f3fe6080604052600436106101f25760003560e01c80636352211e1161010d578063a9bc1b35116100a0578063de74e57b1161006f578063de74e57b14610735578063e985e9c514610774578063f09fd016146107b1578063f2fde38b146107ee578063ff99a06314610817576101f9565b8063a9bc1b3514610676578063b88d4fde146106b3578063be600019146106dc578063c87b56dd146106f8576101f9565b80638da5cb5b116100dc5780638da5cb5b146105c757806395d89b41146105f257806398ff2a811461061d578063a22cb4651461064d576101f9565b80636352211e146104f957806370a08231146105365780637130a7a814610573578063715018a6146105b0576101f9565b8063298ec2081161018557806342842e0e1161015457806342842e0e1461044a578063502488531461047357806350b447121461048f57806358adf51d146104ce576101f9565b8063298ec2081461039f5780632e1a7d4d146103cf578063305a67a8146103f8578063305a905a14610421576101f9565b80630d1657e8116101c15780630d1657e8146102cc578063107a274a1461030e578063203746f21461034d57806323b872dd14610376576101f9565b806301ffc9a7146101fe57806306fdde031461023b578063081812fc14610266578063095ea7b3146102a3576101f9565b366101f957005b600080fd5b34801561020a57600080fd5b50610225600480360381019061022091906133dc565b610856565b6040516102329190613424565b60405180910390f35b34801561024757600080fd5b50610250610938565b60405161025d91906134cf565b60405180910390f35b34801561027257600080fd5b5061028d60048036038101906102889190613527565b6109ca565b60405161029a9190613595565b60405180910390f35b3480156102af57600080fd5b506102ca60048036038101906102c591906135dc565b6109e6565b005b3480156102d857600080fd5b506102f360048036038101906102ee9190613527565b6109fc565b6040516103059695949392919061362b565b60405180910390f35b34801561031a57600080fd5b5061033560048036038101906103309190613527565b610a65565b6040516103449392919061368c565b60405180910390f35b34801561035957600080fd5b50610374600480360381019061036f91906136c3565b610aca565b005b34801561038257600080fd5b5061039d60048036038101906103989190613703565b610e8f565b005b6103b960048036038101906103b491906136c3565b610f91565b6040516103c69190613756565b60405180910390f35b3480156103db57600080fd5b506103f660048036038101906103f19190613527565b6111df565b005b34801561040457600080fd5b5061041f600480360381019061041a9190613527565b6112da565b005b34801561042d57600080fd5b50610448600480360381019061044391906136c3565b611475565b005b34801561045657600080fd5b50610471600480360381019061046c9190613703565b611685565b005b61048d60048036038101906104889190613527565b6116a5565b005b34801561049b57600080fd5b506104b660048036038101906104b19190613527565b611928565b6040516104c593929190613771565b60405180910390f35b3480156104da57600080fd5b506104e3611952565b6040516104f09190613756565b60405180910390f35b34801561050557600080fd5b50610520600480360381019061051b9190613527565b61195c565b60405161052d9190613595565b60405180910390f35b34801561054257600080fd5b5061055d600480360381019061055891906137a8565b61196e565b60405161056a9190613756565b60405180910390f35b34801561057f57600080fd5b5061059a60048036038101906105959190613527565b611a28565b6040516105a79190613424565b60405180910390f35b3480156105bc57600080fd5b506105c5611a42565b005b3480156105d357600080fd5b506105dc611a56565b6040516105e99190613595565b60405180910390f35b3480156105fe57600080fd5b50610607611a80565b60405161061491906134cf565b60405180910390f35b6106376004803603810190610632919061383a565b611b12565b6040516106449190613756565b60405180910390f35b34801561065957600080fd5b50610674600480360381019061066f91906138c6565b611d66565b005b34801561068257600080fd5b5061069d60048036038101906106989190613527565b611d7c565b6040516106aa9190613756565b60405180910390f35b3480156106bf57600080fd5b506106da60048036038101906106d59190613a36565b611de7565b005b6106f660048036038101906106f19190613527565b611e0c565b005b34801561070457600080fd5b5061071f600480360381019061071a9190613527565b611f33565b60405161072c91906134cf565b60405180910390f35b34801561074157600080fd5b5061075c60048036038101906107579190613527565b611f9c565b60405161076b9392919061368c565b60405180910390f35b34801561078057600080fd5b5061079b60048036038101906107969190613ab9565b611ff3565b6040516107a89190613424565b60405180910390f35b3480156107bd57600080fd5b506107d860048036038101906107d39190613527565b612087565b6040516107e59190613bb7565b60405180910390f35b3480156107fa57600080fd5b50610815600480360381019061081091906137a8565b61213d565b005b34801561082357600080fd5b5061083e60048036038101906108399190613527565b6121c3565b60405161084d93929190613771565b60405180910390f35b60007f80ac58cd000000000000000000000000000000000000000000000000000000007bffffffffffffffffffffffffffffffffffffffffffffffffffffffff1916827bffffffffffffffffffffffffffffffffffffffffffffffffffffffff1916148061092157507f5b5e139f000000000000000000000000000000000000000000000000000000007bffffffffffffffffffffffffffffffffffffffffffffffffffffffff1916827bffffffffffffffffffffffffffffffffffffffffffffffffffffffff1916145b80610931575061093082612254565b5b9050919050565b60606000805461094790613c08565b80601f016020809104026020016040519081016040528092919081815260200182805461097390613c08565b80156109c05780601f10610995576101008083540402835291602001916109c0565b820191906000526020600020905b8154815290600101906020018083116109a357829003601f168201915b5050505050905090565b60006109d5826122be565b506109df82612346565b9050919050565b6109f882826109f3612383565b61238b565b5050565b600a6020528060005260406000206000915090508060000160009054906101000a900473ffffffffffffffffffffffffffffffffffffffff16908060010154908060030154908060040154908060060160009054906101000a900460ff16908060070154905086565b600080600080600c600086815260200190815260200160002090508060000160009054906101000a900473ffffffffffffffffffffffffffffffffffffffff1681600101548260020160009054906101000a900460ff16935093509350509193909250565b610ad261239d565b610ada612424565b610ae382611a28565b610b22576040517f08c379a0000000000000000000000000000000000000000000000000000000008152600401610b1990613c85565b60405180910390fd5b6000600a600084815260200190815260200160002090508060060160009054906101000a900460ff1615610b8b576040517f08c379a0000000000000000000000000000000000000000000000000000000008152600401610b8290613cf1565b60405180910390fd5b80600201805490508210610bd4576040517f08c379a0000000000000000000000000000000000000000000000000000000008152600401610bcb90613d5d565b60405180910390fd5b60018160060160006101000a81548160ff0219169083151502179055508181600701819055506000805b8260050180549050811015610cb5576000836005018281548110610c2557610c24613d7d565b5b9060005260206000200154905084600b60008381526020019081526020016000206001015403610ca1576000610c5a8261195c565b9050600073ffffffffffffffffffffffffffffffffffffffff168173ffffffffffffffffffffffffffffffffffffffff1614610c9f578380610c9b90613ddb565b9450505b505b508080610cad90613ddb565b915050610bfe565b5060008103610d0657837f0d3f998a216a1ff9da7f659fda7dd6bcbe030ccd695180040eb5c9af6d81eee28460008560040154604051610cf793929190613e68565b60405180910390a25050610e83565b6000818360040154610d189190613ece565b905060005b8360050180549050811015610e3e576000846005018281548110610d4457610d43613d7d565b5b9060005260206000200154905085600b60008381526020019081526020016000206001015403610e2a576000610d798261195c565b905060008173ffffffffffffffffffffffffffffffffffffffff1685604051610da190613f30565b60006040518083038185875af1925050503d8060008114610dde576040519150601f19603f3d011682016040523d82523d6000602084013e610de3565b606091505b5050905080610e27576040517f08c379a0000000000000000000000000000000000000000000000000000000008152600401610e1e90613f91565b60405180910390fd5b50505b508080610e3690613ddb565b915050610d1d565b50847f0d3f998a216a1ff9da7f659fda7dd6bcbe030ccd695180040eb5c9af6d81eee285848660040154604051610e7793929190613771565b60405180910390a25050505b610e8b61246a565b5050565b600073ffffffffffffffffffffffffffffffffffffffff168273ffffffffffffffffffffffffffffffffffffffff1603610f015760006040517f64a0ae92000000000000000000000000000000000000000000000000000000008152600401610ef89190613595565b60405180910390fd5b6000610f158383610f10612383565b612474565b90508373ffffffffffffffffffffffffffffffffffffffff168173ffffffffffffffffffffffffffffffffffffffff1614610f8b578382826040517f64283d7b000000000000000000000000000000000000000000000000000000008152600401610f8293929190613fb1565b60405180910390fd5b50505050565b6000610f9c83611a28565b610fdb576040517f08c379a0000000000000000000000000000000000000000000000000000000008152600401610fd290613c85565b60405180910390fd5b6000600a6000858152602001908152602001600020905080600101544210611038576040517f08c379a000000000000000000000000000000000000000000000000000000000815260040161102f90614034565b60405180910390fd5b80600201805490508310611081576040517f08c379a0000000000000000000000000000000000000000000000000000000008152600401611078906140a0565b60405180910390fd5b600034116110c4576040517f08c379a00000000000000000000000000000000000000000000000000000000081526004016110bb90614132565b60405180910390fd5b6001600860008282546110d79190614152565b92505081905550600060085490506110ef338261268e565b604051806060016040528086815260200185815260200134815250600b6000838152602001908152602001600020600082015181600001556020820151816001015560408201518160020155905050816005018190806001815401808255809150506001900390600052602060002001600090919091909150553482600401600082825461117d9190614152565b925050819055503373ffffffffffffffffffffffffffffffffffffffff1685827faea9f920c207b21afe471745229d28faca3030e42cb0369cd9f48474df397762346040516111cc9190613756565b60405180910390a4809250505092915050565b6111e761239d565b4781111561122a576040517f08c379a0000000000000000000000000000000000000000000000000000000008152600401611221906141d2565b60405180910390fd5b60003373ffffffffffffffffffffffffffffffffffffffff168260405161125090613f30565b60006040518083038185875af1925050503d806000811461128d576040519150601f19603f3d011682016040523d82523d6000602084013e611292565b606091505b50509050806112d6576040517f08c379a00000000000000000000000000000000000000000000000000000000081526004016112cd9061423e565b60405180910390fd5b5050565b6000600c600083815260200190815260200160002090508060020160009054906101000a900460ff16611342576040517f08c379a0000000000000000000000000000000000000000000000000000000008152600401611339906142aa565b60405180910390fd5b3373ffffffffffffffffffffffffffffffffffffffff168160000160009054906101000a900473ffffffffffffffffffffffffffffffffffffffff1673ffffffffffffffffffffffffffffffffffffffff16146113d4576040517f08c379a00000000000000000000000000000000000000000000000000000000081526004016113cb90614316565b60405180910390fd5b600c6000838152602001908152602001600020600080820160006101000a81549073ffffffffffffffffffffffffffffffffffffffff021916905560018201600090556002820160006101000a81549060ff021916905550503373ffffffffffffffffffffffffffffffffffffffff16827f0385add262f1fd6ca0c384da5b57cb2d0a777cfc153b9f50eb36454c780b9ca860405160405180910390a35050565b3373ffffffffffffffffffffffffffffffffffffffff166114958361195c565b73ffffffffffffffffffffffffffffffffffffffff16146114eb576040517f08c379a00000000000000000000000000000000000000000000000000000000081526004016114e290614382565b60405180910390fd5b6000811161152e576040517f08c379a0000000000000000000000000000000000000000000000000000000008152600401611525906143ee565b60405180910390fd5b61153882336126ac565b611577576040517f08c379a000000000000000000000000000000000000000000000000000000000815260040161156e90614480565b60405180910390fd5b60405180606001604052803373ffffffffffffffffffffffffffffffffffffffff16815260200182815260200160011515815250600c600084815260200190815260200160002060008201518160000160006101000a81548173ffffffffffffffffffffffffffffffffffffffff021916908373ffffffffffffffffffffffffffffffffffffffff1602179055506020820151816001015560408201518160020160006101000a81548160ff0219169083151502179055509050503373ffffffffffffffffffffffffffffffffffffffff16827f22968ec3be3687b180f3544163a034b88d57b48159d9a7e9a1b610fdb2d05f80836040516116799190613756565b60405180910390a35050565b6116a083838360405180602001604052806000815250611de7565b505050565b6116ad612424565b6000600c600083815260200190815260200160002090508060020160009054906101000a900460ff16611715576040517f08c379a000000000000000000000000000000000000000000000000000000000815260040161170c906142aa565b60405180910390fd5b8060010154341461175b576040517f08c379a0000000000000000000000000000000000000000000000000000000008152600401611752906144ec565b60405180910390fd5b60008160000160009054906101000a900473ffffffffffffffffffffffffffffffffffffffff1690506000339050600083600101549050600c6000868152602001908152602001600020600080820160006101000a81549073ffffffffffffffffffffffffffffffffffffffff021916905560018201600090556002820160006101000a81549060ff021916905550506118068383876040518060200160405280600081525061271c565b60008373ffffffffffffffffffffffffffffffffffffffff168260405161182c90613f30565b60006040518083038185875af1925050503d8060008114611869576040519150601f19603f3d011682016040523d82523d6000602084013e61186e565b606091505b50509050806118b2576040517f08c379a00000000000000000000000000000000000000000000000000000000081526004016118a990614558565b60405180910390fd5b8273ffffffffffffffffffffffffffffffffffffffff168473ffffffffffffffffffffffffffffffffffffffff16877f2bbc64d6afd28a753f6c5e4aaa894f1d684c44a0e080167eae104ac8505cfebd856040516119109190613756565b60405180910390a4505050505061192561246a565b50565b600b6020528060005260406000206000915090508060000154908060010154908060020154905083565b6000600954905090565b6000611967826122be565b9050919050565b60008073ffffffffffffffffffffffffffffffffffffffff168273ffffffffffffffffffffffffffffffffffffffff16036119e15760006040517f89c62b640000000000000000000000000000000000000000000000000000000081526004016119d89190613595565b60405180910390fd5b600360008373ffffffffffffffffffffffffffffffffffffffff1673ffffffffffffffffffffffffffffffffffffffff168152602001908152602001600020549050919050565b60008082118015611a3b57506009548211155b9050919050565b611a4a61239d565b611a546000612741565b565b6000600660009054906101000a900473ffffffffffffffffffffffffffffffffffffffff16905090565b606060018054611a8f90613c08565b80601f0160208091040260200160405190810160405280929190818152602001828054611abb90613c08565b8015611b085780601f10611add57610100808354040283529160200191611b08565b820191906000526020600020905b815481529060010190602001808311611aeb57829003601f168201915b5050505050905090565b6000611b1c61239d565b6002848490501015611b63576040517f08c379a0000000000000000000000000000000000000000000000000000000008152600401611b5a906145c4565b60405180910390fd5b428211611ba5576040517f08c379a0000000000000000000000000000000000000000000000000000000008152600401611b9c90614630565b60405180910390fd5b60003411611be8576040517f08c379a0000000000000000000000000000000000000000000000000000000008152600401611bdf9061469c565b60405180910390fd5b600160096000828254611bfb9190614152565b92505081905550600060095490506000600a60008381526020019081526020016000209050338160000160006101000a81548173ffffffffffffffffffffffffffffffffffffffff021916908373ffffffffffffffffffffffffffffffffffffffff16021790555083816001018190555060005b86869050811015611cf05781600201878783818110611c9157611c90613d7d565b5b9050602002810190611ca391906146cb565b90918060018154018082558091505060019003906000526020600020016000909192909192909192909192509182611cdc9291906148db565b508080611ce890613ddb565b915050611c6f565b5034816003018190555034816004018190555060008160060160006101000a81548160ff021916908315150217905550817fb224f3d19b56c8c5ff6fac8b40ada082b592179858271d14114a10e1864415a63486604051611d529291906149ab565b60405180910390a281925050509392505050565b611d78611d71612383565b8383612807565b5050565b6000611d8782611a28565b611dc6576040517f08c379a0000000000000000000000000000000000000000000000000000000008152600401611dbd90613c85565b60405180910390fd5b600a6000838152602001908152602001600020600201805490509050919050565b611df2848484610e8f565b611e06611dfd612383565b85858585612976565b50505050565b611e1461239d565b611e1d81611a28565b611e5c576040517f08c379a0000000000000000000000000000000000000000000000000000000008152600401611e5390613c85565b60405180910390fd5b600a600082815260200190815260200160002060060160009054906101000a900460ff1615611ec0576040517f08c379a0000000000000000000000000000000000000000000000000000000008152600401611eb790613cf1565b60405180910390fd5b60003411611f03576040517f08c379a0000000000000000000000000000000000000000000000000000000008152600401611efa90614a20565b60405180910390fd5b34600a60008381526020019081526020016000206004016000828254611f299190614152565b9250508190555050565b6060611f3e826122be565b506000611f49612b27565b90506000815111611f695760405180602001604052806000815250611f94565b80611f7384612b3e565b604051602001611f84929190614a7c565b6040516020818303038152906040525b915050919050565b600c6020528060005260406000206000915090508060000160009054906101000a900473ffffffffffffffffffffffffffffffffffffffff16908060010154908060020160009054906101000a900460ff16905083565b6000600560008473ffffffffffffffffffffffffffffffffffffffff1673ffffffffffffffffffffffffffffffffffffffff16815260200190815260200160002060008373ffffffffffffffffffffffffffffffffffffffff1673ffffffffffffffffffffffffffffffffffffffff16815260200190815260200160002060009054906101000a900460ff16905092915050565b606061209282611a28565b6120d1576040517f08c379a00000000000000000000000000000000000000000000000000000000081526004016120c890613c85565b60405180910390fd5b600a600083815260200190815260200160002060050180548060200260200160405190810160405280929190818152602001828054801561213157602002820191906000526020600020905b81548152602001906001019080831161211d575b50505050509050919050565b61214561239d565b600073ffffffffffffffffffffffffffffffffffffffff168173ffffffffffffffffffffffffffffffffffffffff16036121b75760006040517f1e4fbdf70000000000000000000000000000000000000000000000000000000081526004016121ae9190613595565b60405180910390fd5b6121c081612741565b50565b600080600080600b60008681526020019081526020016000206002015403612220576040517f08c379a000000000000000000000000000000000000000000000000000000000815260040161221790614aec565b60405180910390fd5b6000600b60008681526020019081526020016000209050806000015481600101548260020154935093509350509193909250565b60007f01ffc9a7000000000000000000000000000000000000000000000000000000007bffffffffffffffffffffffffffffffffffffffffffffffffffffffff1916827bffffffffffffffffffffffffffffffffffffffffffffffffffffffff1916149050919050565b6000806122ca83612c0c565b9050600073ffffffffffffffffffffffffffffffffffffffff168173ffffffffffffffffffffffffffffffffffffffff160361233d57826040517f7e2732890000000000000000000000000000000000000000000000000000000081526004016123349190613756565b60405180910390fd5b80915050919050565b60006004600083815260200190815260200160002060009054906101000a900473ffffffffffffffffffffffffffffffffffffffff169050919050565b600033905090565b6123988383836001612c49565b505050565b6123a5612383565b73ffffffffffffffffffffffffffffffffffffffff166123c3611a56565b73ffffffffffffffffffffffffffffffffffffffff1614612422576123e6612383565b6040517f118cdaa70000000000000000000000000000000000000000000000000000000081526004016124199190613595565b60405180910390fd5b565b600260075403612460576040517f3ee5aeb500000000000000000000000000000000000000000000000000000000815260040160405180910390fd5b6002600781905550565b6001600781905550565b60008061248084612c0c565b9050600073ffffffffffffffffffffffffffffffffffffffff168373ffffffffffffffffffffffffffffffffffffffff16146124c2576124c1818486612e0e565b5b600073ffffffffffffffffffffffffffffffffffffffff168173ffffffffffffffffffffffffffffffffffffffff161461255357612504600085600080612c49565b6001600360008373ffffffffffffffffffffffffffffffffffffffff1673ffffffffffffffffffffffffffffffffffffffff168152602001908152602001600020600082825403925050819055505b600073ffffffffffffffffffffffffffffffffffffffff168573ffffffffffffffffffffffffffffffffffffffff16146125d6576001600360008773ffffffffffffffffffffffffffffffffffffffff1673ffffffffffffffffffffffffffffffffffffffff168152602001908152602001600020600082825401925050819055505b846002600086815260200190815260200160002060006101000a81548173ffffffffffffffffffffffffffffffffffffffff021916908373ffffffffffffffffffffffffffffffffffffffff160217905550838573ffffffffffffffffffffffffffffffffffffffff168273ffffffffffffffffffffffffffffffffffffffff167fddf252ad1be2c89b69c2b068fc378daa952ba7f163c4a11628f55a4df523b3ef60405160405180910390a4809150509392505050565b6126a8828260405180602001604052806000815250612ed2565b5050565b6000806126b8846109ca565b90503073ffffffffffffffffffffffffffffffffffffffff168173ffffffffffffffffffffffffffffffffffffffff16036126f7576001915050612716565b6127018330611ff3565b15612710576001915050612716565b60009150505b92915050565b612727848484612ef6565b61273b612732612383565b85858585612976565b50505050565b6000600660009054906101000a900473ffffffffffffffffffffffffffffffffffffffff16905081600660006101000a81548173ffffffffffffffffffffffffffffffffffffffff021916908373ffffffffffffffffffffffffffffffffffffffff1602179055508173ffffffffffffffffffffffffffffffffffffffff168173ffffffffffffffffffffffffffffffffffffffff167f8be0079c531659141344cd1fd0a4f28419497f9722a3daafe3b4186f6b6457e060405160405180910390a35050565b600073ffffffffffffffffffffffffffffffffffffffff168273ffffffffffffffffffffffffffffffffffffffff160361287857816040517f5b08ba1800000000000000000000000000000000000000000000000000000000815260040161286f9190613595565b60405180910390fd5b80600560008573ffffffffffffffffffffffffffffffffffffffff1673ffffffffffffffffffffffffffffffffffffffff16815260200190815260200160002060008473ffffffffffffffffffffffffffffffffffffffff1673ffffffffffffffffffffffffffffffffffffffff16815260200190815260200160002060006101000a81548160ff0219169083151502179055508173ffffffffffffffffffffffffffffffffffffffff168373ffffffffffffffffffffffffffffffffffffffff167f17307eab39ab6107e8899845ad3d59bd9653f200f220920489ca2b5937696c31836040516129699190613424565b60405180910390a3505050565b60008373ffffffffffffffffffffffffffffffffffffffff163b1115612b20578273ffffffffffffffffffffffffffffffffffffffff1663150b7a02868685856040518563ffffffff1660e01b81526004016129d59493929190614b61565b6020604051808303816000875af1925050508015612a1157506040513d601f19601f82011682018060405250810190612a0e9190614bc2565b60015b612a95573d8060008114612a41576040519150601f19603f3d011682016040523d82523d6000602084013e612a46565b606091505b506000815103612a8d57836040517f64a0ae92000000000000000000000000000000000000000000000000000000008152600401612a849190613595565b60405180910390fd5b805160208201fd5b63150b7a0260e01b7bffffffffffffffffffffffffffffffffffffffffffffffffffffffff1916817bffffffffffffffffffffffffffffffffffffffffffffffffffffffff191614612b1e57836040517f64a0ae92000000000000000000000000000000000000000000000000000000008152600401612b159190613595565b60405180910390fd5b505b5050505050565b606060405180602001604052806000815250905090565b606060006001612b4d84613063565b01905060008167ffffffffffffffff811115612b6c57612b6b61390b565b5b6040519080825280601f01601f191660200182016040528015612b9e5781602001600182028036833780820191505090505b509050600082602083010190505b600115612c01578080600190039150507f3031323334353637383961626364656600000000000000000000000000000000600a86061a8153600a8581612bf557612bf4613e9f565b5b04945060008503612bac575b819350505050919050565b60006002600083815260200190815260200160002060009054906101000a900473ffffffffffffffffffffffffffffffffffffffff169050919050565b8080612c825750600073ffffffffffffffffffffffffffffffffffffffff168273ffffffffffffffffffffffffffffffffffffffff1614155b15612db6576000612c92846122be565b9050600073ffffffffffffffffffffffffffffffffffffffff168373ffffffffffffffffffffffffffffffffffffffff1614158015612cfd57508273ffffffffffffffffffffffffffffffffffffffff168173ffffffffffffffffffffffffffffffffffffffff1614155b8015612d105750612d0e8184611ff3565b155b15612d5257826040517fa9fbf51f000000000000000000000000000000000000000000000000000000008152600401612d499190613595565b60405180910390fd5b8115612db457838573ffffffffffffffffffffffffffffffffffffffff168273ffffffffffffffffffffffffffffffffffffffff167f8c5be1e5ebec7d5bd14f71427d1e84f3dd0314c0f7b2291e5b200ac8c7c3b92560405160405180910390a45b505b836004600085815260200190815260200160002060006101000a81548173ffffffffffffffffffffffffffffffffffffffff021916908373ffffffffffffffffffffffffffffffffffffffff16021790555050505050565b612e198383836131b6565b612ecd57600073ffffffffffffffffffffffffffffffffffffffff168373ffffffffffffffffffffffffffffffffffffffff1603612e8e57806040517f7e273289000000000000000000000000000000000000000000000000000000008152600401612e859190613756565b60405180910390fd5b81816040517f177e802f000000000000000000000000000000000000000000000000000000008152600401612ec4929190614bef565b60405180910390fd5b505050565b612edc8383613277565b612ef1612ee7612383565b6000858585612976565b505050565b600073ffffffffffffffffffffffffffffffffffffffff168273ffffffffffffffffffffffffffffffffffffffff1603612f685760006040517f64a0ae92000000000000000000000000000000000000000000000000000000008152600401612f5f9190613595565b60405180910390fd5b6000612f7683836000612474565b9050600073ffffffffffffffffffffffffffffffffffffffff168173ffffffffffffffffffffffffffffffffffffffff1603612fe957816040517f7e273289000000000000000000000000000000000000000000000000000000008152600401612fe09190613756565b60405180910390fd5b8373ffffffffffffffffffffffffffffffffffffffff168173ffffffffffffffffffffffffffffffffffffffff161461305d578382826040517f64283d7b00000000000000000000000000000000000000000000000000000000815260040161305493929190613fb1565b60405180910390fd5b50505050565b600080600090507a184f03e93ff9f4daa797ed6e38ed64bf6a1f01000000000000000083106130c1577a184f03e93ff9f4daa797ed6e38ed64bf6a1f01000000000000000083816130b7576130b6613e9f565b5b0492506040810190505b6d04ee2d6d415b85acef810000000083106130fe576d04ee2d6d415b85acef810000000083816130f4576130f3613e9f565b5b0492506020810190505b662386f26fc10000831061312d57662386f26fc10000838161312357613122613e9f565b5b0492506010810190505b6305f5e1008310613156576305f5e100838161314c5761314b613e9f565b5b0492506008810190505b612710831061317b57612710838161317157613170613e9f565b5b0492506004810190505b6064831061319e576064838161319457613193613e9f565b5b0492506002810190505b600a83106131ad576001810190505b80915050919050565b60008073ffffffffffffffffffffffffffffffffffffffff168373ffffffffffffffffffffffffffffffffffffffff161415801561326e57508273ffffffffffffffffffffffffffffffffffffffff168473ffffffffffffffffffffffffffffffffffffffff16148061322f575061322e8484611ff3565b5b8061326d57508273ffffffffffffffffffffffffffffffffffffffff1661325583612346565b73ffffffffffffffffffffffffffffffffffffffff16145b5b90509392505050565b600073ffffffffffffffffffffffffffffffffffffffff168273ffffffffffffffffffffffffffffffffffffffff16036132e95760006040517f64a0ae920000000000000000000000000000000000000000000000000000000081526004016132e09190613595565b60405180910390fd5b60006132f783836000612474565b9050600073ffffffffffffffffffffffffffffffffffffffff168173ffffffffffffffffffffffffffffffffffffffff161461336b5760006040517f73c6ac6e0000000000000000000000000000000000000000000000000000000081526004016133629190613595565b60405180910390fd5b505050565b6000604051905090565b600080fd5b600080fd5b60007fffffffff0000000000000000000000000000000000000000000000000000000082169050919050565b6133b981613384565b81146133c457600080fd5b50565b6000813590506133d6816133b0565b92915050565b6000602082840312156133f2576133f161337a565b5b6000613400848285016133c7565b91505092915050565b60008115159050919050565b61341e81613409565b82525050565b60006020820190506134396000830184613415565b92915050565b600081519050919050565b600082825260208201905092915050565b60005b8381101561347957808201518184015260208101905061345e565b60008484015250505050565b6000601f19601f8301169050919050565b60006134a18261343f565b6134ab818561344a565b93506134bb81856020860161345b565b6134c481613485565b840191505092915050565b600060208201905081810360008301526134e98184613496565b905092915050565b6000819050919050565b613504816134f1565b811461350f57600080fd5b50565b600081359050613521816134fb565b92915050565b60006020828403121561353d5761353c61337a565b5b600061354b84828501613512565b91505092915050565b600073ffffffffffffffffffffffffffffffffffffffff82169050919050565b600061357f82613554565b9050919050565b61358f81613574565b82525050565b60006020820190506135aa6000830184613586565b92915050565b6135b981613574565b81146135c457600080fd5b50565b6000813590506135d6816135b0565b92915050565b600080604083850312156135f3576135f261337a565b5b6000613601858286016135c7565b925050602061361285828601613512565b9150509250929050565b613625816134f1565b82525050565b600060c0820190506136406000830189613586565b61364d602083018861361c565b61365a604083018761361c565b613667606083018661361c565b6136746080830185613415565b61368160a083018461361c565b979650505050505050565b60006060820190506136a16000830186613586565b6136ae602083018561361c565b6136bb6040830184613415565b949350505050565b600080604083850312156136da576136d961337a565b5b60006136e885828601613512565b92505060206136f985828601613512565b9150509250929050565b60008060006060848603121561371c5761371b61337a565b5b600061372a868287016135c7565b935050602061373b868287016135c7565b925050604061374c86828701613512565b9150509250925092565b600060208201905061376b600083018461361c565b92915050565b6000606082019050613786600083018661361c565b613793602083018561361c565b6137a0604083018461361c565b949350505050565b6000602082840312156137be576137bd61337a565b5b60006137cc848285016135c7565b91505092915050565b600080fd5b600080fd5b600080fd5b60008083601f8401126137fa576137f96137d5565b5b8235905067ffffffffffffffff811115613817576138166137da565b5b602083019150836020820283011115613833576138326137df565b5b9250929050565b6000806000604084860312156138535761385261337a565b5b600084013567ffffffffffffffff8111156138715761387061337f565b5b61387d868287016137e4565b9350935050602061389086828701613512565b9150509250925092565b6138a381613409565b81146138ae57600080fd5b50565b6000813590506138c08161389a565b92915050565b600080604083850312156138dd576138dc61337a565b5b60006138eb858286016135c7565b92505060206138fc858286016138b1565b9150509250929050565b600080fd5b7f4e487b7100000000000000000000000000000000000000000000000000000000600052604160045260246000fd5b61394382613485565b810181811067ffffffffffffffff821117156139625761396161390b565b5b80604052505050565b6000613975613370565b9050613981828261393a565b919050565b600067ffffffffffffffff8211156139a1576139a061390b565b5b6139aa82613485565b9050602081019050919050565b82818337600083830152505050565b60006139d96139d484613986565b61396b565b9050828152602081018484840111156139f5576139f4613906565b5b613a008482856139b7565b509392505050565b600082601f830112613a1d57613a1c6137d5565b5b8135613a2d8482602086016139c6565b91505092915050565b60008060008060808587031215613a5057613a4f61337a565b5b6000613a5e878288016135c7565b9450506020613a6f878288016135c7565b9350506040613a8087828801613512565b925050606085013567ffffffffffffffff811115613aa157613aa061337f565b5b613aad87828801613a08565b91505092959194509250565b60008060408385031215613ad057613acf61337a565b5b6000613ade858286016135c7565b9250506020613aef858286016135c7565b9150509250929050565b600081519050919050565b600082825260208201905092915050565b6000819050602082019050919050565b613b2e816134f1565b82525050565b6000613b408383613b25565b60208301905092915050565b6000602082019050919050565b6000613b6482613af9565b613b6e8185613b04565b9350613b7983613b15565b8060005b83811015613baa578151613b918882613b34565b9750613b9c83613b4c565b925050600181019050613b7d565b5085935050505092915050565b60006020820190508181036000830152613bd18184613b59565b905092915050565b7f4e487b7100000000000000000000000000000000000000000000000000000000600052602260045260246000fd5b60006002820490506001821680613c2057607f821691505b602082108103613c3357613c32613bd9565b5b50919050565b7f416374697669747920646f6573206e6f74206578697374000000000000000000600082015250565b6000613c6f60178361344a565b9150613c7a82613c39565b602082019050919050565b60006020820190508181036000830152613c9e81613c62565b9050919050565b7f416374697669747920616c726561647920736574746c65640000000000000000600082015250565b6000613cdb60188361344a565b9150613ce682613ca5565b602082019050919050565b60006020820190508181036000830152613d0a81613cce565b9050919050565b7f496e76616c69642077696e6e696e672063686f69636500000000000000000000600082015250565b6000613d4760168361344a565b9150613d5282613d11565b602082019050919050565b60006020820190508181036000830152613d7681613d3a565b9050919050565b7f4e487b7100000000000000000000000000000000000000000000000000000000600052603260045260246000fd5b7f4e487b7100000000000000000000000000000000000000000000000000000000600052601160045260246000fd5b6000613de6826134f1565b91507fffffffffffffffffffffffffffffffffffffffffffffffffffffffffffffffff8203613e1857613e17613dac565b5b600182019050919050565b6000819050919050565b6000819050919050565b6000613e52613e4d613e4884613e23565b613e2d565b6134f1565b9050919050565b613e6281613e37565b82525050565b6000606082019050613e7d600083018661361c565b613e8a6020830185613e59565b613e97604083018461361c565b949350505050565b7f4e487b7100000000000000000000000000000000000000000000000000000000600052601260045260246000fd5b6000613ed9826134f1565b9150613ee4836134f1565b925082613ef457613ef3613e9f565b5b828204905092915050565b600081905092915050565b50565b6000613f1a600083613eff565b9150613f2582613f0a565b600082019050919050565b6000613f3b82613f0d565b9150819050919050565b7f4661696c656420746f2073656e64207072697a6520746f2077696e6e65720000600082015250565b6000613f7b601e8361344a565b9150613f8682613f45565b602082019050919050565b60006020820190508181036000830152613faa81613f6e565b9050919050565b6000606082019050613fc66000830186613586565b613fd3602083018561361c565b613fe06040830184613586565b949350505050565b7f41637469766974792068617320656e6465640000000000000000000000000000600082015250565b600061401e60128361344a565b915061402982613fe8565b602082019050919050565b6000602082019050818103600083015261404d81614011565b9050919050565b7f496e76616c69642063686f69636520696e646578000000000000000000000000600082015250565b600061408a60148361344a565b915061409582614054565b602082019050919050565b600060208201905081810360008301526140b98161407d565b9050919050565b7f42657420616d6f756e74206d7573742062652067726561746572207468616e2060008201527f3000000000000000000000000000000000000000000000000000000000000000602082015250565b600061411c60218361344a565b9150614127826140c0565b604082019050919050565b6000602082019050818103600083015261414b8161410f565b9050919050565b600061415d826134f1565b9150614168836134f1565b92508282019050808211156141805761417f613dac565b5b92915050565b7f4578636565647320636f6e74726163742062616c616e63650000000000000000600082015250565b60006141bc60188361344a565b91506141c782614186565b602082019050919050565b600060208201905081810360008301526141eb816141af565b9050919050565b7f5769746864726177206661696c65640000000000000000000000000000000000600082015250565b6000614228600f8361344a565b9150614233826141f2565b602082019050919050565b600060208201905081810360008301526142578161421b565b9050919050565b7f4e6f206c697374696e6700000000000000000000000000000000000000000000600082015250565b6000614294600a8361344a565b915061429f8261425e565b602082019050919050565b600060208201905081810360008301526142c381614287565b9050919050565b7f4f6e6c792073656c6c65722063616e2063616e63656c00000000000000000000600082015250565b600061430060168361344a565b915061430b826142ca565b602082019050919050565b6000602082019050818103600083015261432f816142f3565b9050919050565b7f4e6f7420746865207469636b6574206f776e6572000000000000000000000000600082015250565b600061436c60148361344a565b915061437782614336565b602082019050919050565b6000602082019050818103600083015261439b8161435f565b9050919050565b7f5072696365206d7573742062652067726561746572207468616e203000000000600082015250565b60006143d8601c8361344a565b91506143e3826143a2565b602082019050919050565b60006020820190508181036000830152614407816143cb565b9050919050565b7f506c6561736520617070726f766520636f6e747261637420746f207472616e7360008201527f666572207469636b657400000000000000000000000000000000000000000000602082015250565b600061446a602a8361344a565b91506144758261440e565b604082019050919050565b600060208201905081810360008301526144998161445d565b9050919050565b7f5061796d656e74206d75737420657175616c206c697374696e67207072696365600082015250565b60006144d660208361344a565b91506144e1826144a0565b602082019050919050565b60006020820190508181036000830152614505816144c9565b9050919050565b7f5472616e7366657220746f2073656c6c6572206661696c656400000000000000600082015250565b600061454260198361344a565b915061454d8261450c565b602082019050919050565b6000602082019050818103600083015261457181614535565b9050919050565b7f4174206c656173742074776f206f7074696f6e73207265717569726564000000600082015250565b60006145ae601d8361344a565b91506145b982614578565b602082019050919050565b600060208201905081810360008301526145dd816145a1565b9050919050565b7f446561646c696e65206d75737420626520696e20746865206675747572650000600082015250565b600061461a601e8361344a565b9150614625826145e4565b602082019050919050565b600060208201905081810360008301526146498161460d565b9050919050565b7f496e697469616c20706f6f6c206d7573742062652070726f7669646564000000600082015250565b6000614686601d8361344a565b915061469182614650565b602082019050919050565b600060208201905081810360008301526146b581614679565b9050919050565b600080fd5b600080fd5b600080fd5b600080833560016020038436030381126146e8576146e76146bc565b5b80840192508235915067ffffffffffffffff82111561470a576147096146c1565b5b602083019250600182023603831315614726576147256146c6565b5b509250929050565b600082905092915050565b60008190508160005260206000209050919050565b60006020601f8301049050919050565b600082821b905092915050565b60006008830261479b7fffffffffffffffffffffffffffffffffffffffffffffffffffffffffffffffff8261475e565b6147a5868361475e565b95508019841693508086168417925050509392505050565b60006147d86147d36147ce846134f1565b613e2d565b6134f1565b9050919050565b6000819050919050565b6147f2836147bd565b6148066147fe826147df565b84845461476b565b825550505050565b600090565b61481b61480e565b6148268184846147e9565b505050565b5b8181101561484a5761483f600082614813565b60018101905061482c565b5050565b601f82111561488f5761486081614739565b6148698461474e565b81016020851015614878578190505b61488c6148848561474e565b83018261482b565b50505b505050565b600082821c905092915050565b60006148b260001984600802614894565b1980831691505092915050565b60006148cb83836148a1565b9150826002028217905092915050565b6148e5838361472e565b67ffffffffffffffff8111156148fe576148fd61390b565b5b6149088254613c08565b61491382828561484e565b6000601f8311600181146149425760008415614930578287013590505b61493a85826148bf565b8655506149a2565b601f19841661495086614739565b60005b8281101561497857848901358255600182019150602085019450602081019050614953565b868310156149955784890135614991601f8916826148a1565b8355505b6001600288020188555050505b50505050505050565b60006040820190506149c0600083018561361c565b6149cd602083018461361c565b9392505050565b7f416d6f756e74206d7573742062652067726561746572207468616e2030000000600082015250565b6000614a0a601d8361344a565b9150614a15826149d4565b602082019050919050565b60006020820190508181036000830152614a39816149fd565b9050919050565b600081905092915050565b6000614a568261343f565b614a608185614a40565b9350614a7081856020860161345b565b80840191505092915050565b6000614a888285614a4b565b9150614a948284614a4b565b91508190509392505050565b7f5469636b657420646f6573206e6f742065786973740000000000000000000000600082015250565b6000614ad660158361344a565b9150614ae182614aa0565b602082019050919050565b60006020820190508181036000830152614b0581614ac9565b9050919050565b600081519050919050565b600082825260208201905092915050565b6000614b3382614b0c565b614b3d8185614b17565b9350614b4d81856020860161345b565b614b5681613485565b840191505092915050565b6000608082019050614b766000830187613586565b614b836020830186613586565b614b90604083018561361c565b8181036060830152614ba28184614b28565b905095945050505050565b600081519050614bbc816133b0565b92915050565b600060208284031215614bd857614bd761337a565b5b6000614be684828501614bad565b91505092915050565b6000604082019050614c046000830185613586565b614c11602083018461361c565b939250505056fea26469706673582212200f32f3e53f3cb1856a5b107f05ad274e14624fc7cb02667896201f49d6d4c7a264736f6c63430008140033",
  "linkReferences": {},
  "deployedLinkReferences": {}
}