{
  "_format": "hh-sol-artifact-1",
  "contractName": "EasyBet",
  "sourceName": "contracts/EasyBet.sol",
  "abi": [
    {
      "inputs": [],
      "stateMutability": "nonpayable",
      "type": "constructor"
    },
    {
      "inputs": [
        {
          "internalType": "address",
          "name": "sender",
          "type": "address"
        },
        {
          "internalType": "uint256",
          "name": "tokenId",
          "type": "uint256"
        },
        {
          "internalType": "address",
          "name": "owner",
          "type": "address"
        }
      ],
      "name": "ERC721IncorrectOwner",
      "type": "error"
    },
    {
      "inputs": [
        {
          "internalType": "address",
          "name": "operator",
          "type": "address"
        },
        {
          "internalType": "uint256",
          "name": "tokenId",
          "type": "uint256"
        }
      ],
      "name": "ERC721InsufficientApproval",
      "type": "error"
    },
    {
      "inputs": [
        {
          "internalType": "address",
          "name": "approver",
          "type": "address"
        }
      ],
      "name": "ERC721InvalidApprover",
      "type": "error"
    },
    {
      "inputs": [
        {
          "internalType": "address",
          "name": "operator",
          "type": "address"
        }
      ],
      "name": "ERC721InvalidOperator",
      "type": "error"
    },
    {
      "inputs": [
        {
          "internalType": "address",
          "name": "owner",
          "type": "address"
        }
      ],
      "name": "ERC721InvalidOwner",
      "type": "error"
    },
    {
      "inputs": [
        {
          "internalType": "address",
          "name": "receiver",
          "type": "address"
        }
      ],
      "name": "ERC721InvalidReceiver",
      "type": "error"
    },
    {
      "inputs": [
        {
          "internalType": "address",
          "name": "sender",
          "type": "address"
        }
      ],
      "name": "ERC721InvalidSender",
      "type": "error"
    },
    {
      "inputs": [
        {
          "internalType": "uint256",
          "name": "tokenId",
          "type": "uint256"
        }
      ],
      "name": "ERC721NonexistentToken",
      "type": "error"
    },
    {
      "inputs": [
        {
          "internalType": "address",
          "name": "owner",
          "type": "address"
        }
      ],
      "name": "OwnableInvalidOwner",
      "type": "error"
    },
    {
      "inputs": [
        {
          "internalType": "address",
          "name": "account",
          "type": "address"
        }
      ],
      "name": "OwnableUnauthorizedAccount",
      "type": "error"
    },
    {
      "inputs": [],
      "name": "ReentrancyGuardReentrantCall",
      "type": "error"
    },
    {
      "anonymous": false,
      "inputs": [
        {
          "indexed": true,
          "internalType": "uint256",
          "name": "activityId",
          "type": "uint256"
        },
        {
          "indexed": false,
          "internalType": "uint256",
          "name": "initialPool",
          "type": "uint256"
        },
        {
          "indexed": false,
          "internalType": "uint256",
          "name": "deadline",
          "type": "uint256"
        }
      ],
      "name": "ActivityCreated",
      "type": "event"
    },
    {
      "anonymous": false,
      "inputs": [
        {
          "indexed": true,
          "internalType": "uint256",
          "name": "activityId",
          "type": "uint256"
        },
        {
          "indexed": false,
          "internalType": "uint256",
          "name": "winningChoice",
          "type": "uint256"
        },
        {
          "indexed": false,
          "internalType": "uint256",
          "name": "winnersCount",
          "type": "uint256"
        },
        {
          "indexed": false,
          "internalType": "uint256",
          "name": "totalPool",
          "type": "uint256"
        }
      ],
      "name": "ActivitySettled",
      "type": "event"
    },
    {
      "anonymous": false,
      "inputs": [
        {
          "indexed": true,
          "internalType": "address",
          "name": "owner",
          "type": "address"
        },
        {
          "indexed": true,
          "internalType": "address",
          "name": "approved",
          "type": "address"
        },
        {
          "indexed": true,
          "internalType": "uint256",
          "name": "tokenId",
          "type": "uint256"
        }
      ],
      "name": "Approval",
      "type": "event"
    },
    {
      "anonymous": false,
      "inputs": [
        {
          "indexed": true,
          "internalType": "address",
          "name": "owner",
          "type": "address"
        },
        {
          "indexed": true,
          "internalType": "address",
          "name": "operator",
          "type": "address"
        },
        {
          "indexed": false,
          "internalType": "bool",
          "name": "approved",
          "type": "bool"
        }
      ],
      "name": "ApprovalForAll",
      "type": "event"
    },
    {
      "anonymous": false,
      "inputs": [
        {
          "indexed": true,
          "internalType": "uint256",
          "name": "tokenId",
          "type": "uint256"
        },
        {
          "indexed": true,
          "internalType": "uint256",
          "name": "activityId",
          "type": "uint256"
        },
        {
          "indexed": false,
          "internalType": "uint256",
          "name": "price",
          "type": "uint256"
        },
        {
          "indexed": true,
          "internalType": "address",
          "name": "owner",
          "type": "address"
        }
      ],
      "name": "BetPlaced",
      "type": "event"
    },
    {
      "anonymous": false,
      "inputs": [
        {
          "indexed": true,
          "internalType": "address",
          "name": "previousOwner",
          "type": "address"
        },
        {
          "indexed": true,
          "internalType": "address",
          "name": "newOwner",
          "type": "address"
        }
      ],
      "name": "OwnershipTransferred",
      "type": "event"
    },
    {
      "anonymous": false,
      "inputs": [
        {
          "indexed": true,
          "internalType": "uint256",
          "name": "tokenId",
          "type": "uint256"
        },
        {
          "indexed": true,
          "internalType": "address",
          "name": "seller",
          "type": "address"
        },
        {
          "indexed": false,
          "internalType": "uint256",
          "name": "price",
          "type": "uint256"
        }
      ],
      "name": "TicketListed",
      "type": "event"
    },
    {
      "anonymous": false,
      "inputs": [
        {
          "indexed": true,
          "internalType": "uint256",
          "name": "tokenId",
          "type": "uint256"
        },
        {
          "indexed": true,
          "internalType": "address",
          "name": "seller",
          "type": "address"
        }
      ],
      "name": "TicketListingCanceled",
      "type": "event"
    },
    {
      "anonymous": false,
      "inputs": [
        {
          "indexed": true,
          "internalType": "uint256",
          "name": "tokenId",
          "type": "uint256"
        },
        {
          "indexed": true,
          "internalType": "address",
          "name": "seller",
          "type": "address"
        },
        {
          "indexed": true,
          "internalType": "address",
          "name": "buyer",
          "type": "address"
        },
        {
          "indexed": false,
          "internalType": "uint256",
          "name": "price",
          "type": "uint256"
        }
      ],
      "name": "TicketSold",
      "type": "event"
    },
    {
      "anonymous": false,
      "inputs": [
        {
          "indexed": true,
          "internalType": "address",
          "name": "from",
          "type": "address"
        },
        {
          "indexed": true,
          "internalType": "address",
          "name": "to",
          "type": "address"
        },
        {
          "indexed": true,
          "internalType": "uint256",
          "name": "tokenId",
          "type": "uint256"
        }
      ],
      "name": "Transfer",
      "type": "event"
    },
    {
      "inputs": [
        {
          "internalType": "uint256",
          "name": "",
          "type": "uint256"
        }
      ],
      "name": "activities",
      "outputs": [
        {
          "internalType": "address",
          "name": "creator",
          "type": "address"
        },
        {
          "internalType": "uint256",
          "name": "deadline",
          "type": "uint256"
        },
        {
          "internalType": "string",
          "name": "content",
          "type": "string"
        },
        {
          "internalType": "uint256",
          "name": "initialPool",
          "type": "uint256"
        },
        {
          "internalType": "uint256",
          "name": "totalPool",
          "type": "uint256"
        },
        {
          "internalType": "bool",
          "name": "settled",
          "type": "bool"
        },
        {
          "internalType": "uint256",
          "name": "winningChoice",
          "type": "uint256"
        }
      ],
      "stateMutability": "view",
      "type": "function"
    },
    {
      "inputs": [
        {
          "internalType": "uint256",
          "name": "activityId",
          "type": "uint256"
        }
      ],
      "name": "activityExists",
      "outputs": [
        {
          "internalType": "bool",
          "name": "",
          "type": "bool"
        }
      ],
      "stateMutability": "view",
      "type": "function"
    },
    {
      "inputs": [
        {
          "internalType": "address",
          "name": "to",
          "type": "address"
        },
        {
          "internalType": "uint256",
          "name": "tokenId",
          "type": "uint256"
        }
      ],
      "name": "approve",
      "outputs": [],
      "stateMutability": "nonpayable",
      "type": "function"
    },
    {
      "inputs": [
        {
          "internalType": "address",
          "name": "owner",
          "type": "address"
        }
      ],
      "name": "balanceOf",
      "outputs": [
        {
          "internalType": "uint256",
          "name": "",
          "type": "uint256"
        }
      ],
      "stateMutability": "view",
      "type": "function"
    },
    {
      "inputs": [
        {
          "internalType": "uint256",
          "name": "tokenId",
          "type": "uint256"
        }
      ],
      "name": "buyListedTicket",
      "outputs": [],
      "stateMutability": "payable",
      "type": "function"
    },
    {
      "inputs": [
        {
          "internalType": "uint256",
          "name": "activityId",
          "type": "uint256"
        },
        {
          "internalType": "uint256",
          "name": "choiceIndex",
          "type": "uint256"
        }
      ],
      "name": "buyTicket",
      "outputs": [
        {
          "internalType": "uint256",
          "name": "",
          "type": "uint256"
        }
      ],
      "stateMutability": "payable",
      "type": "function"
    },
    {
      "inputs": [
        {
          "internalType": "uint256",
          "name": "tokenId",
          "type": "uint256"
        }
      ],
      "name": "cancelListing",
      "outputs": [],
      "stateMutability": "nonpayable",
      "type": "function"
    },
    {
      "inputs": [
        {
          "internalType": "string",
          "name": "content",
          "type": "string"
        },
        {
          "internalType": "string[]",
          "name": "choices",
          "type": "string[]"
        },
        {
          "internalType": "uint256",
          "name": "deadline",
          "type": "uint256"
        }
      ],
      "name": "createActivity",
      "outputs": [
        {
          "internalType": "uint256",
          "name": "",
          "type": "uint256"
        }
      ],
      "stateMutability": "payable",
      "type": "function"
    },
    {
      "inputs": [
        {
          "internalType": "address",
          "name": "creator",
          "type": "address"
        }
      ],
      "name": "getActivitiesByCreator",
      "outputs": [
        {
          "internalType": "uint256[]",
          "name": "",
          "type": "uint256[]"
        }
      ],
      "stateMutability": "view",
      "type": "function"
    },
    {
      "inputs": [
        {
          "internalType": "uint256",
          "name": "activityId",
          "type": "uint256"
        }
      ],
      "name": "getActivityDetail",
      "outputs": [
        {
          "internalType": "address",
          "name": "creator",
          "type": "address"
        },
        {
          "internalType": "uint256",
          "name": "deadline",
          "type": "uint256"
        },
        {
          "internalType": "string",
          "name": "content",
          "type": "string"
        },
        {
          "internalType": "string[]",
          "name": "choices",
          "type": "string[]"
        },
        {
          "internalType": "uint256",
          "name": "initialPool",
          "type": "uint256"
        },
        {
          "internalType": "uint256",
          "name": "totalPool",
          "type": "uint256"
        },
        {
          "internalType": "bool",
          "name": "settled",
          "type": "bool"
        },
        {
          "internalType": "uint256",
          "name": "winningChoice",
          "type": "uint256"
        },
        {
          "internalType": "uint256[]",
          "name": "choiceBetAmounts",
          "type": "uint256[]"
        }
      ],
      "stateMutability": "view",
      "type": "function"
    },
    {
      "inputs": [],
      "name": "getAllActivityIds",
      "outputs": [
        {
          "internalType": "uint256[]",
          "name": "ids",
          "type": "uint256[]"
        }
      ],
      "stateMutability": "view",
      "type": "function"
    },
    {
      "inputs": [],
      "name": "getAllListings",
      "outputs": [
        {
          "internalType": "uint256[]",
          "name": "tokenIds",
          "type": "uint256[]"
        },
        {
          "internalType": "address[]",
          "name": "sellers",
          "type": "address[]"
        },
        {
          "internalType": "uint256[]",
          "name": "prices",
          "type": "uint256[]"
        }
      ],
      "stateMutability": "view",
      "type": "function"
    },
    {
      "inputs": [
        {
          "internalType": "uint256",
          "name": "tokenId",
          "type": "uint256"
        }
      ],
      "name": "getApproved",
      "outputs": [
        {
          "internalType": "address",
          "name": "",
          "type": "address"
        }
      ],
      "stateMutability": "view",
      "type": "function"
    },
    {
      "inputs": [
        {
          "internalType": "address",
          "name": "owner",
          "type": "address"
        }
      ],
      "name": "getTicketsByOwner",
      "outputs": [
        {
          "internalType": "uint256[]",
          "name": "",
          "type": "uint256[]"
        }
      ],
      "stateMutability": "view",
      "type": "function"
    },
    {
      "inputs": [
        {
          "internalType": "address",
          "name": "owner",
          "type": "address"
        }
      ],
      "name": "getTicketsWithDetails",
      "outputs": [
        {
          "internalType": "uint256[]",
          "name": "tokenIds",
          "type": "uint256[]"
        },
        {
          "internalType": "uint256[]",
          "name": "activityIds",
          "type": "uint256[]"
        },
        {
          "internalType": "uint256[]",
          "name": "choiceIndices",
          "type": "uint256[]"
        },
        {
          "internalType": "uint256[]",
          "name": "amounts",
          "type": "uint256[]"
        },
        {
          "internalType": "bool[]",
          "name": "isListed",
          "type": "bool[]"
        },
        {
          "internalType": "uint256[]",
          "name": "listingPrices",
          "type": "uint256[]"
        }
      ],
      "stateMutability": "view",
      "type": "function"
    },
    {
      "inputs": [
        {
          "internalType": "address",
          "name": "owner",
          "type": "address"
        },
        {
          "internalType": "address",
          "name": "operator",
          "type": "address"
        }
      ],
      "name": "isApprovedForAll",
      "outputs": [
        {
          "internalType": "bool",
          "name": "",
          "type": "bool"
        }
      ],
      "stateMutability": "view",
      "type": "function"
    },
    {
      "inputs": [
        {
          "internalType": "uint256",
          "name": "tokenId",
          "type": "uint256"
        },
        {
          "internalType": "uint256",
          "name": "price",
          "type": "uint256"
        }
      ],
      "name": "listTicket",
      "outputs": [],
      "stateMutability": "nonpayable",
      "type": "function"
    },
    {
      "inputs": [
        {
          "internalType": "uint256",
          "name": "",
          "type": "uint256"
        }
      ],
      "name": "listings",
      "outputs": [
        {
          "internalType": "address",
          "name": "seller",
          "type": "address"
        },
        {
          "internalType": "uint256",
          "name": "price",
          "type": "uint256"
        },
        {
          "internalType": "bool",
          "name": "exists",
          "type": "bool"
        }
      ],
      "stateMutability": "view",
      "type": "function"
    },
    {
      "inputs": [],
      "name": "name",
      "outputs": [
        {
          "internalType": "string",
          "name": "",
          "type": "string"
        }
      ],
      "stateMutability": "view",
      "type": "function"
    },
    {
      "inputs": [],
      "name": "owner",
      "outputs": [
        {
          "internalType": "address",
          "name": "",
          "type": "address"
        }
      ],
      "stateMutability": "view",
      "type": "function"
    },
    {
      "inputs": [
        {
          "internalType": "uint256",
          "name": "tokenId",
          "type": "uint256"
        }
      ],
      "name": "ownerOf",
      "outputs": [
        {
          "internalType": "address",
          "name": "",
          "type": "address"
        }
      ],
      "stateMutability": "view",
      "type": "function"
    },
    {
      "inputs": [],
      "name": "renounceOwnership",
      "outputs": [],
      "stateMutability": "nonpayable",
      "type": "function"
    },
    {
      "inputs": [
        {
          "internalType": "address",
          "name": "from",
          "type": "address"
        },
        {
          "internalType": "address",
          "name": "to",
          "type": "address"
        },
        {
          "internalType": "uint256",
          "name": "tokenId",
          "type": "uint256"
        }
      ],
      "name": "safeTransferFrom",
      "outputs": [],
      "stateMutability": "nonpayable",
      "type": "function"
    },
    {
      "inputs": [
        {
          "internalType": "address",
          "name": "from",
          "type": "address"
        },
        {
          "internalType": "address",
          "name": "to",
          "type": "address"
        },
        {
          "internalType": "uint256",
          "name": "tokenId",
          "type": "uint256"
        },
        {
          "internalType": "bytes",
          "name": "data",
          "type": "bytes"
        }
      ],
      "name": "safeTransferFrom",
      "outputs": [],
      "stateMutability": "nonpayable",
      "type": "function"
    },
    {
      "inputs": [
        {
          "internalType": "address",
          "name": "operator",
          "type": "address"
        },
        {
          "internalType": "bool",
          "name": "approved",
          "type": "bool"
        }
      ],
      "name": "setApprovalForAll",
      "outputs": [],
      "stateMutability": "nonpayable",
      "type": "function"
    },
    {
      "inputs": [
        {
          "internalType": "uint256",
          "name": "activityId",
          "type": "uint256"
        },
        {
          "internalType": "uint256",
          "name": "winningChoice",
          "type": "uint256"
        }
      ],
      "name": "settleActivity",
      "outputs": [],
      "stateMutability": "nonpayable",
      "type": "function"
    },
    {
      "inputs": [
        {
          "internalType": "bytes4",
          "name": "interfaceId",
          "type": "bytes4"
        }
      ],
      "name": "supportsInterface",
      "outputs": [
        {
          "internalType": "bool",
          "name": "",
          "type": "bool"
        }
      ],
      "stateMutability": "view",
      "type": "function"
    },
    {
      "inputs": [],
      "name": "symbol",
      "outputs": [
        {
          "internalType": "string",
          "name": "",
          "type": "string"
        }
      ],
      "stateMutability": "view",
      "type": "function"
    },
    {
      "inputs": [
        {
          "internalType": "uint256",
          "name": "",
          "type": "uint256"
        }
      ],
      "name": "tickets",
      "outputs": [
        {
          "internalType": "uint256",
          "name": "activityId",
          "type": "uint256"
        },
        {
          "internalType": "uint256",
          "name": "choiceIndex",
          "type": "uint256"
        },
        {
          "internalType": "uint256",
          "name": "amount",
          "type": "uint256"
        }
      ],
      "stateMutability": "view",
      "type": "function"
    },
    {
      "inputs": [
        {
          "internalType": "uint256",
          "name": "tokenId",
          "type": "uint256"
        }
      ],
      "name": "tokenURI",
      "outputs": [
        {
          "internalType": "string",
          "name": "",
          "type": "string"
        }
      ],
      "stateMutability": "view",
      "type": "function"
    },
    {
      "inputs": [
        {
          "internalType": "address",
          "name": "from",
          "type": "address"
        },
        {
          "internalType": "address",
          "name": "to",
          "type": "address"
        },
        {
          "internalType": "uint256",
          "name": "tokenId",
          "type": "uint256"
        }
      ],
      "name": "transferFrom",
      "outputs": [],
      "stateMutability": "nonpayable",
      "type": "function"
    },
    {
      "inputs": [
        {
          "internalType": "address",
          "name": "newOwner",
          "type": "address"
        }
      ],
      "name": "transferOwnership",
      "outputs": [],
      "stateMutability": "nonpayable",
      "type": "function"
    },
    {
      "inputs": [
        {
          "internalType": "uint256",
          "name": "amount",
          "type": "uint256"
        }
      ],
      "name": "withdraw",
      "outputs": [],
      "stateMutability": "nonpayable",
      "type": "function"
    },
    {
      "stateMutability": "payable",
      "type": "receive"
    }
  ],
  "bytecode": "0x60806040523480156200001157600080fd5b50336040518060400160405280600d81526020016c11585cde50995d151a58dad95d609a1b8152506040518060400160405280600381526020016211509560ea1b8152508160009081620000669190620001b5565b506001620000758282620001b5565b5050506001600160a01b038116620000a757604051631e4fbdf760e01b81526000600482015260240160405180910390fd5b620000b281620000be565b50600160075562000281565b600680546001600160a01b038381166001600160a01b0319831681179093556040519116919082907f8be0079c531659141344cd1fd0a4f28419497f9722a3daafe3b4186f6b6457e090600090a35050565b634e487b7160e01b600052604160045260246000fd5b600181811c908216806200013b57607f821691505b6020821081036200015c57634e487b7160e01b600052602260045260246000fd5b50919050565b601f821115620001b057600081815260208120601f850160051c810160208610156200018b5750805b601f850160051c820191505b81811015620001ac5782815560010162000197565b5050505b505050565b81516001600160401b03811115620001d157620001d162000110565b620001e981620001e2845462000126565b8462000162565b602080601f831160018114620002215760008415620002085750858301515b600019600386901b1c1916600185901b178555620001ac565b600085815260208120601f198616915b82811015620002525788860151825594840194600190910190840162000231565b5085821015620002715787850151600019600388901b60f8161c191681555b5050505050600190811b01905550565b61388d80620002916000396000f3fe6080604052600436106101f25760003560e01c80636352211e1161010d57806395d89b41116100a0578063c87b56dd1161006f578063c87b56dd14610602578063cb26de1c14610622578063de74e57b14610635578063e985e9c5146106a5578063f2fde38b146106c557600080fd5b806395d89b4114610589578063a22cb4651461059e578063ae73ccec146105be578063b88d4fde146105e257600080fd5b80637130a7a8116100dc5780637130a7a814610521578063715018a6146105415780637789ae72146105565780638da5cb5b1461056b57600080fd5b80636352211e1461049457806367aa23e2146104b45780636f6c45d2146104e157806370a082311461050157600080fd5b80632e1a7d4d11610185578063502488531161015457806350248853146103c35780635075acbf146103d657806350b447121461040b578063561c7daf1461046257600080fd5b80632e1a7d4d14610343578063305a67a814610363578063305a905a1461038357806342842e0e146103a357600080fd5b80630d1657e8116101c15780630d1657e8146102af578063203746f2146102e257806323b872dd14610302578063298ec2081461032257600080fd5b806301ffc9a7146101fe57806306fdde0314610233578063081812fc14610255578063095ea7b31461028d57600080fd5b366101f957005b600080fd5b34801561020a57600080fd5b5061021e610219366004612f4f565b6106e5565b60405190151581526020015b60405180910390f35b34801561023f57600080fd5b50610248610737565b60405161022a9190612fbc565b34801561026157600080fd5b50610275610270366004612fcf565b6107c9565b6040516001600160a01b03909116815260200161022a565b34801561029957600080fd5b506102ad6102a8366004613004565b6107f2565b005b3480156102bb57600080fd5b506102cf6102ca366004612fcf565b610801565b60405161022a979695949392919061302e565b3480156102ee57600080fd5b506102ad6102fd36600461307b565b6108d5565b34801561030e57600080fd5b506102ad61031d36600461309d565b610c9e565b61033561033036600461307b565b610d29565b60405190815260200161022a565b34801561034f57600080fd5b506102ad61035e366004612fcf565b610fa6565b34801561036f57600080fd5b506102ad61037e366004612fcf565b611088565b34801561038f57600080fd5b506102ad61039e36600461307b565b611185565b3480156103af57600080fd5b506102ad6103be36600461309d565b6113b5565b6102ad6103d1366004612fcf565b6113d5565b3480156103e257600080fd5b506103f66103f1366004612fcf565b6115e3565b60405161022a99989796959493929190613114565b34801561041757600080fd5b50610447610426366004612fcf565b600b6020526000908152604090208054600182015460029092015490919083565b6040805193845260208401929092529082015260600161022a565b34801561046e57600080fd5b5061048261047d3660046131dc565b6118d9565b60405161022a969594939291906131f7565b3480156104a057600080fd5b506102756104af366004612fcf565b611c46565b3480156104c057600080fd5b506104d46104cf3660046131dc565b611c51565b60405161022a919061329f565b3480156104ed57600080fd5b506104d46104fc3660046131dc565b611cbd565b34801561050d57600080fd5b5061033561051c3660046131dc565b611dcb565b34801561052d57600080fd5b5061021e61053c366004612fcf565b611e13565b34801561054d57600080fd5b506102ad611e28565b34801561056257600080fd5b506104d4611e3c565b34801561057757600080fd5b506006546001600160a01b0316610275565b34801561059557600080fd5b50610248611ecf565b3480156105aa57600080fd5b506102ad6105b93660046132b2565b611ede565b3480156105ca57600080fd5b506105d3611ee9565b60405161022a939291906132ee565b3480156105ee57600080fd5b506102ad6105fd366004613377565b6120eb565b34801561060e57600080fd5b5061024861061d366004612fcf565b612103565b610335610630366004613452565b612178565b34801561064157600080fd5b5061067e610650366004612fcf565b600c602052600090815260409020805460018201546002909201546001600160a01b03909116919060ff1683565b604080516001600160a01b039094168452602084019290925215159082015260600161022a565b3480156106b157600080fd5b5061021e6106c036600461351e565b6123e1565b3480156106d157600080fd5b506102ad6106e03660046131dc565b61240f565b60006001600160e01b031982166380ac58cd60e01b148061071657506001600160e01b03198216635b5e139f60e01b145b8061073157506301ffc9a760e01b6001600160e01b03198316145b92915050565b60606000805461074690613551565b80601f016020809104026020016040519081016040528092919081815260200182805461077290613551565b80156107bf5780601f10610794576101008083540402835291602001916107bf565b820191906000526020600020905b8154815290600101906020018083116107a257829003601f168201915b5050505050905090565b60006107d48261244a565b506000828152600460205260409020546001600160a01b0316610731565b6107fd828233612483565b5050565b600a602052600090815260409020805460018201546003830180546001600160a01b0390931693919261083390613551565b80601f016020809104026020016040519081016040528092919081815260200182805461085f90613551565b80156108ac5780601f10610881576101008083540402835291602001916108ac565b820191906000526020600020905b81548152906001019060200180831161088f57829003601f168201915b5050506004840154600585015460078601546008909601549495919490935060ff909116915087565b6108dd612490565b6108e56124bd565b6108ee82611e13565b6109135760405162461bcd60e51b815260040161090a9061358b565b60405180910390fd5b6000828152600a60205260409020600781015460ff16156109715760405162461bcd60e51b81526020600482015260186024820152771058dd1a5d9a5d1e48185b1c9958591e481cd95d1d1b195960421b604482015260640161090a565b600281015482106109bd5760405162461bcd60e51b8152602060048201526016602482015275496e76616c69642077696e6e696e672063686f69636560501b604482015260640161090a565b60078101805460ff1916600117905560088101829055600080805b6006840154811015610a835760008460060182815481106109fb576109fb6135c2565b9060005260206000200154905085600b60008381526020019081526020016000206001015403610a70576000610a3082611c46565b90506001600160a01b03811615610a6e5784610a4b816135ee565b6000848152600b6020526040902060020154909650610a6b915085613607565b93505b505b5080610a7b816135ee565b9150506109d8565b50811580610a8f575080155b15610ae557600583015460408051868152600060208201529081019190915285907f0d3f998a216a1ff9da7f659fda7dd6bcbe030ccd695180040eb5c9af6d81eee29060600160405180910390a2505050610c94565b60005b6006840154811015610c46576000846006018281548110610b0b57610b0b6135c2565b9060005260206000200154905085600b60008381526020019081526020016000206001015403610c32576000610b4082611c46565b90506001600160a01b038116610b57575050610c34565b6000828152600b602052604081206002015460058801549091908690610b7e90849061361a565b610b889190613631565b90506000836001600160a01b03168260405160006040518083038185875af1925050503d8060008114610bd7576040519150601f19603f3d011682016040523d82523d6000602084013e610bdc565b606091505b5050905080610c2d5760405162461bcd60e51b815260206004820152601e60248201527f4661696c656420746f2073656e64207072697a6520746f2077696e6e65720000604482015260640161090a565b505050505b505b80610c3e816135ee565b915050610ae8565b50600583015460408051868152602081018590529081019190915285907f0d3f998a216a1ff9da7f659fda7dd6bcbe030ccd695180040eb5c9af6d81eee29060600160405180910390a25050505b6107fd6001600755565b6001600160a01b038216610cc857604051633250574960e11b81526000600482015260240161090a565b6000610cd58383336124e7565b9050836001600160a01b0316816001600160a01b031614610d23576040516364283d7b60e01b81526001600160a01b038086166004830152602482018490528216604482015260640161090a565b50505050565b6000610d3483611e13565b610d505760405162461bcd60e51b815260040161090a9061358b565b6000838152600a60205260409020600781015460ff1615610dae5760405162461bcd60e51b81526020600482015260186024820152771058dd1a5d9a5d1e48185b1c9958591e481cd95d1d1b195960421b604482015260640161090a565b80600101544210610df65760405162461bcd60e51b81526020600482015260126024820152711058dd1a5d9a5d1e481a185cc8195b99195960721b604482015260640161090a565b60028101548310610e405760405162461bcd60e51b8152602060048201526014602482015273092dcecc2d8d2c840c6d0ded2c6ca40d2dcc8caf60631b604482015260640161090a565b60003411610e9a5760405162461bcd60e51b815260206004820152602160248201527f42657420616d6f756e74206d7573742062652067726561746572207468616e206044820152600360fc1b606482015260840161090a565b600160086000828254610ead9190613607565b9091555050600854610ebf33826125c1565b604080516060810182528681526020808201878152348385018181526000878152600b8552958620945185559151600180860191909155915160029094019390935560068601805491820181558452922090910182905560098301805486908110610f2c57610f2c6135c2565b906000526020600020016000828254610f459190613607565b9250508190555034826005016000828254610f609190613607565b90915550506040513481523390869083907faea9f920c207b21afe471745229d28faca3030e42cb0369cd9f48474df3977629060200160405180910390a4949350505050565b610fae612490565b47811115610ffe5760405162461bcd60e51b815260206004820152601860248201527f4578636565647320636f6e74726163742062616c616e63650000000000000000604482015260640161090a565b604051600090339083908381818185875af1925050503d8060008114611040576040519150601f19603f3d011682016040523d82523d6000602084013e611045565b606091505b50509050806107fd5760405162461bcd60e51b815260206004820152600f60248201526e15da5d1a191c985dc819985a5b1959608a1b604482015260640161090a565b6000818152600c60205260409020600281015460ff166110d75760405162461bcd60e51b815260206004820152600a6024820152694e6f206c697374696e6760b01b604482015260640161090a565b80546001600160a01b031633146111295760405162461bcd60e51b815260206004820152601660248201527513db9b1e481cd95b1b195c8818d85b8818d85b98d95b60521b604482015260640161090a565b6000828152600c602052604080822080546001600160a01b031916815560018101839055600201805460ff1916905551339184917f0385add262f1fd6ca0c384da5b57cb2d0a777cfc153b9f50eb36454c780b9ca89190a35050565b3361118f83611c46565b6001600160a01b0316146111dc5760405162461bcd60e51b81526020600482015260146024820152732737ba103a3432903a34b1b5b2ba1037bbb732b960611b604482015260640161090a565b6000828152600b6020908152604080832054808452600a9092529091206007015460ff16156112625760405162461bcd60e51b815260206004820152602c60248201527f416374697669747920616c726561647920736574746c65642c2063616e6e6f7460448201526b081b1a5cdd081d1a58dad95d60a21b606482015260840161090a565b600082116112b25760405162461bcd60e51b815260206004820152601c60248201527f5072696365206d7573742062652067726561746572207468616e203000000000604482015260640161090a565b6112bc83336125db565b61131b5760405162461bcd60e51b815260206004820152602a60248201527f506c6561736520617070726f766520636f6e747261637420746f207472616e7360448201526919995c881d1a58dad95d60b21b606482015260840161090a565b60408051606081018252338082526020808301868152600184860181815260008a8152600c8552879020955186546001600160a01b0319166001600160a01b03909116178655915190850155516002909301805460ff191693151593909317909255915184815285917f22968ec3be3687b180f3544163a034b88d57b48159d9a7e9a1b610fdb2d05f8091015b60405180910390a3505050565b6113d0838383604051806020016040528060008152506120eb565b505050565b6113dd6124bd565b6000818152600c60205260409020600281015460ff1661142c5760405162461bcd60e51b815260206004820152600a6024820152694e6f206c697374696e6760b01b604482015260640161090a565b8060010154341461147f5760405162461bcd60e51b815260206004820181905260248201527f5061796d656e74206d75737420657175616c206c697374696e67207072696365604482015260640161090a565b80546001808301546000858152600c6020908152604080832080546001600160a01b03191681559485018390556002909401805460ff19169055835190810190935282526001600160a01b039092169133916114e090849084908890612626565b6000836001600160a01b03168260405160006040518083038185875af1925050503d806000811461152d576040519150601f19603f3d011682016040523d82523d6000602084013e611532565b606091505b50509050806115835760405162461bcd60e51b815260206004820152601960248201527f5472616e7366657220746f2073656c6c6572206661696c656400000000000000604482015260640161090a565b826001600160a01b0316846001600160a01b0316877f2bbc64d6afd28a753f6c5e4aaa894f1d684c44a0e080167eae104ac8505cfebd856040516115c991815260200190565b60405180910390a450505050506115e06001600755565b50565b60008060608060008060008060606115fa8a611e13565b6116165760405162461bcd60e51b815260040161090a9061358b565b60008a8152600a60205260409020805460018201546003830180546001600160a01b039093169c50909a509061164b90613551565b80601f016020809104026020016040519081016040528092919081815260200182805461167790613551565b80156116c45780601f10611699576101008083540402835291602001916116c4565b820191906000526020600020905b8154815290600101906020018083116116a757829003601f168201915b50505060048401546005850154600786015460088701546002880154969e50929b5090995060ff1697509550829150506001600160401b0381111561170b5761170b613361565b60405190808252806020026020018201604052801561173e57816020015b60608152602001906001900390816117295790505b50975060005b8181101561182457826002018181548110611761576117616135c2565b90600052602060002001805461177690613551565b80601f01602080910402602001604051908101604052809291908181526020018280546117a290613551565b80156117ef5780601f106117c4576101008083540402835291602001916117ef565b820191906000526020600020905b8154815290600101906020018083116117d257829003601f168201915b5050505050898281518110611806576118066135c2565b6020026020010181905250808061181c906135ee565b915050611744565b506009820154806001600160401b0381111561184257611842613361565b60405190808252806020026020018201604052801561186b578160200160208202803683370190505b50935060005b818110156118c85783600901818154811061188e5761188e6135c2565b90600052602060002001548582815181106118ab576118ab6135c2565b6020908102919091010152806118c0816135ee565b915050611871565b505050509193959799909294969850565b6001600160a01b0381166000908152600d602090815260408083208054825181850281018501909352808352606094859485948594859485949383018282801561194257602002820191906000526020600020905b81548152602001906001019080831161192e575b5050835193945083925050506001600160401b0381111561196557611965613361565b60405190808252806020026020018201604052801561198e578160200160208202803683370190505b509750806001600160401b038111156119a9576119a9613361565b6040519080825280602002602001820160405280156119d2578160200160208202803683370190505b509650806001600160401b038111156119ed576119ed613361565b604051908082528060200260200182016040528015611a16578160200160208202803683370190505b509550806001600160401b03811115611a3157611a31613361565b604051908082528060200260200182016040528015611a5a578160200160208202803683370190505b509450806001600160401b03811115611a7557611a75613361565b604051908082528060200260200182016040528015611a9e578160200160208202803683370190505b509350806001600160401b03811115611ab957611ab9613361565b604051908082528060200260200182016040528015611ae2578160200160208202803683370190505b50925060005b81811015611c3a576000838281518110611b0457611b046135c2565b602002602001015190506000600b60008381526020019081526020016000209050818b8481518110611b3857611b386135c2565b60200260200101818152505080600001548a8481518110611b5b57611b5b6135c2565b6020026020010181815250508060010154898481518110611b7e57611b7e6135c2565b6020026020010181815250508060020154888481518110611ba157611ba16135c2565b6020908102919091018101919091526000838152600c909152604090206002810154885160ff90911690899086908110611bdd57611bdd6135c2565b91151560209283029190910190910152600281015460ff16611c00576000611c06565b80600101545b878581518110611c1857611c186135c2565b6020026020010181815250505050508080611c32906135ee565b915050611ae8565b50505091939550919395565b60006107318261244a565b6001600160a01b0381166000908152600d6020908152604091829020805483518184028101840190945280845260609392830182828015611cb157602002820191906000526020600020905b815481526020019060010190808311611c9d575b50505050509050919050565b6060600060015b6009548111611d0e576000818152600a60205260409020546001600160a01b03808616911603611cfc5781611cf8816135ee565b9250505b80611d06816135ee565b915050611cc4565b506000816001600160401b03811115611d2957611d29613361565b604051908082528060200260200182016040528015611d52578160200160208202803683370190505b509050600060015b6009548111611dc1576000818152600a60205260409020546001600160a01b03808816911603611daf57808383611d90816135ee565b945081518110611da257611da26135c2565b6020026020010181815250505b80611db9816135ee565b915050611d5a565b5090949350505050565b60006001600160a01b038216611df7576040516322718ad960e21b81526000600482015260240161090a565b506001600160a01b031660009081526003602052604090205490565b60008082118015610731575050600954101590565b611e30612490565b611e3a6000612631565b565b60606009546001600160401b03811115611e5857611e58613361565b604051908082528060200260200182016040528015611e81578160200160208202803683370190505b50905060005b600954811015611ecb57611e9c816001613607565b828281518110611eae57611eae6135c2565b602090810291909101015280611ec3816135ee565b915050611e87565b5090565b60606001805461074690613551565b6107fd338383612683565b60608080600060015b6008548111611f35576000818152600c602052604090206002015460ff1615611f235781611f1f816135ee565b9250505b80611f2d816135ee565b915050611ef2565b50806001600160401b03811115611f4e57611f4e613361565b604051908082528060200260200182016040528015611f77578160200160208202803683370190505b509350806001600160401b03811115611f9257611f92613361565b604051908082528060200260200182016040528015611fbb578160200160208202803683370190505b509250806001600160401b03811115611fd657611fd6613361565b604051908082528060200260200182016040528015611fff578160200160208202803683370190505b509150600060015b60085481116120e3576000818152600c602052604090206002015460ff16156120d1578086838151811061203d5761203d6135c2565b6020908102919091018101919091526000828152600c909152604090205485516001600160a01b039091169086908490811061207b5761207b6135c2565b6001600160a01b039092166020928302919091018201526000828152600c909152604090206001015484518590849081106120b8576120b86135c2565b6020908102919091010152816120cd816135ee565b9250505b806120db816135ee565b915050612007565b505050909192565b6120f6848484610c9e565b610d23338585858561271a565b606061210e8261244a565b50600061212660408051602081019091526000815290565b905060008151116121465760405180602001604052806000815250612171565b8061215084612845565b604051602001612161929190613653565b6040516020818303038152906040525b9392505050565b6000612182612490565b846121c25760405162461bcd60e51b815260206004820152601060248201526f10dbdb9d195b9d081c995c5d5a5c995960821b604482015260640161090a565b60028310156122135760405162461bcd60e51b815260206004820152601d60248201527f4174206c656173742074776f206f7074696f6e73207265717569726564000000604482015260640161090a565b4282116122625760405162461bcd60e51b815260206004820152601e60248201527f446561646c696e65206d75737420626520696e20746865206675747572650000604482015260640161090a565b600034116122b25760405162461bcd60e51b815260206004820152601d60248201527f496e697469616c20706f6f6c206d7573742062652070726f7669646564000000604482015260640161090a565b6001600960008282546122c59190613607565b90915550506009546000818152600a6020526040902080546001600160a01b03191633178155600381016122fa888a836136c8565b506001810184905560005b8581101561237f5781600201878783818110612323576123236135c2565b90506020028101906123359190613787565b8254600181018455600093845260209093209092019161235591836136c8565b50600982018054600181018255600091825260208220015580612377816135ee565b915050612305565b5034600482018190556005820181905560078201805460ff19169055604080519182526020820186905283917fb224f3d19b56c8c5ff6fac8b40ada082b592179858271d14114a10e1864415a6910160405180910390a2509695505050505050565b6001600160a01b03918216600090815260056020908152604080832093909416825291909152205460ff1690565b612417612490565b6001600160a01b03811661244157604051631e4fbdf760e01b81526000600482015260240161090a565b6115e081612631565b6000818152600260205260408120546001600160a01b03168061073157604051637e27328960e01b81526004810184905260240161090a565b6113d083838360016128d7565b6006546001600160a01b03163314611e3a5760405163118cdaa760e01b815233600482015260240161090a565b6002600754036124e057604051633ee5aeb560e01b815260040160405180910390fd5b6002600755565b6000806124f58585856129dd565b6000858152600c602052604090206002015490915060ff1615612587576000848152600c6020526040812080546001600160a01b03191681556001810191909155600201805460ff191690556001600160a01b03811615612587576040516001600160a01b0382169085907f0385add262f1fd6ca0c384da5b57cb2d0a777cfc153b9f50eb36454c780b9ca890600090a35b6001600160a01b038116156125a0576125a08185612ad6565b6001600160a01b038516156125b9576125b98585612c1b565b949350505050565b6107fd828260405180602001604052806000815250612c6d565b6000806125e7846107c9565b9050306001600160a01b03821603612603576001915050610731565b61260d83306123e1565b1561261c576001915050610731565b5060009392505050565b6120f6848484612c85565b600680546001600160a01b038381166001600160a01b0319831681179093556040519116919082907f8be0079c531659141344cd1fd0a4f28419497f9722a3daafe3b4186f6b6457e090600090a35050565b6001600160a01b0382166126b557604051630b61174360e31b81526001600160a01b038316600482015260240161090a565b6001600160a01b03838116600081815260056020908152604080832094871680845294825291829020805460ff191686151590811790915591519182527f17307eab39ab6107e8899845ad3d59bd9653f200f220920489ca2b5937696c3191016113a8565b6001600160a01b0383163b1561283e57604051630a85bd0160e11b81526001600160a01b0384169063150b7a029061275c9088908890879087906004016137d4565b6020604051808303816000875af1925050508015612797575060408051601f3d908101601f1916820190925261279491810190613811565b60015b612800573d8080156127c5576040519150601f19603f3d011682016040523d82523d6000602084013e6127ca565b606091505b5080516000036127f857604051633250574960e11b81526001600160a01b038516600482015260240161090a565b805160208201fd5b6001600160e01b03198116630a85bd0160e11b1461283c57604051633250574960e11b81526001600160a01b038516600482015260240161090a565b505b5050505050565b6060600061285283612d35565b60010190506000816001600160401b0381111561287157612871613361565b6040519080825280601f01601f19166020018201604052801561289b576020820181803683370190505b5090508181016020015b600019016f181899199a1a9b1b9c1cb0b131b232b360811b600a86061a8153600a85049450846128a557509392505050565b80806128eb57506001600160a01b03821615155b156129ad5760006128fb8461244a565b90506001600160a01b038316158015906129275750826001600160a01b0316816001600160a01b031614155b801561293a575061293881846123e1565b155b156129635760405163a9fbf51f60e01b81526001600160a01b038416600482015260240161090a565b81156129ab5783856001600160a01b0316826001600160a01b03167f8c5be1e5ebec7d5bd14f71427d1e84f3dd0314c0f7b2291e5b200ac8c7c3b92560405160405180910390a45b505b5050600090815260046020526040902080546001600160a01b0319166001600160a01b0392909216919091179055565b6000828152600260205260408120546001600160a01b0390811690831615612a0a57612a0a818486612e0d565b6001600160a01b03811615612a4857612a276000856000806128d7565b6001600160a01b038116600090815260036020526040902080546000190190555b6001600160a01b03851615612a77576001600160a01b0385166000908152600360205260409020805460010190555b60008481526002602052604080822080546001600160a01b0319166001600160a01b0389811691821790925591518793918516917fddf252ad1be2c89b69c2b068fc378daa952ba7f163c4a11628f55a4df523b3ef91a4949350505050565b6000818152600e602052604081205490819003612af257505050565b6000612aff60018361382e565b6001600160a01b0385166000908152600d602052604081205491925090612b289060019061382e565b6001600160a01b0386166000908152600d602052604081208054929350909183908110612b5757612b576135c2565b90600052602060002001549050818314612bbf576001600160a01b0386166000908152600d60205260409020805482919085908110612b9857612b986135c2565b600091825260209091200155612baf836001613607565b6000828152600e60205260409020555b6001600160a01b0386166000908152600d60205260409020805480612be657612be6613841565b60019003818190600052602060002001600090559055600e600086815260200190815260200160002060009055505050505050565b6001600160a01b0382166000908152600d60209081526040822080546001808201835591845291909220810183905590612c56908290613607565b6000928352600e6020526040909220919091555050565b612c778383612e71565b6113d033600085858561271a565b6001600160a01b038216612caf57604051633250574960e11b81526000600482015260240161090a565b6000612cbd838360006124e7565b90506001600160a01b038116612ce957604051637e27328960e01b81526004810183905260240161090a565b836001600160a01b0316816001600160a01b031614610d23576040516364283d7b60e01b81526001600160a01b038086166004830152602482018490528216604482015260640161090a565b60008072184f03e93ff9f4daa797ed6e38ed64bf6a1f0160401b8310612d745772184f03e93ff9f4daa797ed6e38ed64bf6a1f0160401b830492506040015b6d04ee2d6d415b85acef81000000008310612da0576d04ee2d6d415b85acef8100000000830492506020015b662386f26fc100008310612dbe57662386f26fc10000830492506010015b6305f5e1008310612dd6576305f5e100830492506008015b6127108310612dea57612710830492506004015b60648310612dfc576064830492506002015b600a83106107315760010192915050565b612e18838383612ed6565b6113d0576001600160a01b038316612e4657604051637e27328960e01b81526004810182905260240161090a565b60405163177e802f60e01b81526001600160a01b03831660048201526024810182905260440161090a565b6001600160a01b038216612e9b57604051633250574960e11b81526000600482015260240161090a565b6000612ea9838360006124e7565b90506001600160a01b038116156113d0576040516339e3563760e11b81526000600482015260240161090a565b60006001600160a01b038316158015906125b95750826001600160a01b0316846001600160a01b03161480612f105750612f1084846123e1565b806125b95750506000908152600460205260409020546001600160a01b03908116911614919050565b6001600160e01b0319811681146115e057600080fd5b600060208284031215612f6157600080fd5b813561217181612f39565b60005b83811015612f87578181015183820152602001612f6f565b50506000910152565b60008151808452612fa8816020860160208601612f6c565b601f01601f19169290920160200192915050565b6020815260006121716020830184612f90565b600060208284031215612fe157600080fd5b5035919050565b80356001600160a01b0381168114612fff57600080fd5b919050565b6000806040838503121561301757600080fd5b61302083612fe8565b946020939093013593505050565b60018060a01b038816815286602082015260e06040820152600061305560e0830188612f90565b606083019690965250608081019390935290151560a083015260c0909101529392505050565b6000806040838503121561308e57600080fd5b50508035926020909101359150565b6000806000606084860312156130b257600080fd5b6130bb84612fe8565b92506130c960208501612fe8565b9150604084013590509250925092565b600081518084526020808501945080840160005b83811015613109578151875295820195908201906001016130ed565b509495945050505050565b6001600160a01b038a16815260208082018a9052610120604083018190526000916131418483018c612f90565b91508382036060850152818a518084528284019150828160051b850101838d0160005b8381101561319257601f19878403018552613180838351612f90565b94860194925090850190600101613164565b50508b60808801528a60a08801526131ae60c088018b15159052565b8860e08801528681036101008801526131c781896130d9565b955050505050509a9950505050505050505050565b6000602082840312156131ee57600080fd5b61217182612fe8565b60c08152600061320a60c08301896130d9565b60208382038185015261321d828a6130d9565b9150838203604085015261323182896130d9565b9150838203606085015261324582886130d9565b8481036080860152865180825282880193509082019060005b8181101561327c57845115158352938301939183019160010161325e565b505084810360a086015261329081876130d9565b9b9a5050505050505050505050565b60208152600061217160208301846130d9565b600080604083850312156132c557600080fd5b6132ce83612fe8565b9150602083013580151581146132e357600080fd5b809150509250929050565b60608152600061330160608301866130d9565b82810360208481019190915285518083528682019282019060005b818110156133415784516001600160a01b03168352938301939183019160010161331c565b5050848103604086015261335581876130d9565b98975050505050505050565b634e487b7160e01b600052604160045260246000fd5b6000806000806080858703121561338d57600080fd5b61339685612fe8565b93506133a460208601612fe8565b92506040850135915060608501356001600160401b03808211156133c757600080fd5b818701915087601f8301126133db57600080fd5b8135818111156133ed576133ed613361565b604051601f8201601f19908116603f0116810190838211818310171561341557613415613361565b816040528281528a602084870101111561342e57600080fd5b82602086016020830137600060208483010152809550505050505092959194509250565b60008060008060006060868803121561346a57600080fd5b85356001600160401b038082111561348157600080fd5b818801915088601f83011261349557600080fd5b8135818111156134a457600080fd5b8960208285010111156134b657600080fd5b6020928301975095509087013590808211156134d157600080fd5b818801915088601f8301126134e557600080fd5b8135818111156134f457600080fd5b8960208260051b850101111561350957600080fd5b96999598505060200195604001359392505050565b6000806040838503121561353157600080fd5b61353a83612fe8565b915061354860208401612fe8565b90509250929050565b600181811c9082168061356557607f821691505b60208210810361358557634e487b7160e01b600052602260045260246000fd5b50919050565b60208082526017908201527f416374697669747920646f6573206e6f74206578697374000000000000000000604082015260600190565b634e487b7160e01b600052603260045260246000fd5b634e487b7160e01b600052601160045260246000fd5b600060018201613600576136006135d8565b5060010190565b80820180821115610731576107316135d8565b8082028115828204841417610731576107316135d8565b60008261364e57634e487b7160e01b600052601260045260246000fd5b500490565b60008351613665818460208801612f6c565b835190830190613679818360208801612f6c565b01949350505050565b601f8211156113d057600081815260208120601f850160051c810160208610156136a95750805b601f850160051c820191505b8181101561283c578281556001016136b5565b6001600160401b038311156136df576136df613361565b6136f3836136ed8354613551565b83613682565b6000601f841160018114613727576000851561370f5750838201355b600019600387901b1c1916600186901b17835561283e565b600083815260209020601f19861690835b828110156137585786850135825560209485019460019092019101613738565b50868210156137755760001960f88860031b161c19848701351681555b505060018560011b0183555050505050565b6000808335601e1984360301811261379e57600080fd5b8301803591506001600160401b038211156137b857600080fd5b6020019150368190038213156137cd57600080fd5b9250929050565b6001600160a01b038581168252841660208201526040810183905260806060820181905260009061380790830184612f90565b9695505050505050565b60006020828403121561382357600080fd5b815161217181612f39565b81810381811115610731576107316135d8565b634e487b7160e01b600052603160045260246000fdfea2646970667358221220b77052a9026ea283d01ec8a8a8a5f8cb9a84bf2cdfea73b53a00568cbdcde30564736f6c63430008140033",
  "linkReferences": {},
  "deployedLinkReferences": {}
}