{
  "_format": "hh-sol-artifact-1",
  "contractName": "EasyBet",
  "sourceName": "contracts/EasyBet.sol",
  "abi": [
    {
      "inputs": [],
      "stateMutability": "nonpayable",
      "type": "constructor"
    },
    {
      "inputs": [
        {
          "internalType": "address",
          "name": "sender",
          "type": "address"
        },
        {
          "internalType": "uint256",
          "name": "tokenId",
          "type": "uint256"
        },
        {
          "internalType": "address",
          "name": "owner",
          "type": "address"
        }
      ],
      "name": "ERC721IncorrectOwner",
      "type": "error"
    },
    {
      "inputs": [
        {
          "internalType": "address",
          "name": "operator",
          "type": "address"
        },
        {
          "internalType": "uint256",
          "name": "tokenId",
          "type": "uint256"
        }
      ],
      "name": "ERC721InsufficientApproval",
      "type": "error"
    },
    {
      "inputs": [
        {
          "internalType": "address",
          "name": "approver",
          "type": "address"
        }
      ],
      "name": "ERC721InvalidApprover",
      "type": "error"
    },
    {
      "inputs": [
        {
          "internalType": "address",
          "name": "operator",
          "type": "address"
        }
      ],
      "name": "ERC721InvalidOperator",
      "type": "error"
    },
    {
      "inputs": [
        {
          "internalType": "address",
          "name": "owner",
          "type": "address"
        }
      ],
      "name": "ERC721InvalidOwner",
      "type": "error"
    },
    {
      "inputs": [
        {
          "internalType": "address",
          "name": "receiver",
          "type": "address"
        }
      ],
      "name": "ERC721InvalidReceiver",
      "type": "error"
    },
    {
      "inputs": [
        {
          "internalType": "address",
          "name": "sender",
          "type": "address"
        }
      ],
      "name": "ERC721InvalidSender",
      "type": "error"
    },
    {
      "inputs": [
        {
          "internalType": "uint256",
          "name": "tokenId",
          "type": "uint256"
        }
      ],
      "name": "ERC721NonexistentToken",
      "type": "error"
    },
    {
      "inputs": [
        {
          "internalType": "address",
          "name": "owner",
          "type": "address"
        }
      ],
      "name": "OwnableInvalidOwner",
      "type": "error"
    },
    {
      "inputs": [
        {
          "internalType": "address",
          "name": "account",
          "type": "address"
        }
      ],
      "name": "OwnableUnauthorizedAccount",
      "type": "error"
    },
    {
      "inputs": [],
      "name": "ReentrancyGuardReentrantCall",
      "type": "error"
    },
    {
      "anonymous": false,
      "inputs": [
        {
          "indexed": true,
          "internalType": "uint256",
          "name": "activityId",
          "type": "uint256"
        },
        {
          "indexed": false,
          "internalType": "uint256",
          "name": "initialPool",
          "type": "uint256"
        },
        {
          "indexed": false,
          "internalType": "uint256",
          "name": "deadline",
          "type": "uint256"
        }
      ],
      "name": "ActivityCreated",
      "type": "event"
    },
    {
      "anonymous": false,
      "inputs": [
        {
          "indexed": true,
          "internalType": "uint256",
          "name": "activityId",
          "type": "uint256"
        },
        {
          "indexed": false,
          "internalType": "uint256",
          "name": "winningChoice",
          "type": "uint256"
        },
        {
          "indexed": false,
          "internalType": "uint256",
          "name": "winnersCount",
          "type": "uint256"
        },
        {
          "indexed": false,
          "internalType": "uint256",
          "name": "totalPool",
          "type": "uint256"
        }
      ],
      "name": "ActivitySettled",
      "type": "event"
    },
    {
      "anonymous": false,
      "inputs": [
        {
          "indexed": true,
          "internalType": "address",
          "name": "owner",
          "type": "address"
        },
        {
          "indexed": true,
          "internalType": "address",
          "name": "approved",
          "type": "address"
        },
        {
          "indexed": true,
          "internalType": "uint256",
          "name": "tokenId",
          "type": "uint256"
        }
      ],
      "name": "Approval",
      "type": "event"
    },
    {
      "anonymous": false,
      "inputs": [
        {
          "indexed": true,
          "internalType": "address",
          "name": "owner",
          "type": "address"
        },
        {
          "indexed": true,
          "internalType": "address",
          "name": "operator",
          "type": "address"
        },
        {
          "indexed": false,
          "internalType": "bool",
          "name": "approved",
          "type": "bool"
        }
      ],
      "name": "ApprovalForAll",
      "type": "event"
    },
    {
      "anonymous": false,
      "inputs": [
        {
          "indexed": true,
          "internalType": "uint256",
          "name": "tokenId",
          "type": "uint256"
        },
        {
          "indexed": true,
          "internalType": "uint256",
          "name": "activityId",
          "type": "uint256"
        },
        {
          "indexed": false,
          "internalType": "uint256",
          "name": "price",
          "type": "uint256"
        },
        {
          "indexed": true,
          "internalType": "address",
          "name": "owner",
          "type": "address"
        }
      ],
      "name": "BetPlaced",
      "type": "event"
    },
    {
      "anonymous": false,
      "inputs": [
        {
          "indexed": true,
          "internalType": "address",
          "name": "previousOwner",
          "type": "address"
        },
        {
          "indexed": true,
          "internalType": "address",
          "name": "newOwner",
          "type": "address"
        }
      ],
      "name": "OwnershipTransferred",
      "type": "event"
    },
    {
      "anonymous": false,
      "inputs": [
        {
          "indexed": true,
          "internalType": "uint256",
          "name": "tokenId",
          "type": "uint256"
        },
        {
          "indexed": true,
          "internalType": "address",
          "name": "seller",
          "type": "address"
        },
        {
          "indexed": false,
          "internalType": "uint256",
          "name": "price",
          "type": "uint256"
        }
      ],
      "name": "TicketListed",
      "type": "event"
    },
    {
      "anonymous": false,
      "inputs": [
        {
          "indexed": true,
          "internalType": "uint256",
          "name": "tokenId",
          "type": "uint256"
        },
        {
          "indexed": true,
          "internalType": "address",
          "name": "seller",
          "type": "address"
        }
      ],
      "name": "TicketListingCanceled",
      "type": "event"
    },
    {
      "anonymous": false,
      "inputs": [
        {
          "indexed": true,
          "internalType": "uint256",
          "name": "tokenId",
          "type": "uint256"
        },
        {
          "indexed": true,
          "internalType": "address",
          "name": "seller",
          "type": "address"
        },
        {
          "indexed": true,
          "internalType": "address",
          "name": "buyer",
          "type": "address"
        },
        {
          "indexed": false,
          "internalType": "uint256",
          "name": "price",
          "type": "uint256"
        }
      ],
      "name": "TicketSold",
      "type": "event"
    },
    {
      "anonymous": false,
      "inputs": [
        {
          "indexed": true,
          "internalType": "address",
          "name": "from",
          "type": "address"
        },
        {
          "indexed": true,
          "internalType": "address",
          "name": "to",
          "type": "address"
        },
        {
          "indexed": true,
          "internalType": "uint256",
          "name": "tokenId",
          "type": "uint256"
        }
      ],
      "name": "Transfer",
      "type": "event"
    },
    {
      "inputs": [
        {
          "internalType": "uint256",
          "name": "",
          "type": "uint256"
        }
      ],
      "name": "activities",
      "outputs": [
        {
          "internalType": "address",
          "name": "creator",
          "type": "address"
        },
        {
          "internalType": "uint256",
          "name": "deadline",
          "type": "uint256"
        },
        {
          "internalType": "string",
          "name": "content",
          "type": "string"
        },
        {
          "internalType": "uint256",
          "name": "initialPool",
          "type": "uint256"
        },
        {
          "internalType": "uint256",
          "name": "totalPool",
          "type": "uint256"
        },
        {
          "internalType": "bool",
          "name": "settled",
          "type": "bool"
        },
        {
          "internalType": "uint256",
          "name": "winningChoice",
          "type": "uint256"
        }
      ],
      "stateMutability": "view",
      "type": "function"
    },
    {
      "inputs": [
        {
          "internalType": "uint256",
          "name": "activityId",
          "type": "uint256"
        }
      ],
      "name": "activityExists",
      "outputs": [
        {
          "internalType": "bool",
          "name": "",
          "type": "bool"
        }
      ],
      "stateMutability": "view",
      "type": "function"
    },
    {
      "inputs": [
        {
          "internalType": "address",
          "name": "to",
          "type": "address"
        },
        {
          "internalType": "uint256",
          "name": "tokenId",
          "type": "uint256"
        }
      ],
      "name": "approve",
      "outputs": [],
      "stateMutability": "nonpayable",
      "type": "function"
    },
    {
      "inputs": [
        {
          "internalType": "address",
          "name": "owner",
          "type": "address"
        }
      ],
      "name": "balanceOf",
      "outputs": [
        {
          "internalType": "uint256",
          "name": "",
          "type": "uint256"
        }
      ],
      "stateMutability": "view",
      "type": "function"
    },
    {
      "inputs": [
        {
          "internalType": "uint256",
          "name": "tokenId",
          "type": "uint256"
        }
      ],
      "name": "buyListedTicket",
      "outputs": [],
      "stateMutability": "payable",
      "type": "function"
    },
    {
      "inputs": [
        {
          "internalType": "uint256",
          "name": "activityId",
          "type": "uint256"
        },
        {
          "internalType": "uint256",
          "name": "choiceIndex",
          "type": "uint256"
        }
      ],
      "name": "buyTicket",
      "outputs": [
        {
          "internalType": "uint256",
          "name": "",
          "type": "uint256"
        }
      ],
      "stateMutability": "payable",
      "type": "function"
    },
    {
      "inputs": [
        {
          "internalType": "uint256",
          "name": "tokenId",
          "type": "uint256"
        }
      ],
      "name": "cancelListing",
      "outputs": [],
      "stateMutability": "nonpayable",
      "type": "function"
    },
    {
      "inputs": [
        {
          "internalType": "string",
          "name": "content",
          "type": "string"
        },
        {
          "internalType": "string[]",
          "name": "choices",
          "type": "string[]"
        },
        {
          "internalType": "uint256",
          "name": "deadline",
          "type": "uint256"
        }
      ],
      "name": "createActivity",
      "outputs": [
        {
          "internalType": "uint256",
          "name": "",
          "type": "uint256"
        }
      ],
      "stateMutability": "payable",
      "type": "function"
    },
    {
      "inputs": [
        {
          "internalType": "address",
          "name": "creator",
          "type": "address"
        }
      ],
      "name": "getActivitiesByCreator",
      "outputs": [
        {
          "internalType": "uint256[]",
          "name": "",
          "type": "uint256[]"
        }
      ],
      "stateMutability": "view",
      "type": "function"
    },
    {
      "inputs": [
        {
          "internalType": "uint256",
          "name": "activityId",
          "type": "uint256"
        }
      ],
      "name": "getActivityDetail",
      "outputs": [
        {
          "internalType": "address",
          "name": "creator",
          "type": "address"
        },
        {
          "internalType": "uint256",
          "name": "deadline",
          "type": "uint256"
        },
        {
          "internalType": "string",
          "name": "content",
          "type": "string"
        },
        {
          "internalType": "string[]",
          "name": "choices",
          "type": "string[]"
        },
        {
          "internalType": "uint256",
          "name": "initialPool",
          "type": "uint256"
        },
        {
          "internalType": "uint256",
          "name": "totalPool",
          "type": "uint256"
        },
        {
          "internalType": "bool",
          "name": "settled",
          "type": "bool"
        },
        {
          "internalType": "uint256",
          "name": "winningChoice",
          "type": "uint256"
        },
        {
          "internalType": "uint256[]",
          "name": "choiceBetAmounts",
          "type": "uint256[]"
        }
      ],
      "stateMutability": "view",
      "type": "function"
    },
    {
      "inputs": [],
      "name": "getAllActivityIds",
      "outputs": [
        {
          "internalType": "uint256[]",
          "name": "ids",
          "type": "uint256[]"
        }
      ],
      "stateMutability": "view",
      "type": "function"
    },
    {
      "inputs": [],
      "name": "getAllListings",
      "outputs": [
        {
          "internalType": "uint256[]",
          "name": "tokenIds",
          "type": "uint256[]"
        },
        {
          "internalType": "address[]",
          "name": "sellers",
          "type": "address[]"
        },
        {
          "internalType": "uint256[]",
          "name": "prices",
          "type": "uint256[]"
        }
      ],
      "stateMutability": "view",
      "type": "function"
    },
    {
      "inputs": [],
      "name": "getAllTrades",
      "outputs": [
        {
          "internalType": "uint256[]",
          "name": "tokenIds",
          "type": "uint256[]"
        },
        {
          "internalType": "address[]",
          "name": "sellers",
          "type": "address[]"
        },
        {
          "internalType": "address[]",
          "name": "buyers",
          "type": "address[]"
        },
        {
          "internalType": "uint256[]",
          "name": "prices",
          "type": "uint256[]"
        },
        {
          "internalType": "enum EasyBet.TradeStatus[]",
          "name": "statuses",
          "type": "uint8[]"
        }
      ],
      "stateMutability": "view",
      "type": "function"
    },
    {
      "inputs": [
        {
          "internalType": "uint256",
          "name": "tokenId",
          "type": "uint256"
        }
      ],
      "name": "getApproved",
      "outputs": [
        {
          "internalType": "address",
          "name": "",
          "type": "address"
        }
      ],
      "stateMutability": "view",
      "type": "function"
    },
    {
      "inputs": [
        {
          "internalType": "uint256",
          "name": "tokenId",
          "type": "uint256"
        }
      ],
      "name": "getListing",
      "outputs": [
        {
          "internalType": "address",
          "name": "seller",
          "type": "address"
        },
        {
          "internalType": "uint256",
          "name": "price",
          "type": "uint256"
        },
        {
          "internalType": "bool",
          "name": "exists",
          "type": "bool"
        }
      ],
      "stateMutability": "view",
      "type": "function"
    },
    {
      "inputs": [
        {
          "internalType": "address",
          "name": "owner",
          "type": "address"
        }
      ],
      "name": "getTicketsByOwner",
      "outputs": [
        {
          "internalType": "uint256[]",
          "name": "",
          "type": "uint256[]"
        }
      ],
      "stateMutability": "view",
      "type": "function"
    },
    {
      "inputs": [
        {
          "internalType": "address",
          "name": "owner",
          "type": "address"
        }
      ],
      "name": "getTicketsWithDetails",
      "outputs": [
        {
          "internalType": "uint256[]",
          "name": "tokenIds",
          "type": "uint256[]"
        },
        {
          "internalType": "uint256[]",
          "name": "activityIds",
          "type": "uint256[]"
        },
        {
          "internalType": "uint256[]",
          "name": "choiceIndices",
          "type": "uint256[]"
        },
        {
          "internalType": "uint256[]",
          "name": "amounts",
          "type": "uint256[]"
        },
        {
          "internalType": "bool[]",
          "name": "isListed",
          "type": "bool[]"
        },
        {
          "internalType": "uint256[]",
          "name": "listingPrices",
          "type": "uint256[]"
        }
      ],
      "stateMutability": "view",
      "type": "function"
    },
    {
      "inputs": [
        {
          "internalType": "uint256",
          "name": "tokenId",
          "type": "uint256"
        }
      ],
      "name": "getTrade",
      "outputs": [
        {
          "internalType": "address",
          "name": "seller",
          "type": "address"
        },
        {
          "internalType": "address",
          "name": "buyer",
          "type": "address"
        },
        {
          "internalType": "uint256",
          "name": "price",
          "type": "uint256"
        },
        {
          "internalType": "enum EasyBet.TradeStatus",
          "name": "status",
          "type": "uint8"
        }
      ],
      "stateMutability": "view",
      "type": "function"
    },
    {
      "inputs": [
        {
          "internalType": "address",
          "name": "owner",
          "type": "address"
        },
        {
          "internalType": "address",
          "name": "operator",
          "type": "address"
        }
      ],
      "name": "isApprovedForAll",
      "outputs": [
        {
          "internalType": "bool",
          "name": "",
          "type": "bool"
        }
      ],
      "stateMutability": "view",
      "type": "function"
    },
    {
      "inputs": [
        {
          "internalType": "uint256",
          "name": "activityId",
          "type": "uint256"
        },
        {
          "internalType": "address",
          "name": "user",
          "type": "address"
        }
      ],
      "name": "isParticipant",
      "outputs": [
        {
          "internalType": "bool",
          "name": "",
          "type": "bool"
        }
      ],
      "stateMutability": "view",
      "type": "function"
    },
    {
      "inputs": [
        {
          "internalType": "uint256",
          "name": "tokenId",
          "type": "uint256"
        },
        {
          "internalType": "uint256",
          "name": "price",
          "type": "uint256"
        }
      ],
      "name": "listTicket",
      "outputs": [],
      "stateMutability": "nonpayable",
      "type": "function"
    },
    {
      "inputs": [
        {
          "internalType": "uint256",
          "name": "",
          "type": "uint256"
        }
      ],
      "name": "listings",
      "outputs": [
        {
          "internalType": "address",
          "name": "seller",
          "type": "address"
        },
        {
          "internalType": "uint256",
          "name": "price",
          "type": "uint256"
        },
        {
          "internalType": "bool",
          "name": "exists",
          "type": "bool"
        }
      ],
      "stateMutability": "view",
      "type": "function"
    },
    {
      "inputs": [],
      "name": "name",
      "outputs": [
        {
          "internalType": "string",
          "name": "",
          "type": "string"
        }
      ],
      "stateMutability": "view",
      "type": "function"
    },
    {
      "inputs": [],
      "name": "owner",
      "outputs": [
        {
          "internalType": "address",
          "name": "",
          "type": "address"
        }
      ],
      "stateMutability": "view",
      "type": "function"
    },
    {
      "inputs": [
        {
          "internalType": "uint256",
          "name": "tokenId",
          "type": "uint256"
        }
      ],
      "name": "ownerOf",
      "outputs": [
        {
          "internalType": "address",
          "name": "",
          "type": "address"
        }
      ],
      "stateMutability": "view",
      "type": "function"
    },
    {
      "inputs": [],
      "name": "renounceOwnership",
      "outputs": [],
      "stateMutability": "nonpayable",
      "type": "function"
    },
    {
      "inputs": [
        {
          "internalType": "address",
          "name": "from",
          "type": "address"
        },
        {
          "internalType": "address",
          "name": "to",
          "type": "address"
        },
        {
          "internalType": "uint256",
          "name": "tokenId",
          "type": "uint256"
        }
      ],
      "name": "safeTransferFrom",
      "outputs": [],
      "stateMutability": "nonpayable",
      "type": "function"
    },
    {
      "inputs": [
        {
          "internalType": "address",
          "name": "from",
          "type": "address"
        },
        {
          "internalType": "address",
          "name": "to",
          "type": "address"
        },
        {
          "internalType": "uint256",
          "name": "tokenId",
          "type": "uint256"
        },
        {
          "internalType": "bytes",
          "name": "data",
          "type": "bytes"
        }
      ],
      "name": "safeTransferFrom",
      "outputs": [],
      "stateMutability": "nonpayable",
      "type": "function"
    },
    {
      "inputs": [
        {
          "internalType": "address",
          "name": "operator",
          "type": "address"
        },
        {
          "internalType": "bool",
          "name": "approved",
          "type": "bool"
        }
      ],
      "name": "setApprovalForAll",
      "outputs": [],
      "stateMutability": "nonpayable",
      "type": "function"
    },
    {
      "inputs": [
        {
          "internalType": "uint256",
          "name": "activityId",
          "type": "uint256"
        },
        {
          "internalType": "uint256",
          "name": "winningChoice",
          "type": "uint256"
        }
      ],
      "name": "settleActivity",
      "outputs": [],
      "stateMutability": "nonpayable",
      "type": "function"
    },
    {
      "inputs": [
        {
          "internalType": "bytes4",
          "name": "interfaceId",
          "type": "bytes4"
        }
      ],
      "name": "supportsInterface",
      "outputs": [
        {
          "internalType": "bool",
          "name": "",
          "type": "bool"
        }
      ],
      "stateMutability": "view",
      "type": "function"
    },
    {
      "inputs": [],
      "name": "symbol",
      "outputs": [
        {
          "internalType": "string",
          "name": "",
          "type": "string"
        }
      ],
      "stateMutability": "view",
      "type": "function"
    },
    {
      "inputs": [
        {
          "internalType": "uint256",
          "name": "",
          "type": "uint256"
        }
      ],
      "name": "tickets",
      "outputs": [
        {
          "internalType": "uint256",
          "name": "activityId",
          "type": "uint256"
        },
        {
          "internalType": "uint256",
          "name": "choiceIndex",
          "type": "uint256"
        },
        {
          "internalType": "uint256",
          "name": "amount",
          "type": "uint256"
        }
      ],
      "stateMutability": "view",
      "type": "function"
    },
    {
      "inputs": [
        {
          "internalType": "uint256",
          "name": "tokenId",
          "type": "uint256"
        }
      ],
      "name": "tokenURI",
      "outputs": [
        {
          "internalType": "string",
          "name": "",
          "type": "string"
        }
      ],
      "stateMutability": "view",
      "type": "function"
    },
    {
      "inputs": [
        {
          "internalType": "uint256",
          "name": "",
          "type": "uint256"
        }
      ],
      "name": "trades",
      "outputs": [
        {
          "internalType": "address",
          "name": "seller",
          "type": "address"
        },
        {
          "internalType": "address",
          "name": "buyer",
          "type": "address"
        },
        {
          "internalType": "uint256",
          "name": "price",
          "type": "uint256"
        },
        {
          "internalType": "enum EasyBet.TradeStatus",
          "name": "status",
          "type": "uint8"
        }
      ],
      "stateMutability": "view",
      "type": "function"
    },
    {
      "inputs": [
        {
          "internalType": "address",
          "name": "from",
          "type": "address"
        },
        {
          "internalType": "address",
          "name": "to",
          "type": "address"
        },
        {
          "internalType": "uint256",
          "name": "tokenId",
          "type": "uint256"
        }
      ],
      "name": "transferFrom",
      "outputs": [],
      "stateMutability": "nonpayable",
      "type": "function"
    },
    {
      "inputs": [
        {
          "internalType": "address",
          "name": "newOwner",
          "type": "address"
        }
      ],
      "name": "transferOwnership",
      "outputs": [],
      "stateMutability": "nonpayable",
      "type": "function"
    },
    {
      "inputs": [
        {
          "internalType": "uint256",
          "name": "amount",
          "type": "uint256"
        }
      ],
      "name": "withdraw",
      "outputs": [],
      "stateMutability": "nonpayable",
      "type": "function"
    },
    {
      "stateMutability": "payable",
      "type": "receive"
    }
  ],
  "bytecode": "0x60806040523480156200001157600080fd5b50336040518060400160405280600d81526020016c11585cde50995d151a58dad95d609a1b8152506040518060400160405280600381526020016211509560ea1b8152508160009081620000669190620001b5565b506001620000758282620001b5565b5050506001600160a01b038116620000a757604051631e4fbdf760e01b81526000600482015260240160405180910390fd5b620000b281620000be565b50600160075562000281565b600680546001600160a01b038381166001600160a01b0319831681179093556040519116919082907f8be0079c531659141344cd1fd0a4f28419497f9722a3daafe3b4186f6b6457e090600090a35050565b634e487b7160e01b600052604160045260246000fd5b600181811c908216806200013b57607f821691505b6020821081036200015c57634e487b7160e01b600052602260045260246000fd5b50919050565b601f821115620001b057600081815260208120601f850160051c810160208610156200018b5750805b601f850160051c820191505b81811015620001ac5782815560010162000197565b5050505b505050565b81516001600160401b03811115620001d157620001d162000110565b620001e981620001e2845462000126565b8462000162565b602080601f831160018114620002215760008415620002085750858301515b600019600386901b1c1916600185901b178555620001ac565b600085815260208120601f198616915b82811015620002525788860151825594840194600190910190840162000231565b5085821015620002715787850151600019600388901b60f8161c191681555b5050505050600190811b01905550565b61408d80620002916000396000f3fe6080604052600436106102295760003560e01c80636352211e1161012357806395d89b41116100ab578063cb26de1c1161006f578063cb26de1c146107a1578063ce99c0ce146107b4578063de74e57b146107da578063e985e9c514610823578063f2fde38b1461084357600080fd5b806395d89b4114610708578063a22cb4651461071d578063ae73ccec1461073d578063b88d4fde14610761578063c87b56dd1461078157600080fd5b80637130a7a8116100f25780637130a7a814610680578063715018a6146106a0578063758d9b89146106b55780637789ae72146106d55780638da5cb5b146106ea57600080fd5b80636352211e146105f357806367aa23e2146106135780636f6c45d21461064057806370a082311461066057600080fd5b8063298ec208116101b157806342842e0e1161017557806342842e0e1461050257806350248853146105225780635075acbf1461053557806350b447121461056a578063561c7daf146105c157600080fd5b8063298ec2081461042c5780632db25e051461044d5780632e1a7d4d146104a2578063305a67a8146104c2578063305a905a146104e257600080fd5b80630d1657e8116101f85780630d1657e8146102e6578063107a274a146103195780631e6c598e1461038a578063203746f2146103ec57806323b872dd1461040c57600080fd5b806301ffc9a71461023557806306fdde031461026a578063081812fc1461028c578063095ea7b3146102c457600080fd5b3661023057005b600080fd5b34801561024157600080fd5b5061025561025036600461362f565b610863565b60405190151581526020015b60405180910390f35b34801561027657600080fd5b5061027f6108b5565b604051610261919061369c565b34801561029857600080fd5b506102ac6102a73660046136af565b610947565b6040516001600160a01b039091168152602001610261565b3480156102d057600080fd5b506102e46102df3660046136e4565b610970565b005b3480156102f257600080fd5b506103066103013660046136af565b61097f565b604051610261979695949392919061370e565b34801561032557600080fd5b506103636103343660046136af565b6000908152600c60205260409020805460018201546002909201546001600160a01b039091169260ff90911690565b604080516001600160a01b0390941684526020840192909252151590820152606001610261565b34801561039657600080fd5b506103dc6103a53660046136af565b600d6020526000908152604090208054600182015460028301546003909301546001600160a01b0392831693919092169160ff1684565b6040516102619493929190613793565b3480156103f857600080fd5b506102e46104073660046137bf565b610a53565b34801561041857600080fd5b506102e46104273660046137e1565b610e1c565b61043f61043a3660046137bf565b610ea7565b604051908152602001610261565b34801561045957600080fd5b506103dc6104683660046136af565b6000908152600d602052604090208054600182015460028301546003909301546001600160a01b039283169492909116929160ff90911690565b3480156104ae57600080fd5b506102e46104bd3660046136af565b611124565b3480156104ce57600080fd5b506102e46104dd3660046136af565b611206565b3480156104ee57600080fd5b506102e46104fd3660046137bf565b61135d565b34801561050e57600080fd5b506102e461051d3660046137e1565b611627565b6102e46105303660046136af565b611647565b34801561054157600080fd5b506105556105503660046136af565b61188e565b60405161026199989796959493929190613858565b34801561057657600080fd5b506105a66105853660046136af565b600b6020526000908152604090208054600182015460029092015490919083565b60408051938452602084019290925290820152606001610261565b3480156105cd57600080fd5b506105e16105dc366004613920565b611b84565b6040516102619695949392919061393b565b3480156105ff57600080fd5b506102ac61060e3660046136af565b611ef1565b34801561061f57600080fd5b5061063361062e366004613920565b611efc565b60405161026191906139e3565b34801561064c57600080fd5b5061063361065b366004613920565b611f68565b34801561066c57600080fd5b5061043f61067b366004613920565b612076565b34801561068c57600080fd5b5061025561069b3660046136af565b6120be565b3480156106ac57600080fd5b506102e46120d3565b3480156106c157600080fd5b506102556106d03660046139f6565b6120e7565b3480156106e157600080fd5b506106336121ab565b3480156106f657600080fd5b506006546001600160a01b03166102ac565b34801561071457600080fd5b5061027f61223e565b34801561072957600080fd5b506102e4610738366004613a22565b61224d565b34801561074957600080fd5b50610752612258565b60405161026193929190613a97565b34801561076d57600080fd5b506102e461077c366004613af0565b61245a565b34801561078d57600080fd5b5061027f61079c3660046136af565b612472565b61043f6107af366004613bcb565b6124e7565b3480156107c057600080fd5b506107c9612752565b604051610261959493929190613c97565b3480156107e657600080fd5b506103636107f53660046136af565b600c602052600090815260409020805460018201546002909201546001600160a01b03909116919060ff1683565b34801561082f57600080fd5b5061025561083e366004613d31565b612aa6565b34801561084f57600080fd5b506102e461085e366004613920565b612ad4565b60006001600160e01b031982166380ac58cd60e01b148061089457506001600160e01b03198216635b5e139f60e01b145b806108af57506301ffc9a760e01b6001600160e01b03198316145b92915050565b6060600080546108c490613d5b565b80601f01602080910402602001604051908101604052809291908181526020018280546108f090613d5b565b801561093d5780601f106109125761010080835404028352916020019161093d565b820191906000526020600020905b81548152906001019060200180831161092057829003601f168201915b5050505050905090565b600061095282612b0f565b506000828152600460205260409020546001600160a01b03166108af565b61097b828233612b48565b5050565b600a602052600090815260409020805460018201546003830180546001600160a01b039093169391926109b190613d5b565b80601f01602080910402602001604051908101604052809291908181526020018280546109dd90613d5b565b8015610a2a5780601f106109ff57610100808354040283529160200191610a2a565b820191906000526020600020905b815481529060010190602001808311610a0d57829003601f168201915b5050506004840154600585015460078601546008909601549495919490935060ff909116915087565b610a5b612b55565b610a63612b82565b610a6c826120be565b610a915760405162461bcd60e51b8152600401610a8890613d95565b60405180910390fd5b6000828152600a60205260409020600781015460ff1615610aef5760405162461bcd60e51b81526020600482015260186024820152771058dd1a5d9a5d1e48185b1c9958591e481cd95d1d1b195960421b6044820152606401610a88565b60028101548210610b3b5760405162461bcd60e51b8152602060048201526016602482015275496e76616c69642077696e6e696e672063686f69636560501b6044820152606401610a88565b60078101805460ff1916600117905560088101829055600080805b6006840154811015610c01576000846006018281548110610b7957610b79613dcc565b9060005260206000200154905085600b60008381526020019081526020016000206001015403610bee576000610bae82611ef1565b90506001600160a01b03811615610bec5784610bc981613df8565b6000848152600b6020526040902060020154909650610be9915085613e11565b93505b505b5080610bf981613df8565b915050610b56565b50811580610c0d575080155b15610c6357600583015460408051868152600060208201529081019190915285907f0d3f998a216a1ff9da7f659fda7dd6bcbe030ccd695180040eb5c9af6d81eee29060600160405180910390a2505050610e12565b60005b6006840154811015610dc4576000846006018281548110610c8957610c89613dcc565b9060005260206000200154905085600b60008381526020019081526020016000206001015403610db0576000610cbe82611ef1565b90506001600160a01b038116610cd5575050610db2565b6000828152600b602052604081206002015460058801549091908690610cfc908490613e24565b610d069190613e3b565b90506000836001600160a01b03168260405160006040518083038185875af1925050503d8060008114610d55576040519150601f19603f3d011682016040523d82523d6000602084013e610d5a565b606091505b5050905080610dab5760405162461bcd60e51b815260206004820152601e60248201527f4661696c656420746f2073656e64207072697a6520746f2077696e6e657200006044820152606401610a88565b505050505b505b80610dbc81613df8565b915050610c66565b50600583015460408051868152602081018590529081019190915285907f0d3f998a216a1ff9da7f659fda7dd6bcbe030ccd695180040eb5c9af6d81eee29060600160405180910390a25050505b61097b6001600755565b6001600160a01b038216610e4657604051633250574960e11b815260006004820152602401610a88565b6000610e53838333612bac565b9050836001600160a01b0316816001600160a01b031614610ea1576040516364283d7b60e01b81526001600160a01b0380861660048301526024820184905282166044820152606401610a88565b50505050565b6000610eb2836120be565b610ece5760405162461bcd60e51b8152600401610a8890613d95565b6000838152600a60205260409020600781015460ff1615610f2c5760405162461bcd60e51b81526020600482015260186024820152771058dd1a5d9a5d1e48185b1c9958591e481cd95d1d1b195960421b6044820152606401610a88565b80600101544210610f745760405162461bcd60e51b81526020600482015260126024820152711058dd1a5d9a5d1e481a185cc8195b99195960721b6044820152606401610a88565b60028101548310610fbe5760405162461bcd60e51b8152602060048201526014602482015273092dcecc2d8d2c840c6d0ded2c6ca40d2dcc8caf60631b6044820152606401610a88565b600034116110185760405162461bcd60e51b815260206004820152602160248201527f42657420616d6f756e74206d7573742062652067726561746572207468616e206044820152600360fc1b6064820152608401610a88565b60016008600082825461102b9190613e11565b909155505060085461103d3382612ca1565b604080516060810182528681526020808201878152348385018181526000878152600b85529586209451855591516001808601919091559151600290940193909355600686018054918201815584529220909101829055600983018054869081106110aa576110aa613dcc565b9060005260206000200160008282546110c39190613e11565b92505081905550348260050160008282546110de9190613e11565b90915550506040513481523390869083907faea9f920c207b21afe471745229d28faca3030e42cb0369cd9f48474df3977629060200160405180910390a4949350505050565b61112c612b55565b4781111561117c5760405162461bcd60e51b815260206004820152601860248201527f4578636565647320636f6e74726163742062616c616e636500000000000000006044820152606401610a88565b604051600090339083908381818185875af1925050503d80600081146111be576040519150601f19603f3d011682016040523d82523d6000602084013e6111c3565b606091505b505090508061097b5760405162461bcd60e51b815260206004820152600f60248201526e15da5d1a191c985dc819985a5b1959608a1b6044820152606401610a88565b6000818152600c60205260409020600281015460ff166112555760405162461bcd60e51b815260206004820152600a6024820152694e6f206c697374696e6760b01b6044820152606401610a88565b80546001600160a01b031633146112a75760405162461bcd60e51b815260206004820152601660248201527513db9b1e481cd95b1b195c8818d85b8818d85b98d95b60521b6044820152606401610a88565b6001808201546000848152600c6020908152604080832080546001600160a01b03191681559485018390556002909401805460ff19169055600d90529190912080546001600160a01b03166113075780546001600160a01b031916331781555b806002015460000361131b57600281018290555b60038101805460ff19166002179055604051339085907f0385add262f1fd6ca0c384da5b57cb2d0a777cfc153b9f50eb36454c780b9ca890600090a350505050565b3361136783611ef1565b6001600160a01b0316146113b45760405162461bcd60e51b81526020600482015260146024820152732737ba103a3432903a34b1b5b2ba1037bbb732b960611b6044820152606401610a88565b6000828152600b6020908152604080832054808452600a9092529091206007015460ff161561143a5760405162461bcd60e51b815260206004820152602c60248201527f416374697669747920616c726561647920736574746c65642c2063616e6e6f7460448201526b081b1a5cdd081d1a58dad95d60a21b6064820152608401610a88565b6000821161148a5760405162461bcd60e51b815260206004820152601c60248201527f5072696365206d7573742062652067726561746572207468616e2030000000006044820152606401610a88565b6114948333612cbb565b6114f35760405162461bcd60e51b815260206004820152602a60248201527f506c6561736520617070726f766520636f6e747261637420746f207472616e7360448201526919995c881d1a58dad95d60b21b6064820152608401610a88565b6040805160608082018352338083526020808401878152600185870181815260008b8152600c8552888120975188546001600160a01b0319166001600160a01b03909116178855925187830155516002909601805460ff1916961515969096179095558551608081018752928352908201529283018590528201526000848152600d6020908152604091829020835181546001600160a01b039182166001600160a01b0319918216178355928501516001808401805492909316919094161790559183015160028301556060830151600380840180549293909260ff19169184908111156115e3576115e361375b565b02179055505060405183815233915084907f22968ec3be3687b180f3544163a034b88d57b48159d9a7e9a1b610fdb2d05f80906020015b60405180910390a3505050565b6116428383836040518060200160405280600081525061245a565b505050565b61164f612b82565b6000818152600c60205260409020600281015460ff1661169e5760405162461bcd60e51b815260206004820152600a6024820152694e6f206c697374696e6760b01b6044820152606401610a88565b806001015434146116f15760405162461bcd60e51b815260206004820181905260248201527f5061796d656e74206d75737420657175616c206c697374696e672070726963656044820152606401610a88565b80546001808301546000858152600d6020908152604080832080546001600160a01b03199081166001600160a01b039098169788178255818701805482163390811790915560028084018890556003808501805460ff199081169092179055600c875285882080549094168455988301879055919091018054909716909655815192830190915291815261178a90859085908990612d06565b6000846001600160a01b03168360405160006040518083038185875af1925050503d80600081146117d7576040519150601f19603f3d011682016040523d82523d6000602084013e6117dc565b606091505b505090508061182d5760405162461bcd60e51b815260206004820152601960248201527f5472616e7366657220746f2073656c6c6572206661696c6564000000000000006044820152606401610a88565b836001600160a01b0316856001600160a01b0316887f2bbc64d6afd28a753f6c5e4aaa894f1d684c44a0e080167eae104ac8505cfebd8660405161187391815260200190565b60405180910390a450505050505061188b6001600755565b50565b60008060608060008060008060606118a58a6120be565b6118c15760405162461bcd60e51b8152600401610a8890613d95565b60008a8152600a60205260409020805460018201546003830180546001600160a01b039093169c50909a50906118f690613d5b565b80601f016020809104026020016040519081016040528092919081815260200182805461192290613d5b565b801561196f5780601f106119445761010080835404028352916020019161196f565b820191906000526020600020905b81548152906001019060200180831161195257829003601f168201915b50505060048401546005850154600786015460088701546002880154969e50929b5090995060ff1697509550829150506001600160401b038111156119b6576119b6613ada565b6040519080825280602002602001820160405280156119e957816020015b60608152602001906001900390816119d45790505b50975060005b81811015611acf57826002018181548110611a0c57611a0c613dcc565b906000526020600020018054611a2190613d5b565b80601f0160208091040260200160405190810160405280929190818152602001828054611a4d90613d5b565b8015611a9a5780601f10611a6f57610100808354040283529160200191611a9a565b820191906000526020600020905b815481529060010190602001808311611a7d57829003601f168201915b5050505050898281518110611ab157611ab1613dcc565b60200260200101819052508080611ac790613df8565b9150506119ef565b506009820154806001600160401b03811115611aed57611aed613ada565b604051908082528060200260200182016040528015611b16578160200160208202803683370190505b50935060005b81811015611b7357836009018181548110611b3957611b39613dcc565b9060005260206000200154858281518110611b5657611b56613dcc565b602090810291909101015280611b6b81613df8565b915050611b1c565b505050509193959799909294969850565b6001600160a01b0381166000908152600e6020908152604080832080548251818502810185019093528083526060948594859485948594859493830182828015611bed57602002820191906000526020600020905b815481526020019060010190808311611bd9575b5050835193945083925050506001600160401b03811115611c1057611c10613ada565b604051908082528060200260200182016040528015611c39578160200160208202803683370190505b509750806001600160401b03811115611c5457611c54613ada565b604051908082528060200260200182016040528015611c7d578160200160208202803683370190505b509650806001600160401b03811115611c9857611c98613ada565b604051908082528060200260200182016040528015611cc1578160200160208202803683370190505b509550806001600160401b03811115611cdc57611cdc613ada565b604051908082528060200260200182016040528015611d05578160200160208202803683370190505b509450806001600160401b03811115611d2057611d20613ada565b604051908082528060200260200182016040528015611d49578160200160208202803683370190505b509350806001600160401b03811115611d6457611d64613ada565b604051908082528060200260200182016040528015611d8d578160200160208202803683370190505b50925060005b81811015611ee5576000838281518110611daf57611daf613dcc565b602002602001015190506000600b60008381526020019081526020016000209050818b8481518110611de357611de3613dcc565b60200260200101818152505080600001548a8481518110611e0657611e06613dcc565b6020026020010181815250508060010154898481518110611e2957611e29613dcc565b6020026020010181815250508060020154888481518110611e4c57611e4c613dcc565b6020908102919091018101919091526000838152600c909152604090206002810154885160ff90911690899086908110611e8857611e88613dcc565b91151560209283029190910190910152600281015460ff16611eab576000611eb1565b80600101545b878581518110611ec357611ec3613dcc565b6020026020010181815250505050508080611edd90613df8565b915050611d93565b50505091939550919395565b60006108af82612b0f565b6001600160a01b0381166000908152600e6020908152604091829020805483518184028101840190945280845260609392830182828015611f5c57602002820191906000526020600020905b815481526020019060010190808311611f48575b50505050509050919050565b6060600060015b6009548111611fb9576000818152600a60205260409020546001600160a01b03808616911603611fa75781611fa381613df8565b9250505b80611fb181613df8565b915050611f6f565b506000816001600160401b03811115611fd457611fd4613ada565b604051908082528060200260200182016040528015611ffd578160200160208202803683370190505b509050600060015b600954811161206c576000818152600a60205260409020546001600160a01b0380881691160361205a5780838361203b81613df8565b94508151811061204d5761204d613dcc565b6020026020010181815250505b8061206481613df8565b915050612005565b5090949350505050565b60006001600160a01b0382166120a2576040516322718ad960e21b815260006004820152602401610a88565b506001600160a01b031660009081526003602052604090205490565b600080821180156108af575050600954101590565b6120db612b55565b6120e56000612d11565b565b60006120f2836120be565b61210e5760405162461bcd60e51b8152600401610a8890613d95565b6000838152600a60205260408120905b60068201548110156121a057600082600601828154811061214157612141613dcc565b90600052602060002001549050846001600160a01b031661216182611ef1565b6001600160a01b031614801561217c5750600783015460ff16155b1561218d57600193505050506108af565b508061219881613df8565b91505061211e565b506000949350505050565b60606009546001600160401b038111156121c7576121c7613ada565b6040519080825280602002602001820160405280156121f0578160200160208202803683370190505b50905060005b60095481101561223a5761220b816001613e11565b82828151811061221d5761221d613dcc565b60209081029190910101528061223281613df8565b9150506121f6565b5090565b6060600180546108c490613d5b565b61097b338383612d63565b60608080600060015b60085481116122a4576000818152600c602052604090206002015460ff1615612292578161228e81613df8565b9250505b8061229c81613df8565b915050612261565b50806001600160401b038111156122bd576122bd613ada565b6040519080825280602002602001820160405280156122e6578160200160208202803683370190505b509350806001600160401b0381111561230157612301613ada565b60405190808252806020026020018201604052801561232a578160200160208202803683370190505b509250806001600160401b0381111561234557612345613ada565b60405190808252806020026020018201604052801561236e578160200160208202803683370190505b509150600060015b6008548111612452576000818152600c602052604090206002015460ff161561244057808683815181106123ac576123ac613dcc565b6020908102919091018101919091526000828152600c909152604090205485516001600160a01b03909116908690849081106123ea576123ea613dcc565b6001600160a01b039092166020928302919091018201526000828152600c9091526040902060010154845185908490811061242757612427613dcc565b60209081029190910101528161243c81613df8565b9250505b8061244a81613df8565b915050612376565b505050909192565b612465848484610e1c565b610ea13385858585612dfa565b606061247d82612b0f565b50600061249560408051602081019091526000815290565b905060008151116124b557604051806020016040528060008152506124e0565b806124bf84612f25565b6040516020016124d0929190613e5d565b6040516020818303038152906040525b9392505050565b60006124f1612b55565b846125315760405162461bcd60e51b815260206004820152601060248201526f10dbdb9d195b9d081c995c5d5a5c995960821b6044820152606401610a88565b60028310156125825760405162461bcd60e51b815260206004820152601d60248201527f4174206c656173742074776f206f7074696f6e732072657175697265640000006044820152606401610a88565b4282116125d15760405162461bcd60e51b815260206004820152601e60248201527f446561646c696e65206d75737420626520696e207468652066757475726500006044820152606401610a88565b600034116126215760405162461bcd60e51b815260206004820152601d60248201527f496e697469616c20706f6f6c206d7573742062652070726f76696465640000006044820152606401610a88565b6001600960008282546126349190613e11565b90915550506009546000818152600a6020526040902080546001600160a01b0319163317815560038101612669888a83613ed2565b506001810184905560005b858110156126ee578160020187878381811061269257612692613dcc565b90506020028101906126a49190613f91565b825460018101845560009384526020909320909201916126c49183613ed2565b506009820180546001810182556000918252602082200155806126e681613df8565b915050612674565b5034600482018190556005820181905560078201805460ff19169055604080519182526020820186905283917fb224f3d19b56c8c5ff6fac8b40ada082b592179858271d14114a10e1864415a6910160405180910390a25090505b95945050505050565b606080808080600060015b60085481116127b2576000818152600d6020526040812060039081015460ff169081111561278d5761278d61375b565b146127a0578161279c81613df8565b9250505b806127aa81613df8565b91505061275d565b50806001600160401b038111156127cb576127cb613ada565b6040519080825280602002602001820160405280156127f4578160200160208202803683370190505b509550806001600160401b0381111561280f5761280f613ada565b604051908082528060200260200182016040528015612838578160200160208202803683370190505b509450806001600160401b0381111561285357612853613ada565b60405190808252806020026020018201604052801561287c578160200160208202803683370190505b509350806001600160401b0381111561289757612897613ada565b6040519080825280602002602001820160405280156128c0578160200160208202803683370190505b509250806001600160401b038111156128db576128db613ada565b604051908082528060200260200182016040528015612904578160200160208202803683370190505b509150600060015b6008548111612a9c576000818152600d6020526040812060039081015460ff169081111561293c5761293c61375b565b14612a8a578088838151811061295457612954613dcc565b6020908102919091018101919091526000828152600d909152604090205487516001600160a01b039091169088908490811061299257612992613dcc565b6001600160a01b039283166020918202929092018101919091526000838152600d909152604090206001015487519116908790849081106129d5576129d5613dcc565b6001600160a01b039092166020928302919091018201526000828152600d90915260409020600201548551869084908110612a1257612a12613dcc565b6020908102919091018101919091526000828152600d9091526040902060030154845160ff90911690859084908110612a4d57612a4d613dcc565b60200260200101906003811115612a6657612a6661375b565b90816003811115612a7957612a7961375b565b90525081612a8681613df8565b9250505b80612a9481613df8565b91505061290c565b5050509091929394565b6001600160a01b03918216600090815260056020908152604080832093909416825291909152205460ff1690565b612adc612b55565b6001600160a01b038116612b0657604051631e4fbdf760e01b815260006004820152602401610a88565b61188b81612d11565b6000818152600260205260408120546001600160a01b0316806108af57604051637e27328960e01b815260048101849052602401610a88565b6116428383836001612fb7565b6006546001600160a01b031633146120e55760405163118cdaa760e01b8152336004820152602401610a88565b600260075403612ba557604051633ee5aeb560e01b815260040160405180910390fd5b6002600755565b600080612bba8585856130bd565b6000858152600c602052604090206002015490915060ff1615612c67576000848152600c6020908152604080832080546001600160a01b0319168155600181018490556002908101805460ff19908116909155600d9093529220600301805490911690911790556001600160a01b03811615612c67576040516001600160a01b0382169085907f0385add262f1fd6ca0c384da5b57cb2d0a777cfc153b9f50eb36454c780b9ca890600090a35b6001600160a01b03811615612c8057612c8081856131b6565b6001600160a01b03851615612c9957612c9985856132fb565b949350505050565b61097b82826040518060200160405280600081525061334d565b600080612cc784610947565b9050306001600160a01b03821603612ce35760019150506108af565b612ced8330612aa6565b15612cfc5760019150506108af565b5060009392505050565b612465848484613365565b600680546001600160a01b038381166001600160a01b0319831681179093556040519116919082907f8be0079c531659141344cd1fd0a4f28419497f9722a3daafe3b4186f6b6457e090600090a35050565b6001600160a01b038216612d9557604051630b61174360e31b81526001600160a01b0383166004820152602401610a88565b6001600160a01b03838116600081815260056020908152604080832094871680845294825291829020805460ff191686151590811790915591519182527f17307eab39ab6107e8899845ad3d59bd9653f200f220920489ca2b5937696c31910161161a565b6001600160a01b0383163b15612f1e57604051630a85bd0160e11b81526001600160a01b0384169063150b7a0290612e3c908890889087908790600401613fde565b6020604051808303816000875af1925050508015612e77575060408051601f3d908101601f19168201909252612e7491810190614011565b60015b612ee0573d808015612ea5576040519150601f19603f3d011682016040523d82523d6000602084013e612eaa565b606091505b508051600003612ed857604051633250574960e11b81526001600160a01b0385166004820152602401610a88565b805160208201fd5b6001600160e01b03198116630a85bd0160e11b14612f1c57604051633250574960e11b81526001600160a01b0385166004820152602401610a88565b505b5050505050565b60606000612f3283613415565b60010190506000816001600160401b03811115612f5157612f51613ada565b6040519080825280601f01601f191660200182016040528015612f7b576020820181803683370190505b5090508181016020015b600019016f181899199a1a9b1b9c1cb0b131b232b360811b600a86061a8153600a8504945084612f8557509392505050565b8080612fcb57506001600160a01b03821615155b1561308d576000612fdb84612b0f565b90506001600160a01b038316158015906130075750826001600160a01b0316816001600160a01b031614155b801561301a57506130188184612aa6565b155b156130435760405163a9fbf51f60e01b81526001600160a01b0384166004820152602401610a88565b811561308b5783856001600160a01b0316826001600160a01b03167f8c5be1e5ebec7d5bd14f71427d1e84f3dd0314c0f7b2291e5b200ac8c7c3b92560405160405180910390a45b505b5050600090815260046020526040902080546001600160a01b0319166001600160a01b0392909216919091179055565b6000828152600260205260408120546001600160a01b03908116908316156130ea576130ea8184866134ed565b6001600160a01b0381161561312857613107600085600080612fb7565b6001600160a01b038116600090815260036020526040902080546000190190555b6001600160a01b03851615613157576001600160a01b0385166000908152600360205260409020805460010190555b60008481526002602052604080822080546001600160a01b0319166001600160a01b0389811691821790925591518793918516917fddf252ad1be2c89b69c2b068fc378daa952ba7f163c4a11628f55a4df523b3ef91a4949350505050565b6000818152600f6020526040812054908190036131d257505050565b60006131df60018361402e565b6001600160a01b0385166000908152600e6020526040812054919250906132089060019061402e565b6001600160a01b0386166000908152600e60205260408120805492935090918390811061323757613237613dcc565b9060005260206000200154905081831461329f576001600160a01b0386166000908152600e6020526040902080548291908590811061327857613278613dcc565b60009182526020909120015561328f836001613e11565b6000828152600f60205260409020555b6001600160a01b0386166000908152600e602052604090208054806132c6576132c6614041565b60019003818190600052602060002001600090559055600f600086815260200190815260200160002060009055505050505050565b6001600160a01b0382166000908152600e60209081526040822080546001808201835591845291909220810183905590613336908290613e11565b6000928352600f6020526040909220919091555050565b6133578383613551565b611642336000858585612dfa565b6001600160a01b03821661338f57604051633250574960e11b815260006004820152602401610a88565b600061339d83836000612bac565b90506001600160a01b0381166133c957604051637e27328960e01b815260048101839052602401610a88565b836001600160a01b0316816001600160a01b031614610ea1576040516364283d7b60e01b81526001600160a01b0380861660048301526024820184905282166044820152606401610a88565b60008072184f03e93ff9f4daa797ed6e38ed64bf6a1f0160401b83106134545772184f03e93ff9f4daa797ed6e38ed64bf6a1f0160401b830492506040015b6d04ee2d6d415b85acef81000000008310613480576d04ee2d6d415b85acef8100000000830492506020015b662386f26fc10000831061349e57662386f26fc10000830492506010015b6305f5e10083106134b6576305f5e100830492506008015b61271083106134ca57612710830492506004015b606483106134dc576064830492506002015b600a83106108af5760010192915050565b6134f88383836135b6565b611642576001600160a01b03831661352657604051637e27328960e01b815260048101829052602401610a88565b60405163177e802f60e01b81526001600160a01b038316600482015260248101829052604401610a88565b6001600160a01b03821661357b57604051633250574960e11b815260006004820152602401610a88565b600061358983836000612bac565b90506001600160a01b03811615611642576040516339e3563760e11b815260006004820152602401610a88565b60006001600160a01b03831615801590612c995750826001600160a01b0316846001600160a01b031614806135f057506135f08484612aa6565b80612c995750506000908152600460205260409020546001600160a01b03908116911614919050565b6001600160e01b03198116811461188b57600080fd5b60006020828403121561364157600080fd5b81356124e081613619565b60005b8381101561366757818101518382015260200161364f565b50506000910152565b6000815180845261368881602086016020860161364c565b601f01601f19169290920160200192915050565b6020815260006124e06020830184613670565b6000602082840312156136c157600080fd5b5035919050565b80356001600160a01b03811681146136df57600080fd5b919050565b600080604083850312156136f757600080fd5b613700836136c8565b946020939093013593505050565b60018060a01b038816815286602082015260e06040820152600061373560e0830188613670565b606083019690965250608081019390935290151560a083015260c0909101529392505050565b634e487b7160e01b600052602160045260246000fd5b6004811061378f57634e487b7160e01b600052602160045260246000fd5b9052565b6001600160a01b0385811682528416602082015260408101839052608081016127496060830184613771565b600080604083850312156137d257600080fd5b50508035926020909101359150565b6000806000606084860312156137f657600080fd5b6137ff846136c8565b925061380d602085016136c8565b9150604084013590509250925092565b600081518084526020808501945080840160005b8381101561384d57815187529582019590820190600101613831565b509495945050505050565b6001600160a01b038a16815260208082018a9052610120604083018190526000916138858483018c613670565b91508382036060850152818a518084528284019150828160051b850101838d0160005b838110156138d657601f198784030185526138c4838351613670565b948601949250908501906001016138a8565b50508b60808801528a60a08801526138f260c088018b15159052565b8860e088015286810361010088015261390b818961381d565b955050505050509a9950505050505050505050565b60006020828403121561393257600080fd5b6124e0826136c8565b60c08152600061394e60c083018961381d565b602083820381850152613961828a61381d565b91508382036040850152613975828961381d565b91508382036060850152613989828861381d565b8481036080860152865180825282880193509082019060005b818110156139c05784511515835293830193918301916001016139a2565b505084810360a08601526139d4818761381d565b9b9a5050505050505050505050565b6020815260006124e0602083018461381d565b60008060408385031215613a0957600080fd5b82359150613a19602084016136c8565b90509250929050565b60008060408385031215613a3557600080fd5b613a3e836136c8565b915060208301358015158114613a5357600080fd5b809150509250929050565b600081518084526020808501945080840160005b8381101561384d5781516001600160a01b031687529582019590820190600101613a72565b606081526000613aaa606083018661381d565b8281036020840152613abc8186613a5e565b90508281036040840152613ad0818561381d565b9695505050505050565b634e487b7160e01b600052604160045260246000fd5b60008060008060808587031215613b0657600080fd5b613b0f856136c8565b9350613b1d602086016136c8565b92506040850135915060608501356001600160401b0380821115613b4057600080fd5b818701915087601f830112613b5457600080fd5b813581811115613b6657613b66613ada565b604051601f8201601f19908116603f01168101908382118183101715613b8e57613b8e613ada565b816040528281528a6020848701011115613ba757600080fd5b82602086016020830137600060208483010152809550505050505092959194509250565b600080600080600060608688031215613be357600080fd5b85356001600160401b0380821115613bfa57600080fd5b818801915088601f830112613c0e57600080fd5b813581811115613c1d57600080fd5b896020828501011115613c2f57600080fd5b602092830197509550908701359080821115613c4a57600080fd5b818801915088601f830112613c5e57600080fd5b813581811115613c6d57600080fd5b8960208260051b8501011115613c8257600080fd5b96999598505060200195604001359392505050565b60a081526000613caa60a083018861381d565b602083820381850152613cbd8289613a5e565b91508382036040850152613cd18288613a5e565b91508382036060850152613ce5828761381d565b8481036080860152855180825282870193509082019060005b81811015613d2157613d11838651613771565b9383019391830191600101613cfe565b50909a9950505050505050505050565b60008060408385031215613d4457600080fd5b613d4d836136c8565b9150613a19602084016136c8565b600181811c90821680613d6f57607f821691505b602082108103613d8f57634e487b7160e01b600052602260045260246000fd5b50919050565b60208082526017908201527f416374697669747920646f6573206e6f74206578697374000000000000000000604082015260600190565b634e487b7160e01b600052603260045260246000fd5b634e487b7160e01b600052601160045260246000fd5b600060018201613e0a57613e0a613de2565b5060010190565b808201808211156108af576108af613de2565b80820281158282048414176108af576108af613de2565b600082613e5857634e487b7160e01b600052601260045260246000fd5b500490565b60008351613e6f81846020880161364c565b835190830190613e8381836020880161364c565b01949350505050565b601f82111561164257600081815260208120601f850160051c81016020861015613eb35750805b601f850160051c820191505b81811015612f1c57828155600101613ebf565b6001600160401b03831115613ee957613ee9613ada565b613efd83613ef78354613d5b565b83613e8c565b6000601f841160018114613f315760008515613f195750838201355b600019600387901b1c1916600186901b178355612f1e565b600083815260209020601f19861690835b82811015613f625786850135825560209485019460019092019101613f42565b5086821015613f7f5760001960f88860031b161c19848701351681555b505060018560011b0183555050505050565b6000808335601e19843603018112613fa857600080fd5b8301803591506001600160401b03821115613fc257600080fd5b602001915036819003821315613fd757600080fd5b9250929050565b6001600160a01b0385811682528416602082015260408101839052608060608201819052600090613ad090830184613670565b60006020828403121561402357600080fd5b81516124e081613619565b818103818111156108af576108af613de2565b634e487b7160e01b600052603160045260246000fdfea2646970667358221220e06d1954a1dcad5a9b96e9a9c4fd2c7beb3fc40bddd83cc6f79c740dc2feea4564736f6c63430008140033",
  "linkReferences": {},
  "deployedLinkReferences": {}
}