{
  "_format": "hh-sol-artifact-1",
  "contractName": "EasyBet",
  "sourceName": "contracts/EasyBet.sol",
  "abi": [
    {
      "inputs": [],
      "stateMutability": "nonpayable",
      "type": "constructor"
    },
    {
      "inputs": [
        {
          "internalType": "address",
          "name": "sender",
          "type": "address"
        },
        {
          "internalType": "uint256",
          "name": "tokenId",
          "type": "uint256"
        },
        {
          "internalType": "address",
          "name": "owner",
          "type": "address"
        }
      ],
      "name": "ERC721IncorrectOwner",
      "type": "error"
    },
    {
      "inputs": [
        {
          "internalType": "address",
          "name": "operator",
          "type": "address"
        },
        {
          "internalType": "uint256",
          "name": "tokenId",
          "type": "uint256"
        }
      ],
      "name": "ERC721InsufficientApproval",
      "type": "error"
    },
    {
      "inputs": [
        {
          "internalType": "address",
          "name": "approver",
          "type": "address"
        }
      ],
      "name": "ERC721InvalidApprover",
      "type": "error"
    },
    {
      "inputs": [
        {
          "internalType": "address",
          "name": "operator",
          "type": "address"
        }
      ],
      "name": "ERC721InvalidOperator",
      "type": "error"
    },
    {
      "inputs": [
        {
          "internalType": "address",
          "name": "owner",
          "type": "address"
        }
      ],
      "name": "ERC721InvalidOwner",
      "type": "error"
    },
    {
      "inputs": [
        {
          "internalType": "address",
          "name": "receiver",
          "type": "address"
        }
      ],
      "name": "ERC721InvalidReceiver",
      "type": "error"
    },
    {
      "inputs": [
        {
          "internalType": "address",
          "name": "sender",
          "type": "address"
        }
      ],
      "name": "ERC721InvalidSender",
      "type": "error"
    },
    {
      "inputs": [
        {
          "internalType": "uint256",
          "name": "tokenId",
          "type": "uint256"
        }
      ],
      "name": "ERC721NonexistentToken",
      "type": "error"
    },
    {
      "inputs": [
        {
          "internalType": "address",
          "name": "owner",
          "type": "address"
        }
      ],
      "name": "OwnableInvalidOwner",
      "type": "error"
    },
    {
      "inputs": [
        {
          "internalType": "address",
          "name": "account",
          "type": "address"
        }
      ],
      "name": "OwnableUnauthorizedAccount",
      "type": "error"
    },
    {
      "inputs": [],
      "name": "ReentrancyGuardReentrantCall",
      "type": "error"
    },
    {
      "anonymous": false,
      "inputs": [
        {
          "indexed": true,
          "internalType": "uint256",
          "name": "activityId",
          "type": "uint256"
        },
        {
          "indexed": false,
          "internalType": "uint256",
          "name": "initialPool",
          "type": "uint256"
        },
        {
          "indexed": false,
          "internalType": "uint256",
          "name": "deadline",
          "type": "uint256"
        }
      ],
      "name": "ActivityCreated",
      "type": "event"
    },
    {
      "anonymous": false,
      "inputs": [
        {
          "indexed": true,
          "internalType": "uint256",
          "name": "activityId",
          "type": "uint256"
        },
        {
          "indexed": false,
          "internalType": "uint256",
          "name": "winningChoice",
          "type": "uint256"
        },
        {
          "indexed": false,
          "internalType": "uint256",
          "name": "winnersCount",
          "type": "uint256"
        },
        {
          "indexed": false,
          "internalType": "uint256",
          "name": "totalPool",
          "type": "uint256"
        }
      ],
      "name": "ActivitySettled",
      "type": "event"
    },
    {
      "anonymous": false,
      "inputs": [
        {
          "indexed": true,
          "internalType": "address",
          "name": "owner",
          "type": "address"
        },
        {
          "indexed": true,
          "internalType": "address",
          "name": "approved",
          "type": "address"
        },
        {
          "indexed": true,
          "internalType": "uint256",
          "name": "tokenId",
          "type": "uint256"
        }
      ],
      "name": "Approval",
      "type": "event"
    },
    {
      "anonymous": false,
      "inputs": [
        {
          "indexed": true,
          "internalType": "address",
          "name": "owner",
          "type": "address"
        },
        {
          "indexed": true,
          "internalType": "address",
          "name": "operator",
          "type": "address"
        },
        {
          "indexed": false,
          "internalType": "bool",
          "name": "approved",
          "type": "bool"
        }
      ],
      "name": "ApprovalForAll",
      "type": "event"
    },
    {
      "anonymous": false,
      "inputs": [
        {
          "indexed": true,
          "internalType": "uint256",
          "name": "tokenId",
          "type": "uint256"
        },
        {
          "indexed": true,
          "internalType": "uint256",
          "name": "activityId",
          "type": "uint256"
        },
        {
          "indexed": false,
          "internalType": "uint256",
          "name": "price",
          "type": "uint256"
        },
        {
          "indexed": true,
          "internalType": "address",
          "name": "owner",
          "type": "address"
        }
      ],
      "name": "BetPlaced",
      "type": "event"
    },
    {
      "anonymous": false,
      "inputs": [
        {
          "indexed": true,
          "internalType": "uint256",
          "name": "tokenId",
          "type": "uint256"
        },
        {
          "indexed": true,
          "internalType": "address",
          "name": "seller",
          "type": "address"
        },
        {
          "indexed": true,
          "internalType": "address",
          "name": "buyer",
          "type": "address"
        },
        {
          "indexed": false,
          "internalType": "uint256",
          "name": "price",
          "type": "uint256"
        }
      ],
      "name": "OfferAccepted",
      "type": "event"
    },
    {
      "anonymous": false,
      "inputs": [
        {
          "indexed": true,
          "internalType": "uint256",
          "name": "tokenId",
          "type": "uint256"
        },
        {
          "indexed": true,
          "internalType": "address",
          "name": "bidder",
          "type": "address"
        },
        {
          "indexed": false,
          "internalType": "uint256",
          "name": "price",
          "type": "uint256"
        }
      ],
      "name": "OfferPlaced",
      "type": "event"
    },
    {
      "anonymous": false,
      "inputs": [
        {
          "indexed": true,
          "internalType": "uint256",
          "name": "tokenId",
          "type": "uint256"
        },
        {
          "indexed": true,
          "internalType": "address",
          "name": "bidder",
          "type": "address"
        },
        {
          "indexed": false,
          "internalType": "uint256",
          "name": "price",
          "type": "uint256"
        }
      ],
      "name": "OfferWithdrawn",
      "type": "event"
    },
    {
      "anonymous": false,
      "inputs": [
        {
          "indexed": true,
          "internalType": "address",
          "name": "previousOwner",
          "type": "address"
        },
        {
          "indexed": true,
          "internalType": "address",
          "name": "newOwner",
          "type": "address"
        }
      ],
      "name": "OwnershipTransferred",
      "type": "event"
    },
    {
      "anonymous": false,
      "inputs": [
        {
          "indexed": true,
          "internalType": "uint256",
          "name": "tokenId",
          "type": "uint256"
        },
        {
          "indexed": true,
          "internalType": "address",
          "name": "seller",
          "type": "address"
        },
        {
          "indexed": false,
          "internalType": "uint256",
          "name": "price",
          "type": "uint256"
        }
      ],
      "name": "TicketListed",
      "type": "event"
    },
    {
      "anonymous": false,
      "inputs": [
        {
          "indexed": true,
          "internalType": "uint256",
          "name": "tokenId",
          "type": "uint256"
        },
        {
          "indexed": true,
          "internalType": "address",
          "name": "seller",
          "type": "address"
        }
      ],
      "name": "TicketListingCanceled",
      "type": "event"
    },
    {
      "anonymous": false,
      "inputs": [
        {
          "indexed": true,
          "internalType": "uint256",
          "name": "tokenId",
          "type": "uint256"
        },
        {
          "indexed": true,
          "internalType": "address",
          "name": "seller",
          "type": "address"
        },
        {
          "indexed": true,
          "internalType": "address",
          "name": "buyer",
          "type": "address"
        },
        {
          "indexed": false,
          "internalType": "uint256",
          "name": "price",
          "type": "uint256"
        }
      ],
      "name": "TicketSold",
      "type": "event"
    },
    {
      "anonymous": false,
      "inputs": [
        {
          "indexed": true,
          "internalType": "address",
          "name": "from",
          "type": "address"
        },
        {
          "indexed": true,
          "internalType": "address",
          "name": "to",
          "type": "address"
        },
        {
          "indexed": true,
          "internalType": "uint256",
          "name": "tokenId",
          "type": "uint256"
        }
      ],
      "name": "Transfer",
      "type": "event"
    },
    {
      "inputs": [
        {
          "internalType": "uint256",
          "name": "tokenId",
          "type": "uint256"
        },
        {
          "internalType": "uint256",
          "name": "index",
          "type": "uint256"
        }
      ],
      "name": "acceptOffer",
      "outputs": [],
      "stateMutability": "nonpayable",
      "type": "function"
    },
    {
      "inputs": [
        {
          "internalType": "uint256",
          "name": "",
          "type": "uint256"
        }
      ],
      "name": "activities",
      "outputs": [
        {
          "internalType": "address",
          "name": "creator",
          "type": "address"
        },
        {
          "internalType": "uint256",
          "name": "deadline",
          "type": "uint256"
        },
        {
          "internalType": "uint256",
          "name": "initialPool",
          "type": "uint256"
        },
        {
          "internalType": "uint256",
          "name": "totalPool",
          "type": "uint256"
        },
        {
          "internalType": "bool",
          "name": "settled",
          "type": "bool"
        },
        {
          "internalType": "uint256",
          "name": "winningChoice",
          "type": "uint256"
        }
      ],
      "stateMutability": "view",
      "type": "function"
    },
    {
      "inputs": [
        {
          "internalType": "uint256",
          "name": "activityId",
          "type": "uint256"
        }
      ],
      "name": "activityExists",
      "outputs": [
        {
          "internalType": "bool",
          "name": "",
          "type": "bool"
        }
      ],
      "stateMutability": "view",
      "type": "function"
    },
    {
      "inputs": [
        {
          "internalType": "address",
          "name": "to",
          "type": "address"
        },
        {
          "internalType": "uint256",
          "name": "tokenId",
          "type": "uint256"
        }
      ],
      "name": "approve",
      "outputs": [],
      "stateMutability": "nonpayable",
      "type": "function"
    },
    {
      "inputs": [
        {
          "internalType": "address",
          "name": "owner",
          "type": "address"
        }
      ],
      "name": "balanceOf",
      "outputs": [
        {
          "internalType": "uint256",
          "name": "",
          "type": "uint256"
        }
      ],
      "stateMutability": "view",
      "type": "function"
    },
    {
      "inputs": [
        {
          "internalType": "uint256",
          "name": "tokenId",
          "type": "uint256"
        }
      ],
      "name": "buyListedTicket",
      "outputs": [],
      "stateMutability": "payable",
      "type": "function"
    },
    {
      "inputs": [
        {
          "internalType": "uint256",
          "name": "activityId",
          "type": "uint256"
        },
        {
          "internalType": "uint256",
          "name": "choiceIndex",
          "type": "uint256"
        }
      ],
      "name": "buyTicket",
      "outputs": [
        {
          "internalType": "uint256",
          "name": "",
          "type": "uint256"
        }
      ],
      "stateMutability": "payable",
      "type": "function"
    },
    {
      "inputs": [
        {
          "internalType": "uint256",
          "name": "tokenId",
          "type": "uint256"
        }
      ],
      "name": "cancelListing",
      "outputs": [],
      "stateMutability": "nonpayable",
      "type": "function"
    },
    {
      "inputs": [
        {
          "internalType": "string[]",
          "name": "choices",
          "type": "string[]"
        },
        {
          "internalType": "uint256",
          "name": "deadline",
          "type": "uint256"
        }
      ],
      "name": "createActivity",
      "outputs": [
        {
          "internalType": "uint256",
          "name": "",
          "type": "uint256"
        }
      ],
      "stateMutability": "payable",
      "type": "function"
    },
    {
      "inputs": [
        {
          "internalType": "uint256",
          "name": "activityId",
          "type": "uint256"
        }
      ],
      "name": "fundActivity",
      "outputs": [],
      "stateMutability": "payable",
      "type": "function"
    },
    {
      "inputs": [
        {
          "internalType": "address",
          "name": "creator",
          "type": "address"
        }
      ],
      "name": "getActivitiesByCreator",
      "outputs": [
        {
          "internalType": "uint256[]",
          "name": "",
          "type": "uint256[]"
        }
      ],
      "stateMutability": "view",
      "type": "function"
    },
    {
      "inputs": [
        {
          "internalType": "uint256",
          "name": "activityId",
          "type": "uint256"
        }
      ],
      "name": "getActivityDetail",
      "outputs": [
        {
          "internalType": "address",
          "name": "creator",
          "type": "address"
        },
        {
          "internalType": "uint256",
          "name": "deadline",
          "type": "uint256"
        },
        {
          "internalType": "string[]",
          "name": "choices",
          "type": "string[]"
        },
        {
          "internalType": "uint256",
          "name": "initialPool",
          "type": "uint256"
        },
        {
          "internalType": "uint256",
          "name": "totalPool",
          "type": "uint256"
        },
        {
          "internalType": "bool",
          "name": "settled",
          "type": "bool"
        },
        {
          "internalType": "uint256",
          "name": "winningChoice",
          "type": "uint256"
        },
        {
          "internalType": "uint256[]",
          "name": "choiceBetAmounts",
          "type": "uint256[]"
        }
      ],
      "stateMutability": "view",
      "type": "function"
    },
    {
      "inputs": [],
      "name": "getAllActivityIds",
      "outputs": [
        {
          "internalType": "uint256[]",
          "name": "ids",
          "type": "uint256[]"
        }
      ],
      "stateMutability": "view",
      "type": "function"
    },
    {
      "inputs": [],
      "name": "getAllListings",
      "outputs": [
        {
          "internalType": "uint256[]",
          "name": "tokenIds",
          "type": "uint256[]"
        },
        {
          "internalType": "address[]",
          "name": "sellers",
          "type": "address[]"
        },
        {
          "internalType": "uint256[]",
          "name": "prices",
          "type": "uint256[]"
        }
      ],
      "stateMutability": "view",
      "type": "function"
    },
    {
      "inputs": [
        {
          "internalType": "uint256",
          "name": "tokenId",
          "type": "uint256"
        }
      ],
      "name": "getApproved",
      "outputs": [
        {
          "internalType": "address",
          "name": "",
          "type": "address"
        }
      ],
      "stateMutability": "view",
      "type": "function"
    },
    {
      "inputs": [
        {
          "internalType": "uint256",
          "name": "tokenId",
          "type": "uint256"
        }
      ],
      "name": "getOffers",
      "outputs": [
        {
          "internalType": "address[]",
          "name": "bidders",
          "type": "address[]"
        },
        {
          "internalType": "uint256[]",
          "name": "prices",
          "type": "uint256[]"
        }
      ],
      "stateMutability": "view",
      "type": "function"
    },
    {
      "inputs": [
        {
          "internalType": "address",
          "name": "owner",
          "type": "address"
        }
      ],
      "name": "getTicketsByOwner",
      "outputs": [
        {
          "internalType": "uint256[]",
          "name": "",
          "type": "uint256[]"
        }
      ],
      "stateMutability": "view",
      "type": "function"
    },
    {
      "inputs": [
        {
          "internalType": "address",
          "name": "owner",
          "type": "address"
        },
        {
          "internalType": "address",
          "name": "operator",
          "type": "address"
        }
      ],
      "name": "isApprovedForAll",
      "outputs": [
        {
          "internalType": "bool",
          "name": "",
          "type": "bool"
        }
      ],
      "stateMutability": "view",
      "type": "function"
    },
    {
      "inputs": [
        {
          "internalType": "uint256",
          "name": "tokenId",
          "type": "uint256"
        },
        {
          "internalType": "uint256",
          "name": "price",
          "type": "uint256"
        }
      ],
      "name": "listTicket",
      "outputs": [],
      "stateMutability": "nonpayable",
      "type": "function"
    },
    {
      "inputs": [
        {
          "internalType": "uint256",
          "name": "",
          "type": "uint256"
        }
      ],
      "name": "listings",
      "outputs": [
        {
          "internalType": "address",
          "name": "seller",
          "type": "address"
        },
        {
          "internalType": "uint256",
          "name": "price",
          "type": "uint256"
        },
        {
          "internalType": "bool",
          "name": "exists",
          "type": "bool"
        }
      ],
      "stateMutability": "view",
      "type": "function"
    },
    {
      "inputs": [
        {
          "internalType": "uint256",
          "name": "tokenId",
          "type": "uint256"
        }
      ],
      "name": "makeOffer",
      "outputs": [],
      "stateMutability": "payable",
      "type": "function"
    },
    {
      "inputs": [],
      "name": "name",
      "outputs": [
        {
          "internalType": "string",
          "name": "",
          "type": "string"
        }
      ],
      "stateMutability": "view",
      "type": "function"
    },
    {
      "inputs": [],
      "name": "owner",
      "outputs": [
        {
          "internalType": "address",
          "name": "",
          "type": "address"
        }
      ],
      "stateMutability": "view",
      "type": "function"
    },
    {
      "inputs": [
        {
          "internalType": "uint256",
          "name": "tokenId",
          "type": "uint256"
        }
      ],
      "name": "ownerOf",
      "outputs": [
        {
          "internalType": "address",
          "name": "",
          "type": "address"
        }
      ],
      "stateMutability": "view",
      "type": "function"
    },
    {
      "inputs": [],
      "name": "renounceOwnership",
      "outputs": [],
      "stateMutability": "nonpayable",
      "type": "function"
    },
    {
      "inputs": [
        {
          "internalType": "address",
          "name": "from",
          "type": "address"
        },
        {
          "internalType": "address",
          "name": "to",
          "type": "address"
        },
        {
          "internalType": "uint256",
          "name": "tokenId",
          "type": "uint256"
        }
      ],
      "name": "safeTransferFrom",
      "outputs": [],
      "stateMutability": "nonpayable",
      "type": "function"
    },
    {
      "inputs": [
        {
          "internalType": "address",
          "name": "from",
          "type": "address"
        },
        {
          "internalType": "address",
          "name": "to",
          "type": "address"
        },
        {
          "internalType": "uint256",
          "name": "tokenId",
          "type": "uint256"
        },
        {
          "internalType": "bytes",
          "name": "data",
          "type": "bytes"
        }
      ],
      "name": "safeTransferFrom",
      "outputs": [],
      "stateMutability": "nonpayable",
      "type": "function"
    },
    {
      "inputs": [
        {
          "internalType": "address",
          "name": "operator",
          "type": "address"
        },
        {
          "internalType": "bool",
          "name": "approved",
          "type": "bool"
        }
      ],
      "name": "setApprovalForAll",
      "outputs": [],
      "stateMutability": "nonpayable",
      "type": "function"
    },
    {
      "inputs": [
        {
          "internalType": "uint256",
          "name": "activityId",
          "type": "uint256"
        },
        {
          "internalType": "uint256",
          "name": "winningChoice",
          "type": "uint256"
        }
      ],
      "name": "settleActivity",
      "outputs": [],
      "stateMutability": "nonpayable",
      "type": "function"
    },
    {
      "inputs": [
        {
          "internalType": "bytes4",
          "name": "interfaceId",
          "type": "bytes4"
        }
      ],
      "name": "supportsInterface",
      "outputs": [
        {
          "internalType": "bool",
          "name": "",
          "type": "bool"
        }
      ],
      "stateMutability": "view",
      "type": "function"
    },
    {
      "inputs": [],
      "name": "symbol",
      "outputs": [
        {
          "internalType": "string",
          "name": "",
          "type": "string"
        }
      ],
      "stateMutability": "view",
      "type": "function"
    },
    {
      "inputs": [
        {
          "internalType": "uint256",
          "name": "",
          "type": "uint256"
        }
      ],
      "name": "tickets",
      "outputs": [
        {
          "internalType": "uint256",
          "name": "activityId",
          "type": "uint256"
        },
        {
          "internalType": "uint256",
          "name": "choiceIndex",
          "type": "uint256"
        },
        {
          "internalType": "uint256",
          "name": "amount",
          "type": "uint256"
        }
      ],
      "stateMutability": "view",
      "type": "function"
    },
    {
      "inputs": [
        {
          "internalType": "uint256",
          "name": "tokenId",
          "type": "uint256"
        }
      ],
      "name": "tokenURI",
      "outputs": [
        {
          "internalType": "string",
          "name": "",
          "type": "string"
        }
      ],
      "stateMutability": "view",
      "type": "function"
    },
    {
      "inputs": [
        {
          "internalType": "address",
          "name": "from",
          "type": "address"
        },
        {
          "internalType": "address",
          "name": "to",
          "type": "address"
        },
        {
          "internalType": "uint256",
          "name": "tokenId",
          "type": "uint256"
        }
      ],
      "name": "transferFrom",
      "outputs": [],
      "stateMutability": "nonpayable",
      "type": "function"
    },
    {
      "inputs": [
        {
          "internalType": "address",
          "name": "newOwner",
          "type": "address"
        }
      ],
      "name": "transferOwnership",
      "outputs": [],
      "stateMutability": "nonpayable",
      "type": "function"
    },
    {
      "inputs": [
        {
          "internalType": "uint256",
          "name": "amount",
          "type": "uint256"
        }
      ],
      "name": "withdraw",
      "outputs": [],
      "stateMutability": "nonpayable",
      "type": "function"
    },
    {
      "inputs": [
        {
          "internalType": "uint256",
          "name": "tokenId",
          "type": "uint256"
        },
        {
          "internalType": "uint256",
          "name": "index",
          "type": "uint256"
        }
      ],
      "name": "withdrawOffer",
      "outputs": [],
      "stateMutability": "nonpayable",
      "type": "function"
    },
    {
      "stateMutability": "payable",
      "type": "receive"
    }
  ],
  "bytecode": "0x60806040523480156200001157600080fd5b50336040518060400160405280600d81526020016c11585cde50995d151a58dad95d609a1b8152506040518060400160405280600381526020016211509560ea1b8152508160009081620000669190620001b5565b506001620000758282620001b5565b5050506001600160a01b038116620000a757604051631e4fbdf760e01b81526000600482015260240160405180910390fd5b620000b281620000be565b50600160075562000281565b600680546001600160a01b038381166001600160a01b0319831681179093556040519116919082907f8be0079c531659141344cd1fd0a4f28419497f9722a3daafe3b4186f6b6457e090600090a35050565b634e487b7160e01b600052604160045260246000fd5b600181811c908216806200013b57607f821691505b6020821081036200015c57634e487b7160e01b600052602260045260246000fd5b50919050565b601f821115620001b057600081815260208120601f850160051c810160208610156200018b5750805b601f850160051c820191505b81811015620001ac5782815560010162000197565b5050505b505050565b81516001600160401b03811115620001d157620001d162000110565b620001e981620001e2845462000126565b8462000162565b602080601f831160018114620002215760008415620002085750858301515b600019600386901b1c1916600185901b178555620001ac565b600085815260208120601f198616915b82811015620002525788860151825594840194600190910190840162000231565b5085821015620002715787850151600019600388901b60f8161c191681555b5050505050600190811b01905550565b6139d880620002916000396000f3fe60806040526004361061021e5760003560e01c806370a0823111610123578063a22cb465116100ab578063c87b56dd1161006f578063c87b56dd146106da578063de74e57b146106fa578063dfa49e6f1461076a578063e985e9c514610798578063f2fde38b146107b857600080fd5b8063a22cb46514610643578063ae73ccec14610663578063b88d4fde14610687578063be600019146106a7578063c5a8d4bb146106ba57600080fd5b806381257bd5116100f257806381257bd5146105ca5780638da5cb5b146105ea57806395d89b411461060857806398ff2a811461061d5780639a2f64741461063057600080fd5b806370a08231146105605780637130a7a814610580578063715018a6146105a05780637789ae72146105b557600080fd5b8063305a67a8116101a65780635075acbf116101755780635075acbf1461046857806350b447121461049c5780636352211e146104f357806367aa23e2146105135780636f6c45d21461054057600080fd5b8063305a67a8146103f5578063305a905a1461041557806342842e0e14610435578063502488531461045557600080fd5b80630d1657e8116101ed5780630d1657e8146102db578063203746f21461037457806323b872dd14610394578063298ec208146103b45780632e1a7d4d146103d557600080fd5b806301ffc9a71461022a57806306fdde031461025f578063081812fc14610281578063095ea7b3146102b957600080fd5b3661022557005b600080fd5b34801561023657600080fd5b5061024a6102453660046131c6565b6107d8565b60405190151581526020015b60405180910390f35b34801561026b57600080fd5b5061027461082a565b6040516102569190613233565b34801561028d57600080fd5b506102a161029c366004613246565b6108bc565b6040516001600160a01b039091168152602001610256565b3480156102c557600080fd5b506102d96102d436600461327b565b6108e5565b005b3480156102e757600080fd5b5061033b6102f6366004613246565b600a602052600090815260409020805460018201546003830154600484015460068501546007909501546001600160a01b039094169492939192909160ff9091169086565b604080516001600160a01b03909716875260208701959095529385019290925260608401521515608083015260a082015260c001610256565b34801561038057600080fd5b506102d961038f3660046132a5565b6108f4565b3480156103a057600080fd5b506102d96103af3660046132c7565b610cbd565b6103c76103c23660046132a5565b610d48565b604051908152602001610256565b3480156103e157600080fd5b506102d96103f0366004613246565b610f75565b34801561040157600080fd5b506102d9610410366004613246565b611057565b34801561042157600080fd5b506102d96104303660046132a5565b611154565b34801561044157600080fd5b506102d96104503660046132c7565b6112fd565b6102d9610463366004613246565b61131d565b34801561047457600080fd5b50610488610483366004613246565b611527565b60405161025698979695949392919061333e565b3480156104a857600080fd5b506104d86104b7366004613246565b600b6020526000908152604090208054600182015460029092015490919083565b60408051938452602084019290925290820152606001610256565b3480156104ff57600080fd5b506102a161050e366004613246565b611787565b34801561051f57600080fd5b5061053361052e3660046133f4565b611792565b604051610256919061340f565b34801561054c57600080fd5b5061053361055b3660046133f4565b6117fe565b34801561056c57600080fd5b506103c761057b3660046133f4565b61190c565b34801561058c57600080fd5b5061024a61059b366004613246565b611954565b3480156105ac57600080fd5b506102d9611969565b3480156105c157600080fd5b5061053361197d565b3480156105d657600080fd5b506102d96105e53660046132a5565b611a10565b3480156105f657600080fd5b506006546001600160a01b03166102a1565b34801561061457600080fd5b50610274611dd8565b6103c761062b366004613422565b611de7565b6102d961063e366004613246565b611ffd565b34801561064f57600080fd5b506102d961065e36600461349c565b6120f0565b34801561066f57600080fd5b506106786120fb565b60405161025693929190613511565b34801561069357600080fd5b506102d96106a236600461356a565b6122fd565b6102d96106b5366004613246565b612315565b3480156106c657600080fd5b506102d96106d53660046132a5565b612418565b3480156106e657600080fd5b506102746106f5366004613246565b6126e2565b34801561070657600080fd5b50610743610715366004613246565b600c602052600090815260409020805460018201546002909201546001600160a01b03909116919060ff1683565b604080516001600160a01b0390941684526020840192909252151590820152606001610256565b34801561077657600080fd5b5061078a610785366004613246565b612757565b604051610256929190613645565b3480156107a457600080fd5b5061024a6107b3366004613673565b6128be565b3480156107c457600080fd5b506102d96107d33660046133f4565b6128ec565b60006001600160e01b031982166380ac58cd60e01b148061080957506001600160e01b03198216635b5e139f60e01b145b8061082457506301ffc9a760e01b6001600160e01b03198316145b92915050565b606060008054610839906136a6565b80601f0160208091040260200160405190810160405280929190818152602001828054610865906136a6565b80156108b25780601f10610887576101008083540402835291602001916108b2565b820191906000526020600020905b81548152906001019060200180831161089557829003601f168201915b5050505050905090565b60006108c782612927565b506000828152600460205260409020546001600160a01b0316610824565b6108f0828233612960565b5050565b6108fc61296d565b61090461299a565b61090d82611954565b6109325760405162461bcd60e51b8152600401610929906136e0565b60405180910390fd5b6000828152600a60205260409020600681015460ff16156109905760405162461bcd60e51b81526020600482015260186024820152771058dd1a5d9a5d1e48185b1c9958591e481cd95d1d1b195960421b6044820152606401610929565b600281015482106109dc5760405162461bcd60e51b8152602060048201526016602482015275496e76616c69642077696e6e696e672063686f69636560501b6044820152606401610929565b60068101805460ff1916600117905560078101829055600080805b6005840154811015610aa2576000846005018281548110610a1a57610a1a613717565b9060005260206000200154905085600b60008381526020019081526020016000206001015403610a8f576000610a4f82611787565b90506001600160a01b03811615610a8d5784610a6a81613743565b6000848152600b6020526040902060020154909650610a8a91508561375c565b93505b505b5080610a9a81613743565b9150506109f7565b50811580610aae575080155b15610b0457600483015460408051868152600060208201529081019190915285907f0d3f998a216a1ff9da7f659fda7dd6bcbe030ccd695180040eb5c9af6d81eee29060600160405180910390a2505050610cb3565b60005b6005840154811015610c65576000846005018281548110610b2a57610b2a613717565b9060005260206000200154905085600b60008381526020019081526020016000206001015403610c51576000610b5f82611787565b90506001600160a01b038116610b76575050610c53565b6000828152600b602052604081206002015460048801549091908690610b9d90849061376f565b610ba79190613786565b90506000836001600160a01b03168260405160006040518083038185875af1925050503d8060008114610bf6576040519150601f19603f3d011682016040523d82523d6000602084013e610bfb565b606091505b5050905080610c4c5760405162461bcd60e51b815260206004820152601e60248201527f4661696c656420746f2073656e64207072697a6520746f2077696e6e657200006044820152606401610929565b505050505b505b80610c5d81613743565b915050610b07565b50600483015460408051868152602081018590529081019190915285907f0d3f998a216a1ff9da7f659fda7dd6bcbe030ccd695180040eb5c9af6d81eee29060600160405180910390a25050505b6108f06001600755565b6001600160a01b038216610ce757604051633250574960e11b815260006004820152602401610929565b6000610cf48383336129c4565b9050836001600160a01b0316816001600160a01b031614610d42576040516364283d7b60e01b81526001600160a01b0380861660048301526024820184905282166044820152606401610929565b50505050565b6000610d5383611954565b610d6f5760405162461bcd60e51b8152600401610929906136e0565b6000838152600a6020526040902060018101544210610dc55760405162461bcd60e51b81526020600482015260126024820152711058dd1a5d9a5d1e481a185cc8195b99195960721b6044820152606401610929565b60028101548310610e0f5760405162461bcd60e51b8152602060048201526014602482015273092dcecc2d8d2c840c6d0ded2c6ca40d2dcc8caf60631b6044820152606401610929565b60003411610e695760405162461bcd60e51b815260206004820152602160248201527f42657420616d6f756e74206d7573742062652067726561746572207468616e206044820152600360fc1b6064820152608401610929565b600160086000828254610e7c919061375c565b9091555050600854610e8e3382612abd565b604080516060810182528681526020808201878152348385018181526000878152600b8552958620945185559151600180860191909155915160029094019390935560058601805491820181558452922090910182905560088301805486908110610efb57610efb613717565b906000526020600020016000828254610f14919061375c565b9250508190555034826004016000828254610f2f919061375c565b90915550506040513481523390869083907faea9f920c207b21afe471745229d28faca3030e42cb0369cd9f48474df3977629060200160405180910390a4949350505050565b610f7d61296d565b47811115610fcd5760405162461bcd60e51b815260206004820152601860248201527f4578636565647320636f6e74726163742062616c616e636500000000000000006044820152606401610929565b604051600090339083908381818185875af1925050503d806000811461100f576040519150601f19603f3d011682016040523d82523d6000602084013e611014565b606091505b50509050806108f05760405162461bcd60e51b815260206004820152600f60248201526e15da5d1a191c985dc819985a5b1959608a1b6044820152606401610929565b6000818152600c60205260409020600281015460ff166110a65760405162461bcd60e51b815260206004820152600a6024820152694e6f206c697374696e6760b01b6044820152606401610929565b80546001600160a01b031633146110f85760405162461bcd60e51b815260206004820152601660248201527513db9b1e481cd95b1b195c8818d85b8818d85b98d95b60521b6044820152606401610929565b6000828152600c602052604080822080546001600160a01b031916815560018101839055600201805460ff1916905551339184917f0385add262f1fd6ca0c384da5b57cb2d0a777cfc153b9f50eb36454c780b9ca89190a35050565b3361115e83611787565b6001600160a01b0316146111ab5760405162461bcd60e51b81526020600482015260146024820152732737ba103a3432903a34b1b5b2ba1037bbb732b960611b6044820152606401610929565b600081116111fb5760405162461bcd60e51b815260206004820152601c60248201527f5072696365206d7573742062652067726561746572207468616e2030000000006044820152606401610929565b6112058233612ad7565b6112645760405162461bcd60e51b815260206004820152602a60248201527f506c6561736520617070726f766520636f6e747261637420746f207472616e7360448201526919995c881d1a58dad95d60b21b6064820152608401610929565b6040805160608101825233808252602080830185815260018486018181526000898152600c8552879020955186546001600160a01b0319166001600160a01b03909116178655915190850155516002909301805460ff191693151593909317909255915183815284917f22968ec3be3687b180f3544163a034b88d57b48159d9a7e9a1b610fdb2d05f8091015b60405180910390a35050565b611318838383604051806020016040528060008152506122fd565b505050565b61132561299a565b6000818152600c60205260409020600281015460ff166113745760405162461bcd60e51b815260206004820152600a6024820152694e6f206c697374696e6760b01b6044820152606401610929565b806001015434146113c75760405162461bcd60e51b815260206004820181905260248201527f5061796d656e74206d75737420657175616c206c697374696e672070726963656044820152606401610929565b80546001808301546000858152600c6020908152604080832080546001600160a01b03191681559485018390556002909401805460ff19169055835190810190935282526001600160a01b0390921691339161142890849084908890612b22565b6000836001600160a01b03168260405160006040518083038185875af1925050503d8060008114611475576040519150601f19603f3d011682016040523d82523d6000602084013e61147a565b606091505b50509050806114c75760405162461bcd60e51b8152602060048201526019602482015278151c985b9cd9995c881d1bc81cd95b1b195c8819985a5b1959603a1b6044820152606401610929565b826001600160a01b0316846001600160a01b0316877f2bbc64d6afd28a753f6c5e4aaa894f1d684c44a0e080167eae104ac8505cfebd8560405161150d91815260200190565b60405180910390a450505050506115246001600755565b50565b6000806060600080600080606061153d89611954565b6115595760405162461bcd60e51b8152600401610929906136e0565b6000898152600a6020526040902080546001820154600383015460048401546006850154600786015460028701546001600160a01b039096169e50939c50919950975060ff1695509350806001600160401b038111156115bb576115bb613554565b6040519080825280602002602001820160405280156115ee57816020015b60608152602001906001900390816115d95790505b50975060005b818110156116d45782600201818154811061161157611611613717565b906000526020600020018054611626906136a6565b80601f0160208091040260200160405190810160405280929190818152602001828054611652906136a6565b801561169f5780601f106116745761010080835404028352916020019161169f565b820191906000526020600020905b81548152906001019060200180831161168257829003601f168201915b50505050508982815181106116b6576116b6613717565b602002602001018190525080806116cc90613743565b9150506115f4565b506008820154806001600160401b038111156116f2576116f2613554565b60405190808252806020026020018201604052801561171b578160200160208202803683370190505b50935060005b818110156117785783600801818154811061173e5761173e613717565b906000526020600020015485828151811061175b5761175b613717565b60209081029190910101528061177081613743565b915050611721565b50505050919395975091939597565b600061082482612927565b6001600160a01b0381166000908152600d60209081526040918290208054835181840281018401909452808452606093928301828280156117f257602002820191906000526020600020905b8154815260200190600101908083116117de575b50505050509050919050565b6060600060015b600954811161184f576000818152600a60205260409020546001600160a01b0380861691160361183d578161183981613743565b9250505b8061184781613743565b915050611805565b506000816001600160401b0381111561186a5761186a613554565b604051908082528060200260200182016040528015611893578160200160208202803683370190505b509050600060015b6009548111611902576000818152600a60205260409020546001600160a01b038088169116036118f0578083836118d181613743565b9450815181106118e3576118e3613717565b6020026020010181815250505b806118fa81613743565b91505061189b565b5090949350505050565b60006001600160a01b038216611938576040516322718ad960e21b815260006004820152602401610929565b506001600160a01b031660009081526003602052604090205490565b60008082118015610824575050600954101590565b61197161296d565b61197b6000612b2d565b565b60606009546001600160401b0381111561199957611999613554565b6040519080825280602002602001820160405280156119c2578160200160208202803683370190505b50905060005b600954811015611a0c576119dd81600161375c565b8282815181106119ef576119ef613717565b602090810291909101015280611a0481613743565b9150506119c8565b5090565b611a1861299a565b33611a2283611787565b6001600160a01b031614611a785760405162461bcd60e51b815260206004820152601b60248201527f4f6e6c7920746f6b656e206f776e65722063616e2061636365707400000000006044820152606401610929565b6000828152600f6020526040902080548210611ac65760405162461bcd60e51b815260206004820152600d60248201526c092dcecc2d8d2c840d2dcc8caf609b1b6044820152606401610929565b6000818381548110611ada57611ada613717565b600091825260209182902060408051606081018252600390930290910180546001600160a01b0316835260018101549383019390935260029092015460ff1615159181018290529150611b625760405162461bcd60e51b815260206004820152601060248201526f4f66666572206e6f742065786973747360801b6044820152606401610929565b80516020820151339190611b768784612ad7565b611bd25760405162461bcd60e51b815260206004820152602760248201527f436f6e7472616374206e6f7420617070726f76656420746f207472616e73666560448201526639103a37b5b2b760c91b6064820152608401610929565b8454600090611be3906001906137a8565b9050808714611c7557858181548110611bfe57611bfe613717565b9060005260206000209060030201868881548110611c1e57611c1e613717565b60009182526020909120825460039092020180546001600160a01b0319166001600160a01b03909216919091178155600180830154908201556002918201549101805460ff909216151560ff199092169190911790555b85805480611c8557611c856137bb565b6000828152602080822060036000199094019384020180546001600160a01b031916815560018101839055600201805460ff1916905591909255604080519182019052908152611cda90859085908b90612b22565b6000846001600160a01b03168360405160006040518083038185875af1925050503d8060008114611d27576040519150601f19603f3d011682016040523d82523d6000602084013e611d2c565b606091505b5050905080611d795760405162461bcd60e51b8152602060048201526019602482015278151c985b9cd9995c881d1bc81cd95b1b195c8819985a5b1959603a1b6044820152606401610929565b836001600160a01b0316856001600160a01b03168a7fc67f49229cab3f614ad390c12432e0e671552dcfd15e24ddc005cf5a01a0213586604051611dbf91815260200190565b60405180910390a4505050505050506108f06001600755565b606060018054610839906136a6565b6000611df161296d565b6002831015611e425760405162461bcd60e51b815260206004820152601d60248201527f4174206c656173742074776f206f7074696f6e732072657175697265640000006044820152606401610929565b428211611e915760405162461bcd60e51b815260206004820152601e60248201527f446561646c696e65206d75737420626520696e207468652066757475726500006044820152606401610929565b60003411611ee15760405162461bcd60e51b815260206004820152601d60248201527f496e697469616c20706f6f6c206d7573742062652070726f76696465640000006044820152606401610929565b600160096000828254611ef4919061375c565b90915550506009546000818152600a6020526040812080546001600160a01b0319163317815560018101859055905b85811015611f9d5781600201878783818110611f4157611f41613717565b9050602002810190611f5391906137d1565b82546001810184556000938452602090932090920191611f739183613864565b50600882018054600181018255600091825260208220015580611f9581613743565b915050611f23565b5034600382018190556004820181905560068201805460ff19169055604080519182526020820186905283917fb224f3d19b56c8c5ff6fac8b40ada082b592179858271d14114a10e1864415a6910160405180910390a250949350505050565b600034116120415760405162461bcd60e51b815260206004820152601160248201527004f66666572206d757374206265203e203607c1b6044820152606401610929565b604080516060810182523380825234602080840182815260018587018181526000898152600f85528881208054808501825590825290859020885160039092020180546001600160a01b0319166001600160a01b03909216919091178155925191830191909155516002909101805460ff191691151591909117905593519081529192909184917fd294afec9d7ab02d1bc3b945a2e833190e9ac8c221c99a27a16afab5cf59e92891016112f1565b6108f0338383612b7f565b60608080600060015b6008548111612147576000818152600c602052604090206002015460ff1615612135578161213181613743565b9250505b8061213f81613743565b915050612104565b50806001600160401b0381111561216057612160613554565b604051908082528060200260200182016040528015612189578160200160208202803683370190505b509350806001600160401b038111156121a4576121a4613554565b6040519080825280602002602001820160405280156121cd578160200160208202803683370190505b509250806001600160401b038111156121e8576121e8613554565b604051908082528060200260200182016040528015612211578160200160208202803683370190505b509150600060015b60085481116122f5576000818152600c602052604090206002015460ff16156122e3578086838151811061224f5761224f613717565b6020908102919091018101919091526000828152600c909152604090205485516001600160a01b039091169086908490811061228d5761228d613717565b6001600160a01b039092166020928302919091018201526000828152600c909152604090206001015484518590849081106122ca576122ca613717565b6020908102919091010152816122df81613743565b9250505b806122ed81613743565b915050612219565b505050909192565b612308848484610cbd565b610d423385858585612c1e565b61231d61296d565b61232681611954565b6123425760405162461bcd60e51b8152600401610929906136e0565b6000818152600a602052604090206006015460ff161561239f5760405162461bcd60e51b81526020600482015260186024820152771058dd1a5d9a5d1e48185b1c9958591e481cd95d1d1b195960421b6044820152606401610929565b600034116123ef5760405162461bcd60e51b815260206004820152601d60248201527f416d6f756e74206d7573742062652067726561746572207468616e20300000006044820152606401610929565b6000818152600a60205260408120600401805434929061241090849061375c565b909155505050565b61242061299a565b6000828152600f602052604090208054821061246e5760405162461bcd60e51b815260206004820152600d60248201526c092dcecc2d8d2c840d2dcc8caf609b1b6044820152606401610929565b600081838154811061248257612482613717565b60009182526020909120600390910201600281015490915060ff166124dc5760405162461bcd60e51b815260206004820152601060248201526f4f66666572206e6f742065786973747360801b6044820152606401610929565b80546001600160a01b031633146125265760405162461bcd60e51b815260206004820152600e60248201526d2737ba103cb7bab91037b33332b960911b6044820152606401610929565b6001808201548354909160009161253d91906137a8565b90508085146125cf5783818154811061255857612558613717565b906000526020600020906003020184868154811061257857612578613717565b60009182526020909120825460039092020180546001600160a01b0319166001600160a01b03909216919091178155600180830154908201556002918201549101805460ff909216151560ff199092169190911790555b838054806125df576125df6137bb565b6000828152602081206003600019939093019283020180546001600160a01b031916815560018101829055600201805460ff191690559155604051339084908381818185875af1925050503d8060008114612656576040519150601f19603f3d011682016040523d82523d6000602084013e61265b565b606091505b505090508061269c5760405162461bcd60e51b815260206004820152600d60248201526c1499599d5b990819985a5b1959609a1b6044820152606401610929565b604051838152339088907f60c7613a8b8ce872a461e88b0f376098063e67e4df6d0aa6a55790fe81acdb589060200160405180910390a350505050506108f06001600755565b60606126ed82612927565b50600061270560408051602081019091526000815290565b905060008151116127255760405180602001604052806000815250612750565b8061272f84612d49565b604051602001612740929190613923565b6040516020818303038152906040525b9392505050565b6000818152600f60205260409020805460609182916001600160401b0381111561278357612783613554565b6040519080825280602002602001820160405280156127ac578160200160208202803683370190505b5081549093506001600160401b038111156127c9576127c9613554565b6040519080825280602002602001820160405280156127f2578160200160208202803683370190505b50915060005b81548110156128b75781818154811061281357612813613717565b600091825260209091206003909102015484516001600160a01b039091169085908390811061284457612844613717565b60200260200101906001600160a01b031690816001600160a01b03168152505081818154811061287657612876613717565b90600052602060002090600302016001015483828151811061289a5761289a613717565b6020908102919091010152806128af81613743565b9150506127f8565b5050915091565b6001600160a01b03918216600090815260056020908152604080832093909416825291909152205460ff1690565b6128f461296d565b6001600160a01b03811661291e57604051631e4fbdf760e01b815260006004820152602401610929565b61152481612b2d565b6000818152600260205260408120546001600160a01b03168061082457604051637e27328960e01b815260048101849052602401610929565b6113188383836001612ddb565b6006546001600160a01b0316331461197b5760405163118cdaa760e01b8152336004820152602401610929565b6002600754036129bd57604051633ee5aeb560e01b815260040160405180910390fd5b6002600755565b6000828152600260205260408120546001600160a01b03908116908316156129f1576129f1818486612ee1565b6001600160a01b03811615612a2f57612a0e600085600080612ddb565b6001600160a01b038116600090815260036020526040902080546000190190555b6001600160a01b03851615612a5e576001600160a01b0385166000908152600360205260409020805460010190555b60008481526002602052604080822080546001600160a01b0319166001600160a01b0389811691821790925591518793918516917fddf252ad1be2c89b69c2b068fc378daa952ba7f163c4a11628f55a4df523b3ef91a4949350505050565b6108f0828260405180602001604052806000815250612f45565b600080612ae3846108bc565b9050306001600160a01b03821603612aff576001915050610824565b612b0983306128be565b15612b18576001915050610824565b5060009392505050565b612308848484612f5d565b600680546001600160a01b038381166001600160a01b0319831681179093556040519116919082907f8be0079c531659141344cd1fd0a4f28419497f9722a3daafe3b4186f6b6457e090600090a35050565b6001600160a01b038216612bb157604051630b61174360e31b81526001600160a01b0383166004820152602401610929565b6001600160a01b03838116600081815260056020908152604080832094871680845294825291829020805460ff191686151590811790915591519182527f17307eab39ab6107e8899845ad3d59bd9653f200f220920489ca2b5937696c31910160405180910390a3505050565b6001600160a01b0383163b15612d4257604051630a85bd0160e11b81526001600160a01b0384169063150b7a0290612c60908890889087908790600401613952565b6020604051808303816000875af1925050508015612c9b575060408051601f3d908101601f19168201909252612c9891810190613985565b60015b612d04573d808015612cc9576040519150601f19603f3d011682016040523d82523d6000602084013e612cce565b606091505b508051600003612cfc57604051633250574960e11b81526001600160a01b0385166004820152602401610929565b805160208201fd5b6001600160e01b03198116630a85bd0160e11b14612d4057604051633250574960e11b81526001600160a01b0385166004820152602401610929565b505b5050505050565b60606000612d568361300d565b60010190506000816001600160401b03811115612d7557612d75613554565b6040519080825280601f01601f191660200182016040528015612d9f576020820181803683370190505b5090508181016020015b600019016f181899199a1a9b1b9c1cb0b131b232b360811b600a86061a8153600a8504945084612da957509392505050565b8080612def57506001600160a01b03821615155b15612eb1576000612dff84612927565b90506001600160a01b03831615801590612e2b5750826001600160a01b0316816001600160a01b031614155b8015612e3e5750612e3c81846128be565b155b15612e675760405163a9fbf51f60e01b81526001600160a01b0384166004820152602401610929565b8115612eaf5783856001600160a01b0316826001600160a01b03167f8c5be1e5ebec7d5bd14f71427d1e84f3dd0314c0f7b2291e5b200ac8c7c3b92560405160405180910390a45b505b5050600090815260046020526040902080546001600160a01b0319166001600160a01b0392909216919091179055565b612eec8383836130e5565b611318576001600160a01b038316612f1a57604051637e27328960e01b815260048101829052602401610929565b60405163177e802f60e01b81526001600160a01b038316600482015260248101829052604401610929565b612f4f838361314b565b611318336000858585612c1e565b6001600160a01b038216612f8757604051633250574960e11b815260006004820152602401610929565b6000612f95838360006129c4565b90506001600160a01b038116612fc157604051637e27328960e01b815260048101839052602401610929565b836001600160a01b0316816001600160a01b031614610d42576040516364283d7b60e01b81526001600160a01b0380861660048301526024820184905282166044820152606401610929565b60008072184f03e93ff9f4daa797ed6e38ed64bf6a1f0160401b831061304c5772184f03e93ff9f4daa797ed6e38ed64bf6a1f0160401b830492506040015b6d04ee2d6d415b85acef81000000008310613078576d04ee2d6d415b85acef8100000000830492506020015b662386f26fc10000831061309657662386f26fc10000830492506010015b6305f5e10083106130ae576305f5e100830492506008015b61271083106130c257612710830492506004015b606483106130d4576064830492506002015b600a83106108245760010192915050565b60006001600160a01b038316158015906131435750826001600160a01b0316846001600160a01b0316148061311f575061311f84846128be565b8061314357506000828152600460205260409020546001600160a01b038481169116145b949350505050565b6001600160a01b03821661317557604051633250574960e11b815260006004820152602401610929565b6000613183838360006129c4565b90506001600160a01b03811615611318576040516339e3563760e11b815260006004820152602401610929565b6001600160e01b03198116811461152457600080fd5b6000602082840312156131d857600080fd5b8135612750816131b0565b60005b838110156131fe5781810151838201526020016131e6565b50506000910152565b6000815180845261321f8160208601602086016131e3565b601f01601f19169290920160200192915050565b6020815260006127506020830184613207565b60006020828403121561325857600080fd5b5035919050565b80356001600160a01b038116811461327657600080fd5b919050565b6000806040838503121561328e57600080fd5b6132978361325f565b946020939093013593505050565b600080604083850312156132b857600080fd5b50508035926020909101359150565b6000806000606084860312156132dc57600080fd5b6132e58461325f565b92506132f36020850161325f565b9150604084013590509250925092565b600081518084526020808501945080840160005b8381101561333357815187529582019590820190600101613317565b509495945050505050565b6001600160a01b0389168152602080820189905261010060408301819052885190830181905260009161012080850192600581901b860190910191908b8201855b828110156133ae5761011f1988860301865261339c858351613207565b9584019594509083019060010161337f565b505050508860608501528760808501526133cc60a085018815159052565b8560c085015283810360e08501526133e48186613303565b9c9b505050505050505050505050565b60006020828403121561340657600080fd5b6127508261325f565b6020815260006127506020830184613303565b60008060006040848603121561343757600080fd5b83356001600160401b038082111561344e57600080fd5b818601915086601f83011261346257600080fd5b81358181111561347157600080fd5b8760208260051b850101111561348657600080fd5b6020928301989097509590910135949350505050565b600080604083850312156134af57600080fd5b6134b88361325f565b9150602083013580151581146134cd57600080fd5b809150509250929050565b600081518084526020808501945080840160005b838110156133335781516001600160a01b0316875295820195908201906001016134ec565b6060815260006135246060830186613303565b828103602084015261353681866134d8565b9050828103604084015261354a8185613303565b9695505050505050565b634e487b7160e01b600052604160045260246000fd5b6000806000806080858703121561358057600080fd5b6135898561325f565b93506135976020860161325f565b92506040850135915060608501356001600160401b03808211156135ba57600080fd5b818701915087601f8301126135ce57600080fd5b8135818111156135e0576135e0613554565b604051601f8201601f19908116603f0116810190838211818310171561360857613608613554565b816040528281528a602084870101111561362157600080fd5b82602086016020830137600060208483010152809550505050505092959194509250565b60408152600061365860408301856134d8565b828103602084015261366a8185613303565b95945050505050565b6000806040838503121561368657600080fd5b61368f8361325f565b915061369d6020840161325f565b90509250929050565b600181811c908216806136ba57607f821691505b6020821081036136da57634e487b7160e01b600052602260045260246000fd5b50919050565b60208082526017908201527f416374697669747920646f6573206e6f74206578697374000000000000000000604082015260600190565b634e487b7160e01b600052603260045260246000fd5b634e487b7160e01b600052601160045260246000fd5b6000600182016137555761375561372d565b5060010190565b808201808211156108245761082461372d565b80820281158282048414176108245761082461372d565b6000826137a357634e487b7160e01b600052601260045260246000fd5b500490565b818103818111156108245761082461372d565b634e487b7160e01b600052603160045260246000fd5b6000808335601e198436030181126137e857600080fd5b8301803591506001600160401b0382111561380257600080fd5b60200191503681900382131561381757600080fd5b9250929050565b601f82111561131857600081815260208120601f850160051c810160208610156138455750805b601f850160051c820191505b81811015612d4057828155600101613851565b6001600160401b0383111561387b5761387b613554565b61388f8361388983546136a6565b8361381e565b6000601f8411600181146138c357600085156138ab5750838201355b600019600387901b1c1916600186901b178355612d42565b600083815260209020601f19861690835b828110156138f457868501358255602094850194600190920191016138d4565b50868210156139115760001960f88860031b161c19848701351681555b505060018560011b0183555050505050565b600083516139358184602088016131e3565b8351908301906139498183602088016131e3565b01949350505050565b6001600160a01b038581168252841660208201526040810183905260806060820181905260009061354a90830184613207565b60006020828403121561399757600080fd5b8151612750816131b056fea2646970667358221220e1390985c7dc1212404e72d9bb2fb477e4f302e5d2155cb121337482a17be0ff64736f6c63430008140033",
  "linkReferences": {},
  "deployedLinkReferences": {}
}